:10000000C01D0020192C0000295A0000ED2B000013
:10001000ED2B0000ED2B0000ED2B00000000000098
:10002000000000000000000000000000212500008A
:10003000ED2B000000000000CD240000ED2B00009F
:10004000D1250000D1250000D1250000D1250000D8
:10005000D1250000D1250000D1250000D1250000C8
:10006000D1250000D1250000D1250000D1250000B8
:10007000D1250000D1250000D1250000D1250000A8
:10008000D1250000D1250000D1250000D125000098
:10009000D1250000D1250000D1250000D125000088
:1000A000D1250000D1250000D1250000D125000078
:1000B000D1250000D1250000D1250000D125000068
:1000C000D1250000D1250000D1250000D125000058
:0C00D000D1250000D1250000D125000042
:1000DC0053B94AB9002908BF00281CBF4FF0FF31A3
:1000EC004FF0FF3000F00CB8ADF1080C6DE904CE08
:1000FC0000F008F8DDF804E0DDE9022304B07047F5
:10010C00704700BF2DE9F04786468C460846089E8E
:10011C00154674461946002B40F0C2808542B2FA4F
:10012C0082F245D94AB1C2F1200300FA02FC2EFA40
:10013C0003F3954043EA0C0C94404FEA154EA8B2D9
:10014C00BCFBFEF8230C0EFB18CC08FB00F943EAB1
:10015C000C43994528D9EB1808F1FF3704D299457F
:10016C0002D9A8F102072B44A3EB0903A4B2B3FBF9
:10017C00FEFC0EFB1C330CFB00F044EA0344A042D3
:10018C0014D92C190CF1FF3304D2A04202D9ACF1D2
:10019C0002032C44241A43EA07401EB1D440002326
:1001AC0034607360BDE8F0874746DDE76346F1E7EE
:1001BC0092BB431B01214FEA154EAFB2B3FBFEFCC1
:1001CC00200C0EFB1C330CFB07F840EA034398454C
:1001DC0062D9EB180CF1FF3004D2984502D9ACF17E
:1001EC0002002B44A3EB0803A4B2B3FBFEFC0EFBF2
:1001FC001C330CFB07F744EA0344A7424ED92C19D5
:10020C000CF1FF3304D2A74202D9ACF102032C4407
:10021C00E41B43EA0040C0E7C2F1200320FA03F1DB
:10022C00954090402EFA03F303434FEA154EAFB2BC
:10023C00B1FBFEFC0EFB1C10190C0CFB07F841EA81
:10024C000041884504FA02F422D969180CF1FF30F8
:10025C0004D2884502D9ACF102002944A1EB080173
:10026C009BB2B1FBFEFC0EFB1C110CFB07F743EA27
:10027C0001439F420ED9EB180CF1FF3104D29F427F
:10028C0002D9ACF102012B44DB1B41EA004192E79D
:10029C006046E3E76146F7E76046A3E76346B7E7E6
:1002AC00834206D916B9002108467BE7C6E900E06F
:1002BC00F9E7B3FA83F78FB9834201D3724508D8B3
:1002CC00BEEB020460EB030301209C461EB9002127
:1002DC0068E73846FAE7C6E9004CF8E7C7F1200CA6
:1002EC00BB4022FA0CF41C432EFA0CF120FA0CF34E
:1002FC00B84001434FEA14490EFA07F5B3FBF9F87D
:10030C001FFA84FE09FB18300B0C08FB0EFA43EAAB
:10031C0000439A4502FA07F240D9E31808F1FF307E
:10032C0004D29A4502D9A8F102002344A3EB0A0394
:10033C0089B2B3FBF9F809FB183308FB0EFE41EA4E
:10034C0003418E452CD9611808F1FF3304D28E4538
:10035C0002D9A8F10203214443EA0040A0FB029811
:10036C00A1EB0E014145CE46434602D306D14D4585
:10037C0004D2B9EB020E68EB04030138002EA6D0B0
:10038C00B5EB0E0261EB030101FA0CFC22FA07F348
:10039C004CEA0303F940C6E9003198E74046C5E74B
:1003AC004346D9E708B50849084804F006FF00F0B1
:1003BC0011F84FF42030002104F0FEFBBDE808409A
:1003CC00034804F0FABE00BF706300007B630000BA
:1003DC008C63000010B50A4C0A4804F0EEFE20684D
:1003EC0083685B690BB100219847606883685B691F
:1003FC000BB100219847BDE81040034804F0DDBE66
:10040C000000002097630000A86300002DE9F04F66
:10041C0091B08407009302F004030293C2F3C20369
:10042C0003F10103DDF86880039205460E4605933F
:10043C0040F0BE81041D30B1072909D86FF01B00B4
:10044C0011B0BDE8F08F01F00706341DC6F10806A7
:10045C00009B4FF00009591E4FF0040A4FF0FF3378
:10046C000193CDF810904F46CB4653460DB1009AF0
:10047C0022600598002800F3EB809A48009A82428B
:10048C0003D399488242C0F0E380039AA4EB050E93
:10049C0092074FEA9E0000F106810F2F00F2B48004
:1004AC00002D00F0088107F140020DEB020C019ABF
:1004BC000CF8200C0CF8102C049801300490EAE095
:1004CC007A2860D84B280ED847285CD829282FD8F2
:1004DC00252855D057D820287DD02338D0F1000BB3
:1004EC004BEB000B77E0A0F14C0CBCF12E0F4AD873
:1004FC00DFE80CF071494949494949494949494999
:10050C004C49494949494949495A494C4C5A5A5A02
:10051C00714C6E497149184C18494983804C4949B2
:10052C004C49800000204FF0000B4FF0040A39E0DA
:10053C00A0F12A0C5FFA8CFC012202FA0CFC1CEADA
:10054C000E0F48D11CF062502ED11CEA020B42D087
:10055C00013C5444CAF1000C04EA0C04002D61D097
:10056C00A3EB050CA444B4453FF668AF002868D152
:10057C00042B47D158F8043B2360043404232AE0AD
:10058C00019A013A01924FF0000B24E011F8010C92
:10059C006C2834D111F8023C00206C2B8346C4D15A
:1005AC004FF0080A5346D3E708F1070828F007086C
:1005BC000734F8E802AB24F0070435B10698204460
:1005CC00B0423FF63BAFC4E900AB08344FF0000B30
:1005DC004FF0080A534611F8010F002878D0BBF1F0
:1005EC00000F7FF46DAF2528F5D1019B01330193EA
:1005FC004FF0010B4FF0040AECE7584693E700204C
:10060C008346A5E7082B02D06FF0150018E708F118
:10061C00070828F00708F8E80223C4E90023083487
:10062C000823D8E768B9042B02D108F10408A4E721
:10063C00082BE9D108F1070828F0070808F1080889
:10064C00EDE7059A013A059258F8042B00920DE754
:10065C00039A900720D5A4EB050E4FEA9E004FF0AD
:10066C00010CBEF5007FCFD20F2FCDD8F5B107F11D
:10067C0040020DEB020EC0B2019A0EF8200C0EF8DF
:10068C00102CBCF1000F3FF417AF60F07F000EF898
:10069C00200C09F101090137C5F108020434069256
:1006AC004FF6DA7E97E74FF0000CDAE7BCF1000F5B
:1006BC0001D00136EFE7029802360028EBD1009802
:1006CC00CDE9063105F0BEF9DDE906310644E2E775
:1006DC00631BB3F5806F97D245B9A6F10804E018F7
:1006EC00AEE600BFA85F0000BC6B0000029A286059
:1006FC009B082B709DF81030C2B1EB7085F80290FE
:10070C00B9F1000F05D008A80022C5F1010C9742E1
:10071C000ED1C5F101030DF120084FF0000A019331
:10072C000DF1300B574512D1601B89E66B70E5E774
:10073C0010F8013B190608D504EB0C0EB64503F076
:10074C007F033FF67BAE04F8013B0132DFE7B9F1E2
:10075C00000F03D098F90020002A17DB029BD3B1BD
:10076C001AF80B2004F8012B0022019B9818204446
:10077C00B0423FF663AE98F8000004F8010B009904
:10078C000392204605F06EF9039A14440AF1010A0B
:10079C0008F10108C6E798F8002055F822300093BC
:1007AC00029B45F82230009805F04CF9421CDCE71E
:1007BC006FF00D0044E600BF2DE9F04F95B000AF8F
:1007CC000446D7F878B0BB61CBF3C0037A623B61C7
:1007DC00396251B903784678807800EB8300204465
:1007EC000D46AE421AD8031B3B6294F80290E37894
:1007FC007B614E46B9F1000F02D01BF0010F16D1F0
:10080C007B6953BB7B6A1BB1BA69396A204698472E
:10081C003D6A28465437BD46BDE8F08F00F101080B
:10082C00404605F00FF9013040440135D9E794F802
:10083C0000A06368FB617B6A4FEA8A02FA6004EBF2
:10084C008A0A002B40F001813D6AD04609EB0A036D
:10085C00002643454ED1CA4413E01BF0020FD1D001
:10086C0094F800A04FEA8A03FB606368FB617B6A23
:10087C0004EB8A0A002B78D13D6AB9F1000F4ED1F6
:10088C004E461BF0050F0CBF022301237B627B69D4
:10089C000AEB43090BF002033B62CA45B9D01AF8C4
:1008AC00021B1AF8013C54F82380AD4B984502D337
:1008BC00AC4B984539D33B69002B43D0F86904F015
:1008CC0042FC00283ED0E8468AB06A46A64B5361EB
:1008DC00FB69C2E906314FF400731384A34B42F851
:1008EC00103FA34800234FF4125101F0B3F8023D1E
:1008FC00C546D2E718F8012B7B6254F8220005F0AC
:10090C00A1F8FA6F7B6A01303AB1D7F88020964291
:10091C003EBFFA6F22F816000136054499E71BF02A
:10092C0004061CBF7E6ACA44ABE73B6923B1F86975
:10093C0004F009FC0028C6D11BF0010F05D17B6A1D
:10094C00ED1AAAE73B6A002BA7D0404605F07AF8CF
:10095C00FB6F43B1D7F880309E423FBFFA6F431C08
:10096C0022F816300136054497E7B9F1000F71D023
:10097C001BF0040671D0C846002607F140004A4619
:10098C00514605F06FF87B695B00BB607B69CA441C
:10099C000AEB43037B610BF002037B607B699A4596
:1009AC005DD12378FB6163781BF0020F06EB030229
:1009BC000CBF4FEA580100211BF0010FD2B240F0DE
:1009CC009D801BF0040F14BF4046002094F802B029
:1009DC0094F803A03B616270A070E170BA69F96889
:1009EC007B6A20469847051EFFF613AFFB69237000
:1009FC003B6963704146BA697B6A84F802B084F83B
:100A0C0003A007F140009847B0F10008C0F2A380A2
:100A1C003B6ABA697869A3EB0901FB68C91ABB6820
:100A2C00C91A7B6A98470028C0F29780A84408EB43
:100A3C0000054FF0000B07F1300AB34560DB0021D5
:100A4C00BA697B6A08469847E3E64FF0000807F15D
:100A5C00300094E74E46C84695E7B04693E71AF83F
:100A6C00021B3F4A1AF8015C54F82530934202D31A
:100A7C003C4A93421CD33B6923B1F86904F063FBF5
:100A8C0000288BD17B68F3B908F1280207F1280004
:100A9C00024408F1010302F8101C07F1500252FA4B
:100AAC0083F308F102085FFA88F803F8105C75E725
:100ABC003B692BB1F86904F046FB00287FF46EAF5C
:100ACC001BF0010F09D006F1280207F12801731C55
:100ADC00561806F8205CDEB260E71BF0040F3FF4FA
:100AEC005DAF08F1280207F1280108F1010302EBC0
:100AFC00010808F8105C5FFA83F84FE7002065E7FF
:100B0C001BF80A3087F82F3054F82390FB6FFBB199
:100B1C0033F81B80BA697B6A012107F12F009847D3
:100B2C0000281ADB0544B8F1000F06D1484604F042
:100B3C0089FF00F101081FFA88F8BA697B6A4146FF
:100B4C0048469847002808DB05440BF1010B74E775
:100B5C00D7F87C80DEE745465BE6054659E600BFE4
:100B6C00A85F0000BC6B0000B8630000040000012B
:100B7C00B0610000014B1860704700BF08000020F6
:100B8C0030B587B00025CDE903010446009503A9D3
:100B9C000548059500F018F9DDE904309842B8BF16
:100BAC00255407B030BD00BFA15100002DE9F0471E
:100BBC00058B04462807904611D4022905F0070539
:100BCC0040F0CD80204604F01CFB78B10138218B1D
:100BDC00042811D8DFE800F0C3106D8595000129B9
:100BEC000CBF45F0100545F02005258388F31188CE
:100BFC00BFF36F8FBDE8F08701F0070AAA4500F03C
:100C0C00A6800027B9463E46A368002B00F0BD80A5
:100C1C0041F00801218388F31188BFF36F8FA1681D
:100C2C00002900F0BB800D68002900F0B780D1F8D6
:100C3C000480334652462046C047002D76D02B68A0
:100C4C0029461D46F0E701F007035A1F012A1BD85D
:100C5C00002221F00701062B276889B2C4E9002283
:100C6C0009D13B4603E0628B013262831B68002B87
:100C7C00F9D141F002012183204604F0C2FA002888
:100C8C007BD041F0200177E0042B0AD121F0070141
:100C9C0089B22183204604F0B4FA10B141F020014E
:100CAC002183218B01F0070AAA4550D00027B946B1
:100CBC00AAE7236921F0070141F00601062DD3F8BC
:100CCC00009021832DD1B9F1000F40D041F00801E3
:100CDC00218388F31188BFF36F8F3A492046C847A8
:100CEC0029E021F00701236941F0040189B2042DA8
:100CFC00D3F804902183E6D000273E464FF0040A37
:100D0C0082E721F00701236941F0050189B2052D25
:100D1C00D3F808902183D6D000273E464FF0050A21
:100D2C0072E700273E464FF0060A6DE72B4687E731
:100D3C00B9F1000FD1D14FF02003EFF3118883F3F9
:100D4C001288BFF36F8F238B23F008032383258B2B
:100D5C00EA062ED525F01003238305F007056669F6
:100D6C00218B002EBFF66FAF00232768C4E9003338
:100D7C0021F0070141F001012183218B01F0070AC9
:100D8C00AA454FF000097FF43FAF002F9BD041F0F4
:100D9C000801218388F31188BFF36F8F002FC7D010
:100DAC003D68394633465246204604F056FA2F46E3
:100DBC00F4E7AB067FF51AAF25F02003238305F08B
:100DCC000705FFE6935200002DE9F04F814695B0E0
:100DDC008B4617461C460025387808B9284658E338
:100DEC007B1C2528039306D05946C8470028C0F21F
:100DFC0050830135FBE1182200210EA804F03DFEC2
:100E0C007B78252B7DD00023781C98469E469C46EB
:100E1C001E46014610F8012B2B2A00F0A18000F28F
:100E2C009880202A00F09F80232A00F09F802BB10D
:100E3C009DF8403043F040038DF84030B8F1000F7E
:100E4C0005D09DF8403043F020038DF84030BEF1C2
:100E5C00000F05D09DF8403043F010038DF8403062
:100E6C00BCF1000F05D09DF8403043F008038DF81D
:100E7C0040302EB19DF8403043F004038DF84030E3
:100E8C009DF8403003F04400442803D16FF38613DF
:100E9C008DF840309DF840302A2A43F080038DF8BD
:100EAC0040307FD19DF8412042F001024B1C8DF85F
:100EBC0041201A782E2A9DF841200CBF01210021D7
:100ECC0061F341028DF8412078D15A782A2A6ED0EC
:100EDC00013300224FF00A0C194611F8010BA0F156
:100EEC003006092E40F295809DF840101292C1F305
:100EFC00400040EAD2700A4660F341028DF840206F
:100F0C005CE0BA1C03928DF843309DF84130DA074F
:100F1C0040F12E8154F8048BB8F1000F07DA9DF8DC
:100F2C00402042F004028DF84020C8F100085E0712
:100F3C0040F1278154F804ABBAF1000F80F22681FE
:100F4C009DF841306FF341038DF841304FF0FF3A7B
:100F5C001CE12D2A0DD0302A7FF469AF012358E70C
:100F6C004FF0010C55E74FF0010E52E74FF001081E
:100F7C004FE701264DE70EFB0262303A0346184656
:100F8C0010F8016BA6F1300CBCF1090FF3D99942A2
:100F9C008FD09DF840101192D20F62F341018DF861
:100FAC00401086E70B4600224FF00A0EE7E79DF84B
:100FBC00412042F004028DF8412002331A786C2A49
:100FCC0047D02BD8682A31D06A2A4BD04C2A51D022
:100FDC001A4612F8013B0392782B9DF841208DF8AC
:100FEC00433000F2BE806D2B51D8692B00F2B980D2
:100FFC00572B67D8412B03D0453B022B00F2B18015
:10100C009DF84230042262F302038DF84230012332
:10101C0073E00CFB0202303A0B465DE7742A25D0D4
:10102C007A2AD5D19DF8412006210CE05A78682AFD
:10103C009DF8412006D1012161F3C6028DF84120B3
:10104C000233C5E7022161F3C6028DF8412001335A
:10105C00BEE75A786C2A9DF8412001D10421EBE7B8
:10106C000321F0E79DF841200521ECE79DF8412094
:10107C000721E8E7BDF8402022F4F04222F00202FA
:10108C0042F4804242F00202ADF84020DFE76E3BB2
:10109C00D9B201238B4040F282410B4237D113F07D
:1010AC00240F51D1D8075CD59DF84230032161F350
:1010BC0002038DF8423002F07803A3F140014B4259
:1010CC004B411AE0A3F15801C9B2012000FA01F119
:1010DC0011F4624F94D140F6010631421DD111F446
:1010EC00043F3ED09DF8423060F3020302F07802D8
:1010FC00402A8DF8423034D000239DF84020C2F3B2
:10110C0040010B4363F341028DF84020FDE69DF84E
:10111C004230022161F30203E8E79DF842100220FD
:10112C0002F0780260F30201402A8DF8421002BFEF
:10113C009DF8401041F001018DF84010632BDBD17C
:10114C00131E18BF0123D8E79DF84230032161F329
:10115C00020312F0780F8DF8423014BF01230023E4
:10116C00CBE79DF8403043F001038DF84030C3E7E6
:10117C009DF94020002AB4BFDDF844804FF0FF38C1
:10118C00D5E698077FF5E2AEDDF848A09DF8411052
:10119C000023CDE911339DF8423003F00703012BF6
:1011AC00C1F3C30133D1CB1E042B04D8DFE803F009
:1011BC00214646212100236801294FEAE372CDE93B
:1011CC000E321CD19DF93830DA17CDE90E320434C9
:1011DC009DF8403013F0030650D0039B3A46594615
:1011EC00484604F052F90028C0F253810544039F8D
:1011FC00F2E554F8043BDA17CDE90E32E8E70229A0
:10120C00E5D11AB243F3C033CDE90E23DFE7022B4D
:10121C0024D1CB1E042B04D8DFE803F018101018CF
:10122C001800012954F8043B4FF0000214D0022995
:10123C00CDE90E32CCD19BB20E93C9E7073424F022
:10124C000704F4E80223CDE90E23C1E754F8043B6C
:10125C000E9300230F93BBE7DBB2CDE7042B08D131
:10126C00073424F00704D4E900230834CDE90E2315
:10127C00AEE7032BACD154F8043BDDE79DF84300FB
:10128C007828B4D862281CD825283FF4ADAD58284E
:10129C00ADD10DF136030093DDE90E0108AB10AAB8
:1012AC0004F0ADF8BAF1000F074680F29A80002FD7
:1012BC009DD00DF13603D81B002E00F0C1800130FB
:1012CC00BEE06338152892D801A252F820F000BF76
:1012DC00B1130000C3130000FB110000FB11000050
:1012EC00FB110000FB110000C3130000FB110000F8
:1012FC00FB110000FB110000FB1100005114000059
:10130C00E91300000F140000FB110000FB1100009A
:10131C0035130000FB110000E9130000FB11000065
:10132C00FB110000E9130000BAF1000F0E9F35DB32
:10133C005146384604F08DFB07EB000A002F3FF4B2
:10134C0056AF00269DF8423013F01002059200F0C3
:10135C00938002305B06119A48BF129B0492104492
:10136C0048BFC018B8F1000F40F3A0809DF8402092
:10137C00A8EB0008C2F380035007069300F1968097
:10138C00510640F189803EB159463046C847002885
:10139C007FDB069B01351E4630227EE0384604F08A
:1013AC0051FBC9E70E9B8DF82030002608AF0DF1DC
:1013BC00210A0120C6E719075CBFC3F300135E01C5
:1013CC00DDE90E2348BF2B26002BBFF662AF52423D
:1013DC0063EB4303CDE90E232D265AE7002658E78D
:1013EC0000269DF840200DF13603DB1B6FF38612AF
:1013FC009A458DF840207FF65AAFAAEB0303119360
:10140C0055E70E9890B30DF13603009310AA08AB74
:10141C00002103F0F4FFBDF8423003F0EF0343F476
:10142C00F04343F01003BAF1000F0746ADF8423019
:10143C00D6DA00283FF4DBAE0DF13603181A00267D
:10144C009A467FE70E9B07293FF6D1AEDFE801F005
:10145C000C04060C08080C0C1D70C8E61D80C6E6B2
:10146C00EA17C3E90052C2E61D60C0E62E4F0646DD
:10147C0007F1050A052065E71A0748BF013069E73F
:10148C000793104606925946C8470028DDE9062303
:10149C0004DA15B0BDE8F08F202243461946002926
:1014AC0003F1FF33ECDC45446D1A98462EB15946D6
:1014BC003046C8470028ECDB01359DF84230DA068F
:1014CC0001D41B0705D559463020C8470028E0DB5E
:1014DC000135059B33B19DF843005946C847002898
:1014EC00D7DB0135049E2E4405E059463020C84711
:1014FC000028CEDB0135731B002BF6DC53463A4635
:10150C005946484603F0C1FF0028C2DB0544A844F5
:10151C00A8EB0503002B7FF76AAE59462020C8477D
:10152C000028B6DB0135F3E76C64000002F0D0B99B
:10153C002DE9F047DFF85880044607464FF00109C3
:10154C0014B93846BDE8F08794FAA4F5B5FA85F5D8
:10155C0009FA05F32E0108EB05156FEA030A24EAD4
:10156C0003042B7B002BEBD058F806301B694BB9CE
:10157C004644042273682846196807EA0A0700F0F3
:10158C0055FADDE7284698470028D9D1F0E700BF87
:10159C000062000030B51049104889B0002204F0F8
:1015AC00CDFC0F4D0F4900220023CDE9062300246A
:1015BC000E23CDE90334CDE901440B4B00944FF4D9
:1015CC004072284602F08EFE0849284604F07EFB45
:1015DC00204609B030BD00BFFD15000018050020E5
:1015EC0090000020C00C0020E51800007264000080
:1015FC00014802F0D1BF00BF7C0000202DE9F0476C
:10160C0080461F480F4604F067F90646002830D084
:10161C0000252846BDE8F087237B73B12368DB687F
:10162C000BB12046984723681B69D3B96368042221
:10163C001968204600F0FAF9013610344C45EBD30A
:10164C00B8F1000FE5D0002DE2D02846FFF770FF6F
:10165C000546002FF7D000214FF4A47003F0ACFA2C
:10166C00F1E7204698470028E0D00AFA06F31D431C
:10167C00E2E7044CDFF8109005464FF0010ADDE775
:10168C00880600200062000010620000014B53F835
:10169C00200070472C62000008B5034608462BB1A9
:1016AC00044A136000F048FC002008BD6FF01500E0
:1016BC00FBE700BF0C00002010B5044C237813B9D5
:1016CC00034802F069FF0123237010BD7408002049
:1016DC007C00002010B50446084804F0FDF85CB10D
:1016EC00BFF35B8F064B53E8001F013943E8001230
:1016FC00002AF8D1BFF35B8F10BD00BF800600201D
:10170C00840600200020064BBFF35B8F014653E894
:10171C00000F43E80012002AF9D1BFF35B8F70472A
:10172C008006002070B5FFF7EDFF084C084E05460B
:10173C00B44200D370BD63685B792BB123685B68DE
:10174C0013B12946204698471034F1E70062000097
:10175C001062000010B5044C0449204603F059FFF8
:10176C00034B1C6010BD00BF2C0000201862000051
:10177C007806002008B5074A074800231370074A6B
:10178C004FF400411360FFF787FFBDE80840FFF7F7
:10179C00E1BF00BF75080020E15800008006002062
:1017AC00014600220148002303F054BF2C00002006
:1017BC00014803F0EDBF00BF2C000020024B014696
:1017CC00186804F035B800BF78060020014804F012
:1017DC0063B800BF2C00002070B5284B1878002887
:1017EC004BD0FFF7E5FF054690B1BFF35B8F244B61
:1017FC0053E8001F013943E80012002AF8D1BFF367
:10180C005B8F204C204EB4422DD32846FFF7D6FFD9
:10181C001E4B1F4C1B68002B19DD04F089FB4FF489
:10182C007A72A0FB020302FB0131C30BD4E9002046
:10183C0043EA41439B1A4FEAD13140F2E93261EB62
:10184C000001934271F1000101D3FFF76BFFD4E962
:10185C00003213F57A7342F10002C4E90032BDE89C
:10186C007040FFF7B3BF63685B7923B123682946E7
:10187C001B68204698471034C5E770BD74080020DB
:10188C008406002000620000106200008006002028
:10189C001005002070B50D4D297861B90120FFF7B6
:1018AC00ADFE0B4C0B4EB44206D3FFF795FF002850
:1018BC00FBD101232B7070BD63685B791BB123686E
:1018CC0020469B6898471034EDE700BF7508002050
:1018DC00006200001062000000212DE9F04708466C
:1018EC00FFF78CFE044648B340F267684FF00009DE
:1018FC0003F07CF91A4B186030B11A4B1B68092B9A
:10190C0002DD194802F048FE184FDFF85CA00025F4
:10191C0044B12046FFF70CFE044618B94FF0FF38CF
:10192C004FF0FF39FFF758FF064628B9B5B94246C4
:10193C004B46504602F050FE3546E9E74FF0FF3873
:10194C004FF0FF39D4E72B689B691BB1002211467D
:10195C00284698471035BD42F5D3E8E7044DFAE721
:10196C007C060020840600207C0000201062000011
:10197C000062000013B5184803F0AEFF174B1B783C
:10198C007BB14FF02003EFF3118483F31288BFF384
:10199C006F8FFFF721FF84F31188BFF36F8F02B0B5
:1019AC0010BD0F4B1B68002BF9D050B9002200233F
:1019BC00CDE900230B484FF40042002303F040FB19
:1019CC00EDE70A28EBD1074804F0C4FA064802B048
:1019DC00BDE8104002F0E0BD840600207508002030
:1019EC007C060020180500207C00002010B5064B5A
:1019FC001B68044698472146A060044803F0A8FEE3
:101A0C00BDE81040FFF7B6BF0C0000202C000020F2
:101A1C00044A054B9B1AB1EBD30F34BF52F831007B
:101A2C0000207047A061000000620000084BC31A40
:101A3C0010B41B1144680133237143689A714368D5
:101A4C001960436801225A7110BCFFF735BE00BF04
:101A5C00006200002DE9F04F8FB0C1F3CB44C1F30D
:101A6C00492605900D46904699461734002E3CD0D9
:101A7C004FF0040B09AF4FF00A0A002231460BABB2
:101A8C00CDF808B00197CDF800A04046CDE90B2267
:101A9C000D920796FEF790FEC0F30903181920F07B
:101AAC00070080081E4663F352250693FFF778FE65
:101ABC00044678B1069B0C93103000220B900D92CB
:101ACC00CDE9017B0C4A0799CDF800A00BAB404641
:101ADC00FEF772FE66F3522505994B462A462046C0
:101AEC000FB0BDE8F04F03F02DBF24F007008008C5
:101AFC00FFF756FE0446EDE7255900002DE9F04F9F
:101B0C0087B0DDE91269DDE9105A04460F469346A9
:101B1C009846B6B31021CDF80090334652460020BB
:101B2C00CDF81490FEF772FC0146174B039104F0AC
:101B3C0007040BF0070BE40003EA412305F117003F
:101B4C0044EA8B141C430844104B20F0070003EAB2
:101B5C00C54380081C43FFF723FE054640B13EB148
:101B6C000399CDF80090334652461030FEF74EFCE8
:101B7C00434622463946284607B0BDE8F04F03F0ED
:101B8C00E1BE3146D1E700BF00FE07000000F87F40
:101B9C000EB403B503AB014653F8042B0448019370
:101BAC0003F0F7FE02B05DF804EB03B0704700BF22
:101BBC00C7590000CA0605D48B064CBF024903491D
:101BCC00FFF7E6BF704700BF886400008764000021
:101BDC002DE9F04F89B09B469DF848300493DDE920
:101BEC0013930593049B0692DDE9157604460D4686
:101BFC00002B00F0878006F00803079303F08AFEA1
:101C0C0006F0020A024600284BD086492046FFF710
:101C1C00BFFF8046BAF1000F08D016F0440F42D136
:101C2C0081492A462046FFF7B3FF804406F00103A2
:101C3C005BB17E4B049A7E4953F822207D4B2046A3
:101C4C00002A08BF1A46FFF7A3FF06F00803002B73
:101C5C0055D0794B049A794953F822202046FFF746
:101C6C0097FF0546069B2BB175491A462046FFF790
:101C7C008FFF0544BBF1000F05D072495A46204630
:101C8C00FFF786FF05444544B9F1000F49D1002FF9
:101C9C004FD1F30700F1C08031462046FFF78AFF91
:101CAC00B4E08046B6E7684B18680028BDD0674B97
:101CBC004FF47A7E1B68B5FBF3F54FF46162B5FB0C
:101CCC00F0F300FB1355B3FBF2FA0EFB05F502FB28
:101CDC001A323C21B5FBF0FCB2FBF1F300FB1C55B6
:101CEC0001FB13220EFB05F50092B5FBF0F55849EC
:101CFC00CDE901C552462046FFF74AFF95E706F0AD
:101D0C000805AFE7BBF1010F06D1B9F1000F64D1A3
:101D1C00002F7BD000250CE0B9F1000FF8D04D4816
:101D2C005CE04D484D494B46224603F0DBF9002F51
:101D3C0068D0DFF82C91DFF82CA1102F314620460B
:101D4C00B84628BF4FF01008FFF734FF4FF0000BD8
:101D5C005D4545DC059B51461A782046FFF718FF78
:101D6C004FF0010B1BF0070F03D149462046FFF73C
:101D7C000FFFD8453BD9059B514613F80B20204645
:101D8C00FFF706FF0BF1010BBBF1100FEAD136493F
:101D9C0020464FF0000BFFF7FBFE5A46059B9A5C62
:101DAC00A2F120015F2928BF2E2230492046FFF7DF
:101DBC00EFFE0BF1010BBBF1100F1DD01BF0070F49
:101DCC0003D149462046FFF7E3FED8455A46E5D8ED
:101DDC0049462046FFF7DCFEEBE71F48049DA1E7D0
:101DEC0049462046FFF7D4FE0BF1010BB0E7204922
:101DFC002046FFF7CDFEC5E7059BB7EB080743442C
:101E0C0005939AD1049B002B7FF443AF204609B075
:101E1C00BDE8F04F03F0C4BD064A05492046FFF764
:101E2C00B7FE39E78F640000936400003C62000049
:101E3C00B86400008A64000050620000BB640000BB
:101E4C00C1640000C5640000900600208C060020D0
:101E5C009C640000FD590000C75900009F59000008
:101E6C00D2640000CA640000D4640000D664000090
:101E7C00D06400002DE9F0410F884B688E6886B065
:101E8C0005460C469046C7F382175BB1134A9B1A62
:101E9C0043F3CF0100291FDB2078C0F3C200FFF70A
:101EAC00B7FD03462146608851F8102B0097C2F30A
:101EBC004922002A01EB0204C0F3CB0008BF002129
:101ECC00CDE90308CDE90114002231462846FFF77D
:101EDC007FFE06B0BDE8F0810023E3E7A0610000BF
:101EEC0073B542F20F738B4228BF0B4605680F4A3D
:101EFC0004460521684603F06DF963680C495B687C
:101F0C0006460B22284603F037FD636832466946C5
:101F1C0028465B6803F030FD636806495B681B224A
:101F2C00284603F029FD02B070BD00BFFE6A000018
:101F3C00F5640000D9640000074A00210123904297
:101F4C0006D8064A01B901231360054B1860704787
:101F5C0040085B000121F2E740420F008C06002094
:101F6C0090060020014B01221A7070477608002061
:101F7C00014B002019607047A8060020024B034853
:101F8C0001221A7003F00CBD77080020806200005B
:101F9C000148FFF7A5BF00BF8062000010B5064BDB
:101FAC0018680C46FFF772FB21460346BDE810404B
:101FBC0002480F22184700BFA806002080620000CC
:101FCC0010B9074B18707047064B1B781BB141F2C8
:101FDC00883003F0AFBFA420002102F0EDBD00BF9C
:101FEC0076080020770800202DE9F843DFF874907C
:101FFC001D4F80460E46042499F8005095B901F007
:10200C0021FF28463246414601F09EFE054601F06E
:10201C0023FFE5B101233B7099F8003073B93046CA
:10202C00BDE8F88332464146002001F08DFE05469E
:10203C00EFE72046FFF7C4FF651E2C46002001F099
:10204C00F7FE0028EBD03B78002BF2D1E7E73B788A
:10205C00002BE4D0013C2046FFF7B2FF3B78002B6D
:10206C00CAD1DCE777080020760800202DE9F84378
:10207C0005464FF02003EFF3118683F31288BFF36C
:10208C006F8F0E4B0E4F1C68DFF838804FF00C0929
:10209C002CB986F31188BFF36F8FBDE8F883D4E9B0
:1020AC000123002D18BF13462BB198F8142009FBFF
:1020BC0002F2B85C98472468EAE700BFC406002027
:1020CC00B80600203C08002070B5194B1C7DBFF3EE
:1020DC005B8F04F01F0301229A40164B610903EB3E
:1020EC008103D04353E8001F01EA000543E8005682
:1020FC00002EF7D1BFF35B8F0A4213D00E4B0F4D5E
:10210C008BB10C236343EA18E85C517803F0CDFCE7
:10211C000020FFF7ABFF0C235C432A1900232B5143
:10212C00C2E9013370BD83F31188BFF36F8FEFE702
:10213C003C080020CC060020B75A0000B80600204E
:10214C002DE9F041354B07461D7D4FF02003EFF391
:10215C00118883F31288BFF36F8F0C24304B314EF0
:10216C006C431A19195D00294CD007CA06EB040CF4
:10217C008CE8070000221A5588F31188BFF36F8F83
:10218C000C236B43F218F05C002839D07B1C10D068
:10219C00D2F808C0244C254A4FF400400021ECFB37
:1021AC00004100232046FDF793FF0121381A03F06C
:1021BC009FFE02F043FC0120FFF758FFBFF35B8F3B
:1021CC001B4B6A0903EB820305F01F0101228A40B5
:1021DC0053E8000F104343E800010029F8D1BFF386
:1021EC005B8F144B3BB10C2303FB05F03318305CB5
:1021FC00597803F04EFCFFF767FF02F033FC012027
:10220C00BDE8F0810146284600F016F80028B3D04E
:10221C0007C8344484E80700AEE700BF3C08002040
:10222C00AC060020B80600203F420F0040420F00D1
:10223C00CC0600209F5A00002DE9F04F85B00E46C9
:10224C0003A900F043F81E4B039DD3F800A0DFF860
:10225C007480431E1BB203EB4303044605EB83055A
:10226C004FF400474FF0000B24B9A146484605B087
:10227C00BDE8F08F6868144AC4465946E0FB07C1B4
:10228C0000236046FDF724FF0190A8680E4AC4465F
:10229C005946E0FB07C100236046FDF719FFBAF170
:1022AC00FF3FA94601D0824505D9731CDED0019BA6
:1022BC001844B042DAD9013CA4B20C3DD4E700BFBB
:1022CC00100000203F420F0040420F0008B9024BA3
:1022DC000B600020704700BF906200000149102283
:1022EC000A60704710ED00E072B6404080F3118830
:1022FC00BFF36F8FBFF34F8F30BF62B6BFF36F8FDB
:10230C00704700BF72B6494081F3118820BF80F33B
:10231C00118862B6704700BF2DE9F047814600AFC7
:10232C000C4600294CD06E468AB0D1E90012A36845
:10233C006D462748A8464FF0050AC5E90501C5E9D1
:10234C00072348F810AF2348424600234FF421518D
:10235C00FFF780FBB546D4E903126369AD461E480E
:10236C00C5F810A0C5E90501C5E9072319480023E4
:10237C0042464FF42151FFF76DFBB54688B0E36937
:10238C006D46164AA8464FF0030AC5E9052348F8DE
:10239C0010AF1048002342464FF4C251FFF75AFBCE
:1023AC00B546A369AD460E4AC5F810A0C5E905238C
:1023BC000848002342464FF4C251FFF74BFBB54689
:1023CC002146484601F0EEFDBD46BDE8F08700BF52
:1023DC0034650000E0610000636500009265000058
:1023EC00A165000040B2002807DB044A4109012323
:1023FC0000F01F00834042F82130704700E100E0FC
:10240C00054B420900F01F0053F82220012303FA68
:10241C0000F01040704700BF00E100E040B200281F
:10242C00A8BF00F1604001F10101B8BF064B4FEAB3
:10243C004111ACBF00F5614000F00F00C9B2B4BF50
:10244C00195480F80013704714ED00E030BFFFF70B
:10245C00FDBF00BF0B4A08B50B4B22F07F029A6000
:10246C00BFF34F8FBFF36F8FD3F8882022F4700225
:10247C00C3F8882001F050FE02F01EFC00F0BAFBFD
:10248C0001F08EFE0000000000ED00E0094A0A4950
:10249C00936809689967094958674B6843F08053FA
:1024AC004B60002383F31188BFF36F8F9368986F91
:1024BC00704700BF3C0800204063000000ED00E0C6
:1024CC0012498A684FF030001044EFF3098C80E811
:1024DC00F01F202080F31288BFF36F8F0C4F4FF04A
:1024EC000066CA698A603E60506F0023536780F3B0
:1024FC00118804B5104600F019FCBDE8044002F147
:10250C00300090E8F01F8CF3098870473C080020DD
:10251C0004ED00E01EF0040F0CBFEFF30880EFF3A6
:10252C000980816911F8021C0229FFD001B503F062
:10253C006DFA01BD42F8203C009B42F81C3C0A4954
:10254C00019B42F8183C029B42F8143C21F001011B
:10255C004FF0807342F8043C42F8081C0023203AE8
:10256C0002654367704700BFFB510000094A0346F0
:10257C00906870B113F1160F406E05D0A0F14002B7
:10258C009A4205D8834203D2814228BF002070476B
:10259C00002070473C08002008B5094B98600D4698
:1025AC00144600F0C3FB204685F30988002163B66E
:1025BC0081F31188BFF36F8F0022002302F017FE06
:1025CC003C08002001B572B60B4A906900281EBF6A
:1025DC000021916103F07FFB62B6EFF30580A0F15F
:1025EC0010004FEAC0000549014409C99847BDE8ED
:1025FC0001400349084700003C08002050600000DF
:10260C0011260000044B9968D869884203D003490D
:10261C004FF080520A6070473C08002004ED00E047
:10262C002DE9F04186B0064600AF0D463E4B7B616E
:10263C0002244FF482513D483C6107F1100203F033
:10264C00F4F93B4B9B6AD90409D53A4B3748C7E997
:10265C00044307F110024FF4825103F0E6F9344BB6
:10266C009B6A1A050AD5344B7B6102232F483B61C8
:10267C0007F110024FF4825103F0D7F92C4CA36AE6
:10268C009B0522D5E8462D4B7B61022327483B61F5
:10269C0007F110024FF4825103F0C7F9A36BA26A41
:1026AC00100412D588B06A4625492048C2E90513A2
:1026BC00032342F8103F4FF4C25103F0B6F9C5465C
:1026CC001EB1A36A23F40043A362194B9B6A5905FC
:1026DC000AD51C4B7B61022314483B6107F11002A5
:1026EC004FF4825103F0A1F9114B9A6AD20515D51A
:1026FC00154B7B6102230D483B6107F110024FF42F
:10270C00825103F092F90A4A936A002043F47F4302
:10271C00183793622870BD46BDE8F0819B6A9B0414
:10272C00F1D50A4BE5E700BFCF650000E061000082
:10273C0000ED00E0E5650000F665000009660000AC
:10274C002266000037660000526600006A660000D0
:10275C0010B586B0334B34480593022404AA4FF4C9
:10276C008251049403F061F9304B9B6A9B0108D5AC
:10277C002F4B2D4804AA4FF48251CDE9044303F0AA
:10278C0054F92A4B9B6ADC0109D52A4B0593264840
:10279C00022304AA4FF48251049303F046F9234B0D
:1027AC009B6A180309D5244B05931F48022304AADE
:1027BC004FF48251049303F038F91C4B9B6A590374
:1027CC0009D51E4B05931848022304AA4FF48251D5
:1027DC00049303F02AF9154B9B6A9A0309D5184BFD
:1027EC0005931148022304AA4FF48251049303F079
:1027FC001CF90E4B9B6ADB0309D5124B05930A4857
:10280C00022304AA4FF48251049303F00EF9074AF1
:10281C00936A6FEA03436FEA13430020936206B096
:10282C0010BD00BF99660000E061000000ED00E003
:10283C00B1660000C4660000DE660000FC660000A5
:10284C00216700003B6700002DE9F04786B0804609
:10285C0000AF0C4615464F4B7B6102264E483E613D
:10286C0007F110024FF4825103F0DFF84B4B9B6AD7
:10287C00DB0609D54A4B4848C7E9046307F1100247
:10288C004FF4825103F0D1F8444B9B6A18070AD5D8
:10289C00444B7B61022340483B6107F110024FF42B
:1028AC00825103F0C2F8DFF8F4A0DAF82830990767
:1028BC0039D46FF01506394B9B6ADB070AD53A4BB6
:1028CC007B61022334483B6107F110024FF48251C3
:1028DC0003F0ABF8314B9B6A9C060AD5334B7B61FA
:1028EC0002232D483B6107F110024FF4825103F093
:1028FC009CF82A4CA36AD8063ED4A36A99073BD409
:10290C000020A36A254A9B0642BF636A23F4005346
:10291C006362936A43F0FF039362183700232B70B2
:10292C00BD46BDE8F087E946214B7B6102233B6144
:10293C0007F1100218484FF4825103F076F8DAF8D8
:10294C003460DAF828301A06B3D588B06A46194BC9
:10295C001148C2E90536032342F8103F4FF4C25127
:10296C0003F063F8CD46002CA5D0DAF8283023F01C
:10297C008003CAF828309EE763681A05C0D5414623
:10298C003046FFF7F3FD0028BAD080F30988022007
:10299C00B7E700BF66670000E061000000ED00E0F3
:1029AC007C670000F6650000DD6700006A660000C9
:1029BC00AF670000C76700002DE9F043774B8BB081
:1029CC00D3F8048000AF0546C8F30804002686F34C
:1029DC001188BFF36F8F02F07F43B3F17F4F0ED19D
:1029EC0002F00C03082B19D16D4BFB6102236D48CF
:1029FC00BB6107F118024FF4825103F016F8002660
:102A0C0035460023FB71E31E092B00F2A680DFE89C
:102A1C0003F00A999C95A4A4A4A4A49F10074CBFEE
:102A2C000D460126EDE7E9465F4BFB614FF00208CE
:102A3C0007F118025B48C7F818804FF4825102F076
:102A4C00F4FF0023554CFB71E36A9A070BD5574BE7
:102A5C00C7E90683534807F118024FF4825102F07C
:102A6C00E4FF002441E0E36A002B01DA504BEFE76E
:102A7C00E36A5B00F5D54F4B4A48C7E9068307F17B
:102A8C0018024FF4825102F0D0FF6369AA6943F433
:102A9C0080736361BFF34F8FBFF36F8F636932F83D
:102AAC00022C23F480736361BFF34F8FBFF36F8FDE
:102ABC004DF602739A4208D0A36ADBB28BB3FA1DAF
:102ACC0001212846FFF7C0FE3AE088B02B686A4621
:102ADC0039493448C2E90513032342F8103F4FF437
:102AEC00C25102F0A2FF2C68CD46FB79ABB9202273
:102AFC00294607F1080002F0B5FF7B6A002E47D08B
:102B0C00C3F3080222B96FEA53236FEA43237B62B3
:102B1C0007F108012046FFF7FFFB2C37BD46BDE847
:102B2C00F083A36A13F47F4F04D0F91D0120FFF743
:102B3C0077FD05E0A36AB3F5803F92D3FFF708FE5B
:102B4C000446D2E7FA1D0021BBE7F91D0020EEE791
:102B5C001A4BFB610223BB617CE7194A194B18F431
:102B6C00F87FE8468AB018BF13466A4616490D48E6
:102B7C00C2E905134FF400731384103C134BD4615A
:102B8C004FF4115142F8103F02F04FFFC54668E771
:102B9C0023F4FF7323F00103B9E700BF00ED00E05D
:102BAC002A680000E0610000556800006C680000B5
:102BBC008D6800009B680000BA680000D6680000B1
:102BCC0011680000FC670000FA68000004000001B6
:102BDC00024A536943F010035361704700ED00E063
:102BEC00EFF30880EFF3098101B57246FFF7E4FEBD
:102BFC0001BD00BF044800232021C2180133272B3C
:102C0C0082F80013F9D1704700E100E0002080F356
:102C1C001488BFF36F8FFEF789FC00200D49086004
:102C2C00BFF34F8F0C4880F3088800F02BF820205E
:102C3C0080F3118809484FF40461401880F3098827
:102C4C00EFF314800221084380F31488BFF36F8FD5
:102C5C00FFF700FC94ED00E0C01D002000100020E8
:102C6C000749D1F890200023C2F30722184693425B
:102C7C0000DB7047C1F89830C1F8A0000133F6E7CB
:102C8C0000ED00E008B572B6002383F31388FFF75C
:102C9C00E7FF144B4FF0FF32C3F88020C3F88420B9
:102CAC00C3F88820C3F88C20C3F89020C3F8942074
:102CBC00C3F89820C3F89C20C3F88021C3F8842162
:102CCC00C3F88821C3F88C21C3F89021C3F8942150
:102CDC00C3F89821C3F89C2162B6BFF34F8FBFF3A2
:102CEC006F8F08BD00E100E0084B9B6883420BD15D
:102CFC00EFF3058343B1064B5A6842F080525A6099
:102D0C005A6A22F400425A6201F076BF3C08002055
:102D1C0000ED00E0024B034A0348012100F092B899
:102D2C00000001200000002090620000426E054B64
:102D3C00403A1A60044A4021C3E9011218460121A5
:102D4C0000F08AB8D006002000000B152DE9F041E8
:102D5C00DFF8B4E09C4600AF154600238B421ADA2C
:102D6C004468002C4DD0BCF1000F1DD0661E3442BF
:102D7C0015D06C4688B06A462449C2E90513032372
:102D8C0042F8103F224800234FF4C251FEF762FE76
:102D9C006FF01505A5462846BD46BDE8F0811F2CF1
:102DAC00E7D902681642E4D1202C026886685FFAE3
:102DBC0085F814D9B4F1004F13D8013CB4FA84F45B
:102DCC00C4F11F046400B8F1070F46EA04060AD9DF
:102DDC006C4688B06A460F4BC2E90535CFE708242C
:102DEC00F1E73E24EFE722F01F022A4342F01002E3
:102DFC0046F00106CEF89850CEF89C200135CEF85E
:102E0C00A06001330C30A9E700ED00E0116900006F
:102E1C00D861000034690000044B0522C3F89420EB
:102E2C00BFF34F8FBFF36F8F704700BF00ED00E013
:102E3C00BFF35F8F024B0022C3F89420704700BF92
:102E4C0000ED00E010B5034C01232278FFF77EFF64
:102E5C00207010BD8808002008B5094A002312789C
:102E6C00FFF774FF10F1160F03D0064B0022072852
:102E7C0000DD08BDC3F89800C3F8A0200130F6E7C8
:102E8C008808002000ED00E014490868082810B5F7
:102E9C0021D8FFF7CDFF124C49680022904201F176
:102EAC000C0105D10F4B1870FFF7B6FF002010BDB9
:102EBC00C4F8982051F80C3C23F01F03134343F043
:102ECC001003C4F89C3051F8043C43F00103C4F8DF
:102EDC00A0300132E2E74FF0FF30E8E79C620000DF
:102EEC0000ED00E088080020014B1860704700BF1F
:102EFC00140000204FF02002EFF3118382F31288AC
:102F0C00BFF36F8F044A0121C2F8401583F3118877
:102F1C00BFF36F8F0020704700E001404FF08043FB
:102F2C00C0B2C3F81C05BFF34F8F0549054BCA68E7
:102F3C0002F4E0621343CB60BFF34F8F00BFFDE799
:102F4C0000ED00E00400FA0520B1034B800143F0D2
:102F5C0001031847704700BF10620000084B70B5A2
:102F6C00C31A0D4607499B10044659430648402294
:102F7C0002F0BDFD2B4601462046BDE870401847C7
:102F8C00F0060020B76DDBB6F05F000073B50C4C9B
:102F9C000C4A4023041B00930D460B460A49A4100F
:102FAC0061430646094802F0CEFD011E05DA3046A3
:102FBC002B4602B0BDE87040184702B070BD00BF90
:102FCC00F0060020BD5B0000B76DDBB6F05F0000C3
:102FDC00002270B5012104461046FFF71FFA0F4876
:102FEC0000F0BAFD0E4B984215D102F006FE266990
:102FFC000C49304602F055F900280BDB01253564ED
:10300C002469084904F11C0002F04BF9002801DB8B
:10301C00E564002070BD6FF00400FBE76930000030
:10302C000000AD0BBC62000070B501460C230948D2
:10303C004B43C418D4E90E5600224033A263184403
:10304C0002F042FD2DB132462B460348BDE87040DC
:10305C00184770BDF0060020F05F000010B1012889
:10306C0004D07047034B1B6C5B0701D1FFF7DCBF2F
:10307C00704700BFF006002008B54FF02003EFF3B7
:10308C00118183F31288BFF36F8F124A136843F0D8
:10309C0002001060DA0708D481F31188BFF36F8F38
:1030AC000120BDE8084000F067BD4FF08043D3F825
:1030BC000C24D3F80C34D307EED5074802F004FDEA
:1030CC0081F31188BFF36F8F0020BDE80840FFF734
:1030DC00ABBF00BF40070020300700201FB5002207
:1030EC000123CDE90223094ACDF800D06B46CDF877
:1030FC0004D002F056FD002805DB4FF4804200237B
:10310C00684601F069FA05B05DF804FBD55B000078
:10311C0010B5074C23782BB94FF4A57002F00AFFB9
:10312C0001232370BDE81040002000F025BD00BF36
:10313C0089080020094BBFF35B8F53E8002F22F066
:10314C00020143E800100028F7D1BFF35B8FD307CF
:10315C0002D4012000F058BD704700BF400700208A
:10316C00024AC3B21C2003FB00207047F00600206B
:10317C002DE9F0413849BFF35B8F0746012251E836
:10318C00003F41E800200028F9D1BFF35B8F33B931
:10319C00324933484B60CB608A6002F095F87B1E55
:1031AC00012B2BD8012F07D14FF08043D3F81C34BF
:1031BC0003F00303012B21D002F082FD0546F8B980
:1031CC00284B1B78E3B14FF080430222C3F808234D
:1031DC000646DFF894804FF08044D4F81834D4F8C5
:1031EC001824D20316D503F00303012B01D0012FB1
:1031FC0010D15DB386F31188BFF36F8FBDE8F081FA
:10320C004FF02003EFF3118683F31288BFF36F8F17
:10321C000125DEE7ADB13046FFF774F8D4F8183568
:10322C00002BDAD1D4F80421002AD6D0C4F804310A
:10323C00D4F804310123C4F81835C8F88031A360E0
:10324C00CBE70021212001F0B7FCE7E74FF08043EA
:10325C000222C3F80423D1E7EC060020DC06002090
:10326C000C0700209B0C002000E100E010B5044C82
:10327C002046FDF77FFC2046FFF736FE002010BDF0
:10328C0091320000F7B5134E8DF807000446032564
:10329C0000F0D8FD01220DF10701002000F09CFD8B
:1032AC00074600F0D9FD27B101233370204603B047
:1032BC00F0BD3378002BF9D0013D08D002F000FDB1
:1032CC000028E5D10021422001F076FCE0E73570C2
:1032DC00ECE700BF8A080020014B01221A607047FE
:1032EC0000C000400C2903690BD15B6A06490748F2
:1032FC004B4393FBF0F100FB113311605360002042
:10330C0070476FF08500704790D0030040420F006B
:10331C00044B00690022C3F80021D3F8003101F0FE
:10332C003BB900BF00C000407FB50569AB6A63B311
:10333C00392901D00C292BD105F110064FF0FF32A1
:10334C004FF0FF33304601F071F8134B0193A86A2C
:10335C000323002469460394029301F0B5FF4FF058
:10336C00FF324FF0FF33284601F036F9A86A02F01D
:10337C0003F80A4BD3F808256A6201225A603046DA
:10338C0001F0CEF8204604B070BD6FF00A00FAE7E9
:10339C006FF08500F7E700BFE532000000C0004089
:1033AC0010B504690020FFF7DBFEA0624FF0FF327E
:1033BC000021204602F0A5FC04F1100002F09AFC5A
:1033CC00002201210C20FFF729F80C20FFF70AF846
:1033DC00024B0122C3F80423002010BD00C00040A2
:1033EC0070B5012383400E4ABFF35B8FDC4352E878
:1033FC00001F01EA040542E80056002EF7D1BFF386
:10340C005B8F4FF4803282400648C0F80823BFF32C
:10341C005F8FBFF36F8F0B4214BF0120002070BD74
:10342C007407002000100140F8B51B49044622F037
:10343C007F450868C1E90023A5F50013101AB3F500
:10344C00400F0FD301F01EFDA30003F1804303F5E1
:10345C008833D3F8402595421DD14FF40002C3F8B0
:10346C00402512E00D4B1B681A0A1B065E190C4B0B
:10347C0042F10007C3E9006701F004FD094A04F5B5
:10348C00A87352F823309D4205D1064A4FF480337D
:10349C00A340C2F84433F8BD600500207807002033
:1034AC00680500200010014011B3BFF35B8F0123AE
:1034BC00104A834052E800CF4CEA030C42E800C1AA
:1034CC000029F7D1BFF35B8F0B4A4FF48033834055
:1034DC00C2F80433094BBFF35B8F1B68BFF35B8FE0
:1034EC00C340DB0742BF064B4FF40032C3F8002148
:1034FC00704700BF740700200010014070070020C7
:10350C0000E100E00D4B1868010A0006BFF35F8F65
:10351C000B4BD3F80435181841F10001B3F5801F9B
:10352C000AD2084BD3E90023904271EB030303D278
:10353C0010F1807041F10001704700BF7807002046
:10354C0000100140680500202DE9F74F14461D4678
:10355C000746FFF745FF0090FFF7D4FFA04271EB41
:10356C0005037AD2464B201A65EB0101984271F1A2
:10357C00000180F08180434B03EB0713D3E9022356
:10358C009D4208BF944253D04FEA870A0AF1804A01
:10359C0007F150090AF5883A4FEA89091FFA89F9A7
:1035AC0024F07F4809F180494FF48033DAF8400564
:1035BC00354A09F58839BB404646D2F804B5A0EB2C
:1035CC000B0020F07F402BF07F410128CAF84015FA
:1035DC0005D10193132002F0ADFC2B4A019B0BF19A
:1035EC00020CA6EB0C0020F07F40B0F5000F88BF5A
:1035FC0066460020C9F80000D9F80000C2F8443330
:10360C0026F07F40CAF84005D2F80405834506D061
:10361C00301A023820F07F40B0F5000F1BD8A6EB13
:10362C00080626F07F46361945F1000334461D4640
:10363C0014490C983B0101EB0712C8500D9B5360C9
:10364C00C2E90245002438460099FFF72DFF2046B9
:10365C0003B0BDE8F08F3046AFE701230B4ABFF350
:10366C005B8FBB4052E8000F184342E80001002971
:10367C00F8D1BFF35B8FDBE76FF01504E3E700BF16
:10368C0001000001500500200010014070070020CF
:10369C0073B5194B194D00244FF0FF304FF0FF312B
:1036AC00C5F80845C3E902014FF48033C5F804336B
:1036BC00134B02264FF400320121C5F8046311208C
:1036CC00C3F880212246FEF7A9FE1120FEF78AFEE0
:1036DC000C4A0123AB602B6013600B4B0B4A00931D
:1036EC00019400232046FFF72FFF3046FFF740FDE3
:1036FC00204602B070BD00BF5005002000100140F4
:10370C0000E100E07407002035340000FFFF7F006B
:10371C002DE9F743334CD4F804339A070BD5D4F87E
:10372C00043143B1304A0023C4F80431D4F80431D5
:10373C001368013313604FF02003EFF3118283F30E
:10374C001288BFF36F8FD4F80433DB0329D5BFF392
:10375C005B8F264B53E8001F21F0010043E8000566
:10376C00002DF7D1BFF35B8F11B9D4F84031C3B141
:10377C000025C4F84051D4F8403182F31188BFF3CE
:10378C006F8FFFF7BFFE4FF02003EFF3118283F32F
:10379C001288BFF36F8F164BD3E90267B042B94161
:1037AC0006D282F31188BFF36F8F03B0BDE8F083AC
:1037BC004FF0FF384FF0FF39D3E90010C3E902890D
:1037CC001D604FF48033C4F8483382F31188BFF383
:1037DC006F8F0029E9D0009032463B462846884737
:1037EC00E3E700BF001001407807002070070020BD
:1037FC0050050020431C13B521D0012821DDB0F564
:10380C00000F20DA441EFFF77DFE104BD3E90013A6
:10381C00421AB2F5000F0E4828BF00240132224490
:10382C00824228BF024652184FF00000094901900D
:10383C00009143F10003FFF787FE02B010BD04486E
:10384C00E0E70024DFE7024CDDE700BF6005002065
:10385C00FFFF7F003534000008B5FFF753FE024B25
:10386C001B68C01A08BD00BF600500207FB5FEF7BD
:10387C0011F8074B0593022304930648002304AA6E
:10388C004FF48251FEF7E6F80020FFF747FB00BF2C
:10389C00AE690000C06100004FF0704393F8E02F58
:1038AC00062A09D1D3F8E83FC3F30313033B042BD7
:1038BC0002D8024AD05C704700207047DA690000D9
:1038CC00024AD2F80034002BFBD0704700E00140D4
:1038DC0010B502F081F940B14FF08053904AD3F803
:1038EC002433C3F30423C2F84035FFF7D5FF10B1DE
:1038FC008C4B8D4A5A6702F06FF948B14FF08053E8
:10390C004FF08042D3F84432C3F34233C2F83C3513
:10391C00FFF7C2FF30B1854AD2F8FC3023F0807338
:10392C00C2F8FC3002F058F940B14FF0804300224D
:10393C00C3F80C21C3F81021C3F83825FFF7ACFFEE
:10394C0020B14FF080430322C3F8A025FFF7A4FF5A
:10395C0060B1774B0522C3F810260122C3F88826E4
:10396C000022C3F818263F22C3F814264FF08053C8
:10397C00D3F83021511C09BF4FF07043D3F83431C8
:10398C0093F8E02FD3F8E83F08BFC3F30313062ADC
:10399C004DD1033B042B03D8664AD35C002B46D095
:1039AC004FF08052644BD2F80414C3F82015D2F8AF
:1039BC000814C3F82415D2F80C14C3F82815D2F83F
:1039CC001014C3F82C15D2F81414C3F83015D2F80F
:1039DC001814C3F83415D2F81C14C3F84015D2F8D7
:1039EC002014C3F84415D2F82414C3F84815D2F89F
:1039FC002814C3F84C15D2F82C14C3F85015D2F86F
:103A0C003014C3F85415D2F83414C3F86015D2F836
:103A1C003814C3F86415D2F83C14C3F86815D2F8FE
:103A2C004014C3F86C15D2F84424C3F8702502F086
:103A3C00D3F848B14FF080534FF08042D3F858324E
:103A4C0003F04F03C2F8E43E02F0C6F848B14FF061
:103A5C008043D3F80024D20744BF6FF00102C3F8AF
:103A6C0000244FF08053D3F83021062A26D1D3F806
:103A7C003431033B042B02D8304AD35C63B1304A57
:103A8C00D2F83C3743F48063C2F83C374FF0805394
:103A9C00D3F83031062B11D14FF08053D3F8343199
:103AAC00033B042B02D8274AD35C3BB14FF01023C5
:103ABC00D3F808224FF08043C3F858254FF0102359
:103ACC00D3F80022002A03DBD3F80432002B22DACD
:103ADC001D4901234FF01020C1F804351524FFF7C0
:103AEC00EFFEC0F80042FFF7EBFEC0F80442FFF710
:103AFC00E7FE0023C1F80435FFF7E2FEBFF34F8F5A
:103B0C000A49124BCA6802F4E0621343CB60BFF35C
:103B1C004F8F00BFFDE70E4B0E4A1A6010BD00BF61
:103B2C000030014000C007400DF0ADBA00ED00E0E0
:103B3C0000500040D569000000C00040D069000072
:103B4C0000100040CB69000000E001400400FA05C1
:103B5C00180000200090D003044B1A7922B90122DE
:103B6C0018609A8002487047024870477C07002012
:103B7C000000AD0B0C00AD0B30B510B1012834D0EA
:103B8C0030BD4FF08043D3F81824D3F81814C90370
:103B9C0029D502F00302012A25D1C3F818254FF0CC
:103BAC0080430022C3F80421D3F804210222C3F875
:103BBC000423134AD2F8FC0040F08073C2F8FC30A6
:103BCC00104B1C6844F0010119605D685968491B71
:103BDC00B1F50A5FFAD31C604FF08043C2F8FC00C9
:103BEC0001229A60CCE70022D7E74FF080430022F5
:103BFC00C3F80021D3F80021C3F804031860BFE711
:103C0C0000ED00E0001000E038B510B1012817D02D
:103C1C0038BD4FF080440223C4F80833C4F80401C3
:103C2C00D4F804310123E36042F21075D4F818344F
:103C3C00DB03EDD5012001F0DEFF013DF6D1E7E716
:103C4C004FF080440023C4F80803C4F80031D4F8C2
:103C5C000031606042F21075D4F80C34D4F80C24A6
:103C6C00D20303F0010305D523B1012001F0C3FFFA
:103C7C00013DF1D1014B00225A71C9E77C070020AC
:103C8C0010B54FF08043D3F800216AB10022C3F87D
:103C9C000021D3F800210122C3F80823114B5879D5
:103CAC0010B95A711B6898474FF08043D3F8042120
:103CBC0072B10022C3F80421D3F80421D3F81824DC
:103CCC00D3F81814920704D10122C3F818259A606E
:103CDC0010BD0222C3F80823024BBDE810401B683C
:103CEC00012018477C07002010B5114C114A1249CD
:103CFC00032323616361114BA261E3614FF4806381
:103D0C0023620023A3626362E36222660C4A62664A
:103D1C001022A266E01D2367E366636701F088FE4C
:103D2C000849204601F084FE2023A37110BD00BF7A
:103D3C0084070020DF690000E86900009B08002070
:103D4C008B080020EC6900002DE9F84F214F4FF053
:103D5C00180B14460BFB00720646936A556AAB426D
:103D6C00884631D8D2F820A0AAEB050909F1FF3218
:103D7C00944211D8182306FB03333B44224658685F
:103D8C004146284401F06EFE2C44182303FB0673B5
:103D9C0001205C62BDE8F88F13449C4218D800FBEC
:103DAC000BBBBB444A46DBF804002C44284401F00E
:103DBC0059FEB4EB0A04E8D0DBF80400224608EB09
:103DCC00090101F04FFEE0E7013B5B1BA342D1D29E
:103DDC000020DFE784070020F8B5144B182700FB00
:103DEC0007751D4407FB00330E46DB6A012B144696
:103DFC000AD0022B14D023B9284601F008FF8442C4
:103E0C0008D900242046F8BD284601F000FF844262
:103E1C0028BF044622463146284601F001FFF1E74F
:103E2C002846BDE8F84001F016BF00BF840700200B
:103E3C00034B182202FB00339A6A586A801A7047A7
:103E4C008407002003484FF0FF324FF0FF3300F09F
:103E5C00EDBA00BF68000020014800F061BB00BF54
:103E6C00680000207FB5074B059302230493064896
:103E7C00002304AA4FF48651FDF7ECFD002007B097
:103E8C005DF804FBF3690000A06100007FB5074BEF
:103E9C000593022304930648002304AA4FF4865189
:103EAC00FDF7D8FD002007B05DF804FB036A0000A5
:103EBC00A06100007FB5074B0593022304930648CD
:103ECC00002304AA4FF48651FDF7C4FD002007B06F
:103EDC005DF804FB1E6A0000A06100007FB5074B73
:103EEC000593022304930648002304AA4FF4865139
:103EFC00FDF7B0FD002007B05DF804FB436A00003D
:103F0C00A06100007FB5074B05930223049306487C
:103F1C00002304AA4FF48651FDF79CFD002007B046
:103F2C005DF804FB806A0000A86100007FB5074BB8
:103F3C000593022304930648002304AA4FF48651E8
:103F4C00FDF788FD002007B05DF804FB036A000054
:103F5C00A86100007FB5074B059302230493064824
:103F6C00002304AA4FF48651FDF774FD002007B01E
:103F7C005DF804FB906A0000A86100007FB5074B58
:103F8C000593022304930648002304AA4FF4865198
:103F9C00FDF760FD002007B05DF804FB436A0000EC
:103FAC00A86100002DE9F04786B0054600AF0E462B
:103FBC004FF02003EFF3118883F31288BFF36F8F58
:103FCC0000F014FE042D96BF2C4B2D4B53F82530CE
:103FDC00E9468AB004466A462A49D36140F2013365
:103FEC0093844FF0000A284BC2F820A0C2E90515B3
:103FFC0042F8103F254853464FF43151FDF72AFD46
:10400C00CD467EB1F369C3F308035BB1204B7B61F2
:10401C0002233B611D48534607F110024FF48251B5
:10402C00FDF718FD2CB1204601F053FE08B10378C2
:10403C0003B91848E9468AB06A46174BD061C2E901
:10404C00053440F201331384144B42F8103F002323
:10405C000E484FF41151FDF7FDFC3146CD46284674
:10406C00FFF704FC88F31188BFF36F8F2046FEF72F
:10407C003BFE1837BD46BDE8F08700BF4463000027
:10408C00C36A0000D96A000005000001E06100006D
:10409C00016B0000D16A0000226B000004000001DB
:1040AC000F4B70B553F82040013053F82060A642F6
:1040BC0000D870BDD4E90035284698476DB138B1A9
:1040CC000028B8BF4042EB68FF28A8BFFF2018703B
:1040DC00EA68537843F0010353700834E7E700BFF4
:1040EC005863000008B50A4B012203201A70FFF731
:1040FC00D7FF00F0F1FF0420FFF7D2FF00F01EF90C
:10410C00FCF750F9034A137B23F00103137308BD2A
:10411C009B0C0020F005002008B50348034A002141
:10412C00121A01F0C9FD08BD900000209C0C002063
:10413C0070B5002386B00122CDE90423134E144D33
:10414C0001930F22CDE902321249182303FB0055CB
:10415C0006EBC01604464FF4C07000FB04110E4B66
:10416C0000954FF4A072304600F08AF8737B0B4A2E
:10417C00EE6023F0040373734FF4046304FB033306
:10418C0013442C756B6006B070BD00BF7005002029
:10419C003C080020401800200144000000100020C2
:1041AC0080B50020A6B0FFF77BFF2E4B83F3088869
:1041BC002D4D2E4E6B692E4F43F400736B61002412
:1041CC00E02385F82230EC772C766C76AC7685F88B
:1041DC0020406B6A43F4E0236B6285F82340FEF7C2
:1041EC00F7FCFEF77BF84FF0FF33AB62EB62FEF7A8
:1041FC004BFEFEF78FFDFDF7BDFA40F20113ADF853
:10420C00243006ABB360CDE91F44229401F0BFFE0D
:10421C000120FFF745FF0220164DFFF741FF00F08C
:10422C003DFC154BF5610593012314490094CDE930
:10423C0003434FF480623B46CDE90144284600F02D
:10424C001FF86A7B064622F0040228466A7301F0C6
:10425C00C0FD2046FFF76CFF3A4631462846FEF774
:10426C009BF900BF4018002000ED00E03C08002046
:10427C00F1400000F0050020846B0000C019002004
:10428C002DE9FF410E9E0673042646730D9E867320
:10429C0000F158050F46D61DC0E916550C9A00259D
:1042AC0026F007064037C0E90655C0E91976856047
:1042BC00C573C56606F1400802920B9A01928844B8
:1042CC000A9A009242460446FEF734F9044B65659F
:1042DC009B6803B11B6F2367404604B0BDE8F081B7
:1042EC003C080020F0B587B000250595109D04957D
:1042FC000F9D03950E9D0295DDE912760D9D01959E
:10430C000C9D00950446FFF7BBFFB6F1FF3F08BFBD
:10431C00B7F1FF3F05D056EA070305D1204600F060
:10432C003DFB204607B0F0BD03493A46334604F145
:10433C00180000F029FDF4E74B5D00002DE9F04377
:10434C00294C2A4D87B02646AE4204F130040FD3D7
:10435C0000F074FB244CDFF898904FF4004640F2C8
:10436C00E737AC4220D307B0BDE8F04300F07ABB8E
:10437C0054F8043C059354F8103C049354F8143C42
:10438C00039354F8183C029354F81C3C019354F8D2
:10439C00203C009354E90A2354E90C01FFF770FF09
:1043AC0054F8303C5E65CEE7636A5A1C0DD023EAA4
:1043BC00E37300213846C3FB060151EAC333D4F83A
:1043CC00008004D1404600F0E9FA3034C9E74FF4DC
:1043DC007A720023FBF77CFE02460B4608F11800AC
:1043EC00494600F0D1FCF0E78861000088610000CC
:1043FC004B5D000008B50B4C0B4D4FF02002EFF35A
:10440C00118382F31288BFF36F8F01F061FD2B785B
:10441C00A06113B9FDF768FFEFE7FDF791FE0028E7
:10442C00EBD1F7E73C0800209B0C00202DE9F34171
:10443C00044617461E464FF02003EFF3118883F312
:10444C001288BFF36F8FC368334A7BB18068916861
:10445C00884219D057EA060318D188F31188BFF3A4
:10446C006F8F6FF00F0002B0BDE8F081916891F989
:10447C000E1021610133E3609368A36088F3118807
:10448C00BFF36F8F0020EEE72169F2E791F90E1070
:10449C0090F90E309942A8BF19466FF07E029142F6
:1044AC00B8BF11468B422EDD01F01CFC0546CDE950
:1044BC0000761A482246414600F0FAF90028E1D06D
:1044CC004FF02003EFF3118683F31288BFF36F8F45
:1044DC00A068D0B1236821699C420AD04BB193F9F2
:1044EC000E309942A8BF19466FF07E039942B8BFAF
:1044FC00194601F0F7FB40B10848314600F03CFA90
:10450C006FF00A00AFE70025D1E7002DF4D186F358
:10451C001188BFF36F8FF3E73C0800209C0C002040
:10452C0038B5836804466BB3194A926893422CD110
:10453C00C368012B03D9013BC360002038BD4FF089
:10454C002003EFF3118583F31288BFF36F8F01699A
:10455C00806801F0C7FB204601F072FCA06058B1E6
:10456C0090F90E2022610022826701F032FC09488A
:10457C00294600F001FAE0E7E06085F31188BFF30B
:10458C006F8FDAE76FF01500D8E74FF0FF30D5E703
:10459C003C0800209C0C002038B504464FF020034A
:1045AC00EFF3118583F31288BFF36F8F01F048FC92
:1045BC0048B10022826701F00CFC29460548BDE891
:1045CC00384000F0D9B9D4E902329A4218BF01330D
:1045DC00A360F2E79C0C002013B54FF02004EFF31E
:1045EC00118184F31288BFF36F8F846844B1013C4E
:1045FC00846081F31188BFF36F8F002002B010BD6F
:10460C0052EA030406D181F31188BFF36F8F6FF068
:10461C000F00F3E7CDE900230246024800F048F909
:10462C00ECE700BF9C0C002038B5074D2C6854B14A
:10463C00FFF712F9054B04441C6128680021BDE802
:10464C00384001F055BC38BD6C0800203C080020F7
:10465C0038B50D4D2B4653F8204F9C4200D004B971
:10466C00EC68AB6838B95A7BD20604D1A26912B98E
:10467C00DA897F2A05D89C4202D02046FFF7D4FF66
:10468C002346EB6138BD00BF3C08002070B590F9A3
:10469C000D20437B002A014604DA03F07F034373A9
:1046AC0001F03BFB4B7B154A63F07F0310464B73C9
:1046BC0050F8203F546A834208BF002323B9C1E954
:1046CC000004216051620CE091F90E5093F90E60D8
:1046DC00B5420ED0AE420CDD5868C1E90030016025
:1046EC0059609068431A5842BDE870405841FFF732
:1046FC00AFBF9C42E3D01B68E0E700BF3C08002042
:10470C0070B490F90D30427B002B29DBD30627D1F6
:10471C0083692BBB134962F07F0242730A4652F83D
:10472C00204F944218BF23464C6A23B9C0E9002499
:10473C00206048620CE090F90E5093F90E60B5427F
:10474C000AD0AE4208DD5A68C0E9003210605860E9
:10475C0070BC0020FFF77CBFA342E7D01B68E4E7E6
:10476C0070BC70473C08002008B590F90D20437BC5
:10477C00002A014604DA03F07F03437301F0CDFAFB
:10478C00044B9868431A58425841BDE80840FFF75B
:10479C005FBF00BF3C08002070B515461C4606469E
:1047AC0001F0EFFAB4F1FF3F08BFB5F1FF3F08D0BD
:1047BC002A46234606F118000249BDE8704000F075
:1047CC00E3BA70BD4B5D0000F8B504460D464FF0E2
:1047DC002003EFF3118783F31288BFF36F8F00264A
:1047EC004FF4004C40F2E73031464FF47A7200231C
:1047FC00E4FB0C01FBF76CFCB44202DD0228B8BFF1
:10480C000220074A074B1060074A98681E61156022
:10481C00FFF70AFF87F31188BFF36F8FF8BD00BF56
:10482C006C0800203C0800206808002038B54FF0C8
:10483C002003EFF3118583F31288BFF36F8F174BAF
:10484C00174A9C6811688C4207D12046FFF7ECFE92
:10485C0085F31188BFF36F8F38BD00211160114AA9
:10486C001268C2B1E2897F2A15D8627BD20612D1B6
:10487C000D4A94F90E10126891420CDB0B4A9442CB
:10488C0009D01A69824203DC2046FFF7FFFEDCE701
:10489C00121A1A61DCE70022FBE700BF3C0800207B
:1048AC00640800206C0800206808002070050020B7
:1048BC0070B50C480C4D86682E600C461146DDE92F
:1048CC0004234FF02006EFF3118586F31288BFF313
:1048DC006F8F8068FFF760FF2046BDE87040FDF7E2
:1048EC00D5BD00BF3C08002064080020F8B5044684
:1048FC004FF02003EFF3118683F31288BFF36F8F11
:10490C00437BDA0649B219D18569BDB903F07F033F
:10491C00437301F002FA437B164A817363F07F0301
:10492C004373134653F8200F984218BF0546506A3C
:10493C005DB9C4E900300460546211E0A173002039
:10494C0086F31188BFF36F8FF8BD95F90E70B942DD
:10495C000BD08F4209DD6B68C4E900531C606C609E
:10496C000120FFF775FE0120EAE7A842E1D02D688F
:10497C00DEE700BF3C08002049B9EFF3058030B9F1
:10498C00054BDA699B689A4201D0FDF77FBD81F334
:10499C001188BFF36F8F70473C08002010B54FF0A3
:1049AC002002EFF3118482F31288BFF36F8F427BE6
:1049BC00510704D484F31188BFF36F8F10BD22F01C
:1049CC0004024273FFF79CFE21460248BDE81040EA
:1049DC00FFF7D2BF9C0C002070B50446183001F0D4
:1049EC0061FA4FF02003EFF3118683F31288BFF3C3
:1049FC006F8F94F90D20637B002A05DA03F07F0397
:104A0C006373204601F089F90B4D637BA86843F072
:104A1C0010036373031B58425841FFF719FE86F3CA
:104A2C001188BFF36F8FAB68A34203D1BDE8704010
:104A3C0001F02EBA70BD00BF3C0800204FF02003DF
:104A4C00EFF3118183F31288BFF36F8F044B9A68D5
:104A5C00D37B013BD37381F31188BFF36F8F704706
:104A6C003C08002010B54FF02003EFF3118483F3C2
:104A7C001288BFF36F8F084B9A68D37B0133D373C3
:104A8C000020FFF7E5FD84F31188BFF36F8FBDE8BD
:104A9C00104001F0FDB900BF3C080020044B002180
:104AAC0003F12002C3E908220846FFF78DBE00BFC0
:104ABC003C080020F8B54FF02003EFF3118583F389
:104ACC001288BFF36F8F19498868437B03F07F030B
:104ADC00437301F022F98B685A7B084662F07F021F
:104AEC005A7350F8202F4C6A824208BF002222B918
:104AFC00C3E9000423604B620CE093F90E6092F959
:104B0C000E70BE420ED0B7420CDD5168C3E90021D5
:104B1C000B6053600120FFF79BFD2846BDE8F84071
:104B2C00FDF7B4BCA242E3D01268E0E73C080020D9
:104B3C0050EA01032DE9F04105460E4603D1FFF77B
:104B4C00B9FF00202CE0831C71F1FF332ADB01F04C
:104B5C00EBF944194FF02003EFF3118883F312881B
:104B6C00BFF36F8F114F124BB8681860FFF7FCFD45
:104B7C00B86810492A463346183000F005F9BA686F
:104B8C00537B43F0100353734046FDF77FFC01F059
:104B9C00CBF9201A63EB0303012873F10003D0DB7C
:104BAC00BDE8F0816FF00104241AD3E73C08002023
:104BBC00640800204B5D0000B1F1FF3F08BFB0F16D
:104BCC00FF3F08B506D1084B9868FFF705FF4FF07B
:104BDC00FF3008BDFFF7ACFF4FF47A7380FB030383
:104BEC00C00B40EA4340F4E73C080020014B9868B6
:104BFC00704700BF3C0800202DE9F04104464FF0FF
:104C0C002003EFF3118683F31288BFF36F8F037BBE
:104C1C00D9070BD586F31188BFF36F8F404080F313
:104C2C0011884FF0040002DFBDE8F081437B1A07C6
:104C3C0004D586F31188BFF36F8FF5E723F02002BC
:104C4C0042F00801D20920D14173A36813B1204668
:104C5C0001F06BF804F1180001F024F904F1580785
:104C6C004FF00008A56DBD4200D0B5B90120FFF78B
:104C7C00EFFC104B9B68A342DBD1EFF30583002BB9
:104C8C00D7D13046FDF702FCD3E703F05F0343F0C6
:104C9C000803437301F041F8D7E7284601F045F8C3
:104CAC0005F1180001F0FEF8C5F878802846FFF7EA
:104CBC0027FDD7E73C08002008B50648064A0749F7
:104CCC00121A00F0FBFFBDE80840054A05490648EA
:104CDC0000F0F4BF000000208C000020BC6B000032
:104CEC0000000000BC6B000000000020034B1B68A0
:104CFC000BB9FEF7B1BD0020704700BF7008002053
:104D0C0010B5114B1C689C420AD1FFF7EFFF6FF0F6
:104D1C0000400E4B1B6913B19842A8BF184610BD3A
:104D2C00FFF7E4FF002CF2D0D4E904321B1A62EB3B
:104D3C00E072B3F1004F72F10001E8DA002AACBF67
:104D4C0018460020E5E700BF1C0000203C080020AE
:104D5C0030B570B10B4B5B6898420AD0036843B115
:104D6C00D3E90421D0E90445121941EB0501C3E94B
:104D7C000421D0E9003213605A600023C0E90033EB
:104D8C0030BD00BF1C000020B3F1FF3F08BFB2F1E3
:104D9C00FF3FF8B504461D46164661D081604FF0C2
:104DAC002003EFF3118783F31288BFF36F8F013267
:104DBC0075F1FF3324DA3049D1E900206FF001039B
:104DCC009B1A4FF0FF3262EB00009E1B60EB05005C
:104DDC00012E70F1000301DA01260020C4E9046001
:104DEC00264ED6F800C07568B44508BF4FF0000CCD
:104DFC00BCF1000F0DD1C4E900652C6074601CE09F
:104E0C00FFF774FF013645F10005361845EBE070ED
:104E1C00E4E7DCE90420D4E90431934271EB000EA1
:104E2C001FDAD21ADCF8043060EB0100CCE9042064
:104E3C00C4E900C31C60CCF804403368B3420BD007
:104E4C009C4209D1FFF75CFF18B10D4B1B698342E3
:104E5C0002D00021FEF7CEFC87F31188BFF36F8FD1
:104E6C00F8BD9B1A61EB0001AC45C4E90431C2D01A
:104E7C00DCF800C0BCE700BF700600201C0000205E
:104E8C003C0800202DE9F8430446FFF7CFFC4FF017
:104E9C002003EFF3118683F31288BFF36F8F234F38
:104EAC00DFF88C80D8F80000224A3C604045D2E9FB
:104EBC00003E4FEAE4710BD050B1D0E9045CAC4237
:104ECC0071EB0C0916DA2D1B6CEB010CC0E9045CC0
:104EDC00E3184EEB01010024C2E900313C60FFF7FE
:104EEC000FFF2146FEF786FC86F31188BFF36F8F08
:104EFC00BDE8F883EB184EEBE571C2E900310022F6
:104F0C000023C0E90423FFF723FF86F31188BFF3C6
:104F1C006F8F836898474FF02003EFF3118683F36C
:104F2C001288BFF36F8F3C68641BBBE770080020CE
:104F3C001C0000207006002010B54FF02003EFF38A
:104F4C00118483F31288BFF36F8FFFF7CFFE064AED
:104F5C000346D2E90001181841EBE37184F3118880
:104F6C00BFF36F8F10BD00BF7006002070B50446F4
:104F7C004FF02003EFF3118583F31288BFF36F8F8B
:104F8C00D0E90A32013342F10002022B72F1000225
:104F9C0022D300F0CDFFD4E90A32013041F10001F7
:104FAC00C01841EB0201012871F1000132DB00F065
:104FBC00BFFF013041F10003D4E90A2180186FF0E2
:104FCC00010243EB0103121A4FF0FF3161EB0303B3
:104FDC001A492046FFF7D8FE236B01332363236A5B
:104FEC0073B185F31188BFF36F8F236A20469847FE
:104FFC004FF02003EFF3118583F31288BFF36F8F0B
:10500C0054F8186FA64200D04EB985F31188BFF33F
:10501C006F8F70BD6FF001024FF0FF33D8E7304651
:10502C0000F0E7FE0023B36785F31188BFF36F8FA1
:10503C003046BDE8704000F0CCBE00BF794F000098
:10504C002DE9F047B3F1FF3F08BFB2F1FF3F054632
:10505C001446DDE9086019469146984637D0B0F100
:10506C00FF3F08BFB6F1FF3F3746824611D050EAEA
:10507C0006030ED0721C70F1FF330ADB022E84463D
:10508C0070F10000BCBF02274FF0000C013F4CF147
:10509C00FF3A631C71F1FF330ADB012C71F1000341
:1050AC002246BCBF0122002112F1FF3941F1FF3829
:1050BC00284600F0F7FEC5E90A7A00232B634A461E
:1050CC00434628460349BDE8F047FFF75DBEBDE8FF
:1050DC00F08700BF794F0000014800F06EB800BFA8
:1050EC008C6B00002DE9F04706460D461746984696
:1050FC002BB398F8004093F80190DB78A40004EBF4
:10510C00430498F802301C4444444FF0000ACA454A
:10511C0009D3D8F8042008F1080339463046AC46C8
:10512C00BDE8F047604714F8013B48F8234020469F
:10513C0000F088FC013004440AF1010AE7E76FF043
:10514C001500BDE8F08770B50025024628461446C8
:10515C0014F8013B0BB9184609E098B18D4207D100
:10516C00702B04D0A3F140023A2A0BD8002070BD5A
:10517C00A3F140063A2E05D853780135941C002B28
:10518C00E9D00020252B08BF80F001002246DEE785
:10519C000020704730B58A680C68551C14B14B68F8
:1051AC00934201DC8D6030BD013B934208BF00226D
:1051BC008D600CBFE254A054F5E70FB407B504A9F9
:1051CC0051F8040B019100F094FB03B05DF804EB73
:1051DC0004B070470CB407B504AB53F8042B01931F
:1051EC00FBF7CEFC03B05DF804EB02B0704704464D
:1051FC0008B5084611461A46A047FFF7F7FCFDF71D
:10520C0073FD038B13F0070305D10368002B0CBF50
:10521C00002003207047022B05D1408BB0FA80F0A0
:10522C00400980007047012B05D10368002B0CBF8F
:10523C000020052070470020704710B50C4600B1C7
:10524C0011B96FF0150010BD081D00F0BAF8002858
:10525C00F9D1A368032BF6D9F3E72DE9F0410D46FC
:10526C0007461946281D90461E4600F0BBF804461A
:10527C0038B13346424629463846A446BDE8F0418B
:10528C006047BDE8F08110B44FF02004EFF31182B9
:10529C0084F31288BFF36F8F416110BC0121FBF7BF
:1052AC0085BC38B50C46054658B151B10B6843B1B5
:1052BC004B6833B11C22002100F0DFFB2C61002075
:1052CC0038BD6FF01500FBE770B505460E46FFF7CD
:1052DC00B4FF041E15DB4FF02003EFF3118283F3B0
:1052EC001288BFF36F8F6B8B2C8B4FF6FF718B4239
:1052FC0004F0070407D182F31188BFF36F8F6FF0AE
:10530C000A04204670BD022C0CD101336B8382F34E
:10531C001188BFF36F8F0023224631462846FFF7D2
:10532C009CFFEEE7062C14D8DFE804F004131313EB
:10533C00041A0400002333606B683BB9C5E90066AE
:10534C00ACB902212846FBF731FCDAE71E606E602F
:10535C00F6E782F31188BFF36F8F6FF00404D0E788
:10536C0082F31188BFF36F8F6FF08504C9E782F366
:10537C001188BFF36F8FC4E710B54FF02003EFF324
:10538C00118283F31288BFF36F8F048B04F0070430
:10539C00022C0AD0012C0CBF6FF004006FF08500BA
:1053AC0082F31188BFF36F8F08E0438B013B9BB2F4
:1053BC00438323B92146FBF7F9FB204610BD204659
:1053CC00EEE7034658B1426802F00302012A03D00B
:1053DC00032A04D1026812B10020986070476FF064
:1053EC00150070474268816002F00302032A4FF0F7
:1053FC00000203460CBF006810465A6070472DE946
:10540C00F84F9A46D3786F2B80460F461546A3F17A
:10541C00410B29D024D8582B0CBF10260A26DDF8B6
:10542C0028903246002340463946FAF751FE092AA5
:10543C00D4B21ED83034B045E4B277F1000709F885
:10544C00014D01D3D14511D82B789B0605D5082EDB
:10545C0015D1AB7843F00803AB704846BDE8F88F24
:10546C0003F0F703702BD7E70826D8E780460F46E2
:10547C00D7E7BBF1190F94BF37345734DBE7102E45
:10548C00EBD1AB7843F01003E6E72DE9F04107468A
:10549C00884615461E461446B44205D30EB1601B11
:1054AC0008E02378002BFAD014F8010B4146B847DA
:1054BC000028F1DABDE8F081C3680268934204D990
:1054CC00013B9A1A00200A607047006A13B9013830
:1054DC00821AF7E7821A0120F5E713B501A90446F1
:1054EC00FFF7EAFF20B1019BE268013B13440193F3
:1054FC00206A019BC01A013802B010BD10B50446D9
:10550C0088182269236AD20702D5013B184010BDC6
:10551C00984228BFC01AFAE738B50D46C2698B000D
:10552C00016843F0020342F821302A460168044620
:10553C00FFF7E4FF616820602A462046FFF7DEFF94
:10554C00606038BD38B503695B07044606D5456A0B
:10555C00FFF7C3FF85422CBF6562606238BD2DE941
:10556C00F84F1F4600233B70D0F80CA0D0F81C90CD
:10557C0019F82A3003F00303022B04468B4690469D
:10558C0009EB8A0603D159F82A50AD082ED1A3692C
:10559C00304698470546B8F1000F38D019F82A3034
:1055AC009B0731D50BF101012046FFF7B5FF616870
:1055BC002A462046FFF7A2FF216860602A46204653
:1055CC00FFF79CFF2A462060E1682046FFF796FF14
:1055DC00E36913F8202002F00302022A03EB800691
:1055EC000ED153F820309B080AD01D44E1682A469E
:1055FC002046FFF783FFC4E902003046BDE8F88F70
:10560C00A36930469847054401233B70EEE74646B4
:10561C00F3E738B50D4604461C22002100F02DFAA4
:10562C00EB68A361AB6863612B68E3616B68236211
:10563C00002262622A6923B1591E194208BF42F046
:10564C0001022261012204F128000021BDE838404A
:10565C0000F057BB2DE9F3479846036A013B8B4298
:10566C0004460E46174651D300254FF02003EFF3A6
:10567C00118983F31288BFF36F8F01A92046FFF7BE
:10568C001BFFDDF804A0B24517D32268E36913F8B9
:10569C00221021F0030103F8221003EB820521688C
:1056AC0032462046FFF72AFF206089F31188BFF3AA
:1056BC006F8F284602B0BDE8F08750B151462046A6
:1056CC00FFF72AFF89F31188BFF36F8F002DCBD022
:1056DC0033E057EA080320D000F0F2FAE8B989F376
:1056EC001188BFF36F8F3A46434604F12800FEF74A
:1056FC0073FF4FF02002EFF3118382F31288BFF394
:10570C006F8F28B183F31188BFF36F8F0025D0E71B
:10571C0083F31188BFF36F8FD8E722690DF1030370
:10572C00C2F3400251462046FFF719FF054689F3A4
:10573C001188BFF36F8F0028E8D09DF80330002B41
:10574C0093D06369002B8FD02946204698478BE76E
:10575C0070B50446836908460D46984702464FF0DB
:10576C002003EFF3118683F31288BFF36F8F2B782E
:10577C0043F001032B7061682046FFF7BFFE6060A9
:10578C002046FFF7DFFE86F31188BFF36F8F70BDE5
:10579C00F8B504464FF02003EFF3118683F312881B
:1057AC00BFF36F8FD4E90123934288BF226AE1696A
:1057BC00D21A32B111F8232012F0030001EB830747
:1057CC0005D186F31188BFF36F8F00272EE00228D6
:1057DC0003D151F82350AD0805D1D00714D4A369D7
:1057EC00384698470546A1682A462046FFF786FEAC
:1057FC00E168A0602A462046FFF780FEE06086F351
:10580C001188BFF36F8FC5E742F0020201F8232025
:10581C003846A369A5689847294602462046FFF7F3
:10582C006DFEA06086F31188BFF36F8F3846F8BD0C
:10583C0070B50446836908460D46984702464FF0FA
:10584C002003EFF3118683F31288BFF36F8F2B784D
:10585C006FF300032B7023699B0705D5E168E3699F
:10586C0003EB81039D4212D12B786FF341032B7014
:10587C00E1682046FFF742FEE06086F31188BFF333
:10588C006F8F04F12800BDE87040FEF785BE2B68D1
:10589C0060F39F032B60F0E7D0E90123934288BFAC
:1058AC00026AD31A181E18BF01207047704703787C
:1058BC005B070BD403684288C3F34923C2F3CB02C2
:1058CC009818173020F007008008704700207047A8
:1058DC000020704700F07CB90346BFF35B8F53E8A0
:1058EC00000F421C43E800210029F8D1BFF35B8F65
:1058FC0070471FB50023CDE90201CDE900331A46EC
:10590C0019461846FCF7FAF805B05DF804FB0120BF
:10591C00FBF7E0BE0020704770B5D2E901369B1B47
:10592C008B420C4615460AD313680A460146981951
:10593C0000F098F8AB682344AB60204670BD6FF064
:10594C001B00FBE770B50E4615461946044618B900
:10595C00BDE87040FBF7BEBE3BB1C2F3492310302B
:10596C00C2F3CB42184400F07DF8C4E9005620463F
:10597C00BDE87040FCF73AB8F8B506460D4614463B
:10598C001F46214628463A46B047241A0544F8D10A
:10599C00F8BD13B500240094FBF716FA02B010BD45
:1059AC0010B5426881680446D2E900230068FFF70D
:1059BC00E3FF636800221A6010BD38B54B681A68A3
:1059CC00CB689A4205460C4602D10846FFF7E8FF21
:1059DC006368BFF35B8F53E8002F511C43E8001042
:1059EC000028F8D1BFF35B8FA3689D54002038BD0D
:1059FC000A2838B504460D4602D10D20FFF7DDFF0D
:105A0C0029462046FFF7D9FF002038BD0146006823
:105A1C00FCF782BC00210120FCF77EBC08B5FCF72A
:105A2C0015FDBDE80840FCF7EDBD0023FCF712B8EE
:105A3C000139034611F8012F0AB91A70704703F89F
:105A4C00012BF7E7034600201A5C02B970470130BE
:105A5C00FAE7034600201A5C0AB1884200D170476D
:105A6C000130F8E710B5431E0A44914200D110BD35
:105A7C0011F8014B03F8014FF7E7C9B20244034692
:105A8C00934200D1704703F8011BF9E74FF0FF3048
:105A9C007047062808D14FF080430122C3F8002537
:105AAC00BFF34F8F20BFFDE77047002383F31188AE
:105ABC00BFF36F8F70470369C9B20C2201FB02332D
:105ACC00186C00F0070070474FF02003EFF31182C1
