:10000000600E0020F517000011400000AD17000041
:10001000AD170000AD170000AD1700000000000094
:100020000000000000000000000000004D1400006F
:10003000AD17000000000000F5130000AD17000030
:100040002D1500002D1500002D1500002D150000A8
:100050002D1500002D1500002D1500002D15000098
:100060002D1500002D1500002D1500002D15000088
:100070002D1500002D1500002D1500002D15000078
:100080002D1500002D1500002D1500002D15000068
:100090002D1500002D1500002D1500002D15000058
:1000A0002D1500002D1500002D1500002D15000048
:1000B0002D1500002D1500002D1500002D15000038
:1000C0002D1500002D1500002D1500002D15000028
:1000D0002D1500002D1500002D1500002D15000018
:1000E0002D1500002D1500002D1500002D15000008
:1000F0002D1500002D1500002D1500002D150000F8
:1001000053B94AB9002908BF00281CBF4FF0FF317E
:100110004FF0FF3000F074B9ADF1080C6DE904CE7A
:1001200000F006F8DDF804E0DDE9022304B07047D2
:100130002DE9F047089E0D4604468846002B4DD118
:100140008A42944668D9B2FA82F252B101FA02F3B5
:10015000C2F1200120FA01F10CFA02FC41EA030885
:1001600094404FEA1C45210CB8FBF5FE1FFA8CF7B2
:1001700005FB1E8341EA03430EFB07F199420BD9AD
:100180001CEB03030EF1FF3080F01E81994240F218
:100190001B81AEF1020E63445B1AA4B2B3FBF5F00F
:1001A00005FB103344EA034400FB07F7A7420AD9D2
:1001B0001CEB040400F1FF3380F00881A74240F2F9
:1001C000058164440238E41B40EA0E4000211EB160
:1001D000D4400023C6E90043BDE8F0878B4208D92C
:1001E000002E00F0EE800021C6E900050846BDE8BB
:1001F000F087B3FA83F100294AD1AB4202D382429D
:1002000000F2F980841A65EB030301209846002E62
:10021000E2D0C6E90048DFE702B9FFDEB2FA82F2B7
:10022000002A40F09180A1EB0C054FEA1C471FFA11
:100230008CFE0121B5FBF7F307FB1350250C45EAB3
:1002400000450EFB03F0A84208D91CEB050503F19D
:10025000FF3802D2A84200F2CB8043462D1AA4B246
:10026000B5FBF7F007FB105544EA05440EFB00FE12
:10027000A64508D91CEB040400F1FF3502D2A645BF
:1002800000F2BB802846A4EB0E0440EA03409EE740
:10029000C1F120078B4022FA07FC4CEA030C20FA3C
:1002A00007F405FA01F31C43FD404FEA1C4900FA2C
:1002B00001F3B5FBF9F8200C1FFA8CFE09FB185569
:1002C00040EA054508FB0EF0A84202FA01F20BD9FC
:1002D0001CEB050508F1FF3A80F08880A84240F247
:1002E0008580A8F1020865442D1AA4B2B5FBF9F087
:1002F00009FB105544EA054500FB0EFEAE4508D942
:100300001CEB050500F1FF346CD2AE456AD902380A
:10031000654440EA0840A0FB0294A5EB0E05A54207
:10032000C846A64656D353D05EB1B3EB080265EB80
:100330000E0505FA07F722FA01F3CD401F43C6E97F
:1003400000750021BDE8F087C2F1200320FA03F117
:100350000CFA02FC25FA03F395400D434FEA1C47C3
:100360001FFA8CFEB3FBF7F107FB11302B0C43EAAD
:10037000004301FB0EF0984204FA02F408D91CEB8A
:10038000030301F1FF382FD298422DD9023963447B
:100390001B1AADB2B3FBF7F007FB103345EA034578
:1003A00000FB0EF3AB4208D91CEB050500F1FF384A
:1003B00016D2AB4214D902386544ED1A40EA014125
:1003C00038E73146304607E78646E5E61846FAE65E
:1003D0004B45A9D2B9EB020864EB0C0E0138A3E738
:1003E0004046EAE7204694E74146D1E7D0467BE71E
:1003F000023B654432E7084609E76444023842E7B5
:10040000704700BF08B50649064803F0D6FB00F068
:100410000BF84FF42030002102F0B0FF08BD00BF00
:10042000384D0000444D000008B5024803F0C5FBFC
:1004300008BD00BF584D000008B50B6801330B60C4
:10044000014B1B68984708BD0000002000B583B031
:1004500002460B460021019101A9034800F052FA1F
:1004600003B05DF804FB00BF3904000010B584B090
:100470000446019002910021039101A9054800F072
:1004800041FA039B029A934201DA0022E254039854
:1004900004B010BD8B3B00002DE9F04383B004464F
:1004A00008461546238B13F0080F05D103F0070605
:1004B00000230093019369E0012909D043F0200350
:1004C000238385F31188BFF36F8F03B0BDE8F083FA
:1004D00043F010032383F4E7204603F0B1FB57E019
:1004E000D4F814904A466946204603F0C2FB002720
:1004F0005AE023691F680621204603F07AFB4FF07B
:10050000000951E023695F680421204603F071FB74
:100510004FF0000948E023699F680521204603F059
:1005200068FB4FF000093FE0002246E0002244E073
:1005300043F00803238385F31188BFF36F8F0029ED
:1005400044D1009B2BB14B4642466946204603F0FE
:1005500007FC17B125492046B8474FF02003EFF3B9
:10056000118583F31288BFF36F8F238B23F0080369
:100570002383238B13F0100F2ED023F0100323833B
:100580000120268B06F0070600289AD00228A3D067
:10059000002896D00128A3D00328AAD00428B1D0DF
:1005A0000528B8D00027B946238B03F00708B045CB
:1005B000BAD0A268002AB9D001221146002AB7D1C8
:1005C000009A002AB4D1002FB2D1D2E74A46414660
:1005D000204603F016FBB4E713F0200F04D023F0FD
:1005E000200323830220CCE70020CAE78F3D0000D0
:1005F00070B582B0044600230360436083604B788B
:10060000252B02D04E1C01251FE0881CE37045E11C
:10061000237843F004032370B5B1013614E0237846
:1006200043F008032370F7E7237843F010032370A7
:10063000F2E7237843F020032370EDE7237843F0BB
:1006400040032370E8E7002545B33378203B102BA7
:10065000F9D801A252F823F029060000470600004D
:10066000470600003306000047060000470600006A
:100670004706000047060000470600004706000046
:10068000470600001F060000470600001106000094
:1006900047060000470600003D060000237803F0EF
:1006A0004403442B5FD00196237843F080032370EA
:1006B00033782A2B5CD001A803F0FAFB019B9E4201
:1006C0000FD0237843F0800323706060DBB2C3F364
:1006D0004003002854DB00221343227863F34102D5
:1006E0002270019B01931B782E2B14BF0023012342
:1006F000627863F341026270002B43D0019B5A1C65
:1007000001925B782A2B3FD001A803F0D1FBA060B7
:100710002378C3F3400300283EDB002213432278F2
:1007200063F341022270019803784C3B2E2B00F2B8
:100730009D80DFE803F0909B9B9B9B9B9B9B9B9BDF
:100740009B9B9B9B9B9B9B9B9B9B9B9B9B9B9B9BF9
:100750009B9B339B579B459B9B9B9B9B9B9B899BFD
:100760009B9B9B9B820023786FF3861323709AE7F1
:10077000637843F001036370334601330193B1E7BB
:100780000122A9E70198CFE7637843F0040363707F
:10079000104601300190C7E70122BFE7421C4378B1
:1007A000682B06D06378022161F3C603637010469C
:1007B0001EE06378012262F3C6036370023017E023
:1007C000421C43786C2B06D06378032161F3C60387
:1007D000637010460CE06378042262F3C603637012
:1007E000023005E06378052262F3C60363700130CE
:1007F00010F8013BE370A3F14102372A7DD8DFE80E
:1008000002F05E7C7C7C5E5E5E7C7C7C7C7C7C7CA6
:100810007C7C7C7C7C7C7C7C7C4F7C7C7C7C7C7C45
:100820007C7C5E7C4F3A5E5E5E7C3A7C7C7C7C6548
:100830004F717C7C717C4F7C7C4F6378062262F325
:10084000C60363700130D3E76378072262F3C603FF
:1008500063700130CCE76378082262F3C6036370EB
:100860000130237843F002032370C1E763786FF30C
:10087000C6036370BCE7A278012161F30202A27093
:10088000627802F07802402A10D0632B13D02378CC
:10089000C3F34002154365F34103237002B070BDFA
:1008A000A278022161F30202A270E9E7217841F007
:1008B00001012170E9E7151E18BF0125E7E7A378BC
:1008C000042262F30203A3700125E0E7A378032268
:1008D00062F30203A370637803F07803402BD6D150
:1008E0000125D4E7A378032262F30203A37063789F
:1008F00013F0780FCBD00125C9E7237843F001032B
:100900002370C4E72DE9F04F91B006460D4691469D
:100910000393002499F80000002800F0D5822528D0
:1009200008D009F101092946B0470028C0F2CD825C
:100930000134EFE70023049305930693079308938C
:100940000993494606A8FFF753FE02909DF8193017
:1009500013F0010F00F09780039B1A1D03921F688C
:10096000002FC0F288809DF8193013F0040F00F0BA
:100970009C80039B1A1D0392D3F800A0BAF1000FCC
:10098000C0F28A800023079308939DF81A3003F081
:1009900007039DF81910C1F3C301012B00F08E80ED
:1009A000022B00F0D380042B00F02481032B00F0F5
:1009B0003B819DF8188018F0030B40F03B819DF8B7
:1009C0001B30253B532B00F2E681DFE813F040019A
:1009D000E401E401E401E401E401E401E401E401EF
:1009E000E401E401E401E401E401E401E401E401DF
:1009F000E401E401E401E401E401E401E401E401CF
:100A0000E401E401E401E401E401E401E401E401BE
:100A1000E401E401E401E401E401E401E401E401AE
:100A2000E401E401E401E401E401E401E401E4019E
:100A3000E401E4018101E401E401E401E401E401F1
:100A4000E401E401E401E401E4015E016701E40181
:100A5000E401E401E4016701E401E401E401E401EB
:100A6000BE018101A201E401E4014D01E401810123
:100A7000E401E40181019DF8183043F004038DF88E
:100A800018307F426FE79DF91830002B02DB4FF0E2
:100A9000FF3768E7079F66E79DF819306FF341035A
:100AA0008DF819304FF0FF3A6CE713F0020F02D0C7
:100AB000DDF820A066E74FF0FF3A63E7CB1E042B7A
:100AC00004D8DFE803F00B1D29353500039B1A1D00
:100AD00003921B68DA170493059206E0039B1A1D24
:100AE00003921B68DA1704930592012928D0022982
:100AF0007FF45FAFBDF91030DA170493059258E721
:100B0000039B073323F0070303F108020392D3E9A1
:100B10000023CDE90423E8E7039B073323F0070311
:100B200003F108020392D3E90023CDE90423DCE7B3
:100B3000039B1A1D03921B68DA1704930592D4E7EE
:100B40009DF8103004930023059332E7CB1E042B4D
:100B500004D8DFE803F00B1F35414100039B1A1D49
:100B600003921B680493002305931EE09DF81B303D
:100B7000632B07D0039B1A1D03921B680493002369
:100B8000059312E0039B1A1D03921B680493002334
:100B900005930AE0039B073323F0070303F10802E0
:100BA0000392D3E90023CDE9042301291CD00229B3
:100BB0007FF4FFAEBDF81030049300230593F8E6F0
:100BC000039B073323F0070303F108020392D3E9E1
:100BD0000023CDE90423E8E7039B1A1D03921B6859
:100BE000049300230593E0E79DF81030049300235D
:100BF0000593DEE608290BD0039B073323F0070398
:100C000003F108020392D3E90023CDE90423D0E6DF
:100C1000039B073323F0070303F108020392D3E990
:100C20000023CDE90423C4E6039B1A1D03921B682D
:100C30000493BEE6029F3B464A462946304603F0EF
:100C4000B3F90028C0F241810444B94662E629465E
:100C50002520B0470028C0F238810134D8460DF174
:100C60003E0A4FF000099BE0DDF81090BAF1000F4A
:100C700007DB5146484603F087FA09EB000AD846DD
:100C80008EE0484603F077FAF7E7049B8DF82830AA
:100C9000D8460DF1290A0DF1280981E018F0080F56
:100CA00005D118F0100804D04FF0200801E04FF0F3
:100CB0002B08049A059B002B02DB0492059308E0A5
:100CC000524263EB4303049205934FF02D0800E07A
:100CD000D8460DF13E0300930AAB06AADDE90401F4
:100CE00003F0F8F88146BAF1000FC0F288800DF1E8
:100CF0003E03A3EB09039DF818206FF386128DF8CD
:100D000018209A457ED9AAEB030307930DF13E0AFA
:100D100046E0049828B9D846DFF8B4A1AAF105093D
:100D20003EE00DF13E0300930AAB06AA002103F05A
:100D3000D1F881469DF81A3043F010038DF81A302F
:100D400078238DF81B30D846CDE7049A9DF81930EA
:100D5000C3F3C303072B06D8DFE803F0040B0D0F22
:100D60001115191B1460D8460DF13E0A4FF0000909
:100D700016E01470F7E71480F5E71460F3E7E31763
:100D800014605360EFE7E31714605360EBE71460FF
:100D9000E9E71460E7E7D8460DF13E0A4FF0000995
:100DA000B9F1000F00F08D80AAEB0903B8F1000F34
:100DB00000D001339DF81A2012F0100F25D0023315
:100DC00007990B4412F0400F01D0089A1344002FEA
:100DD00031DDFF1A9DF8183013F0040F2BD113F0FA
:100DE000400F17D0B8F1000F17D029464046B04742
:100DF00000286ADB0134D8464FF0300B0FE00DF1CC
:100E00003E0ACDE70DF13E0ACAE712F0080FD7D02F
:100E10000133D5E74FF0200B01E04FF0300B3B469C
:100E20005F1E002B07DD29465846B04700284CDBE3
:100E300001343B46F4E7B8F1000F05D0294640469F
:100E4000B047002841DB01349DF81A30C3F300128B
:100E5000C3F3C003134305D029463020B047002810
:100E600033DB01349DF81A3013F0100F06D02946F9
:100E70009DF81B00B047002827DB0134079B03F1D6
:100E8000FF38002B07DD29463020B04700281CDB47
:100E900001344346F3E753464A462946304603F0B9
:100EA00083F8002811DB0444002F07DD29462020A9
:100EB000B047002809DB0134013FF5E7DDF8089071
:100EC00028E5DDF8089025E5204611B0BDE8F08F53
:100ED000714D000008B54FF02002EFF3118382F34B
:100EE0001288BFF36F8F00F0A7FD034802F065FE84
:100EF00000F0FAF9FCE700BF744D000070B584B053
:100F00002B4B1D7D05F01F0301229A406909294BD7
:100F100003EB8103D043BFF35B8F53E8001F01EA6B
:100F2000000443E80046002EF7D1BFF35B8F0A426E
:100F30003BD005EB45039A001F4B134493E8070091
:100F400004AB03E907001D4B63B103F087F94FF0D1
:100F50002003EFF3118683F31288BFF36F8F184BD2
:100F60001C6808E0002383F31188BFF36F8FEEE75E
:100F70000CB1246864B15CB1A268002AF8D00C4BB3
:100F80001B7D03EB430399000B4B585C9047EFE745
:100F900086F31188BFF36F8F074805EB4505AA005C
:100FA0008118002383504B608B6004B070BD00BF7C
:100FB00030080020780200207C0200205D42000002
:100FC00070020020F0B589B00446534B1D7D05F03A
:100FD0001F03012199406A09504B03EB8203BFF3C1
:100FE0005B8F53E8002F42EA010043E80006002E21
:100FF000F7D1BFF35B8F114217D005EB4503484A89
:1010000012F82330002B00F08580B4F1FF3F1CD193
:1010100001F098FE4FF02003EFF3118683F312885E
:10102000BFF36F8F3F4B1C682FE005EB45063C4B31
:1010300003EB86066F4622462946384602F0CFFF6C
:1010400097E8070086E80700D7E705EB450302EBC2
:1010500083039868410CC003334BC018334A4FF0E8
:10106000000341F10001FFF74BF80121201A03F0C2
:101070001DFDCDE7284B1B7D03EB4303284911F8E9
:10108000230090470CB1246824B11CB16268002A87
:10109000F0D1F7E786F31188BFF36F8F05F01F03D8
:1010A000012199406B09224A02EB8303BFF35B8F56
:1010B00053E8002F0A4343E800200028F8D1BFF38B
:1010C0005B8F05EB4503164A02EB830393E80700A9
:1010D00008AB03E90700174B0BB103F0ACF8FFF7BF
:1010E0000DFF02F039F8012005F01F0201239340A3
:1010F0006D090A4A02EB8505DB43BFF35B8F55E8B8
:10110000002F1A4045E800210029F8D1BFF35B8F7A
:1011100009B0F0BD0020E7E7300800208802002079
:101120007C020020700200203F420F0040420F006E
:10113000780200203742000008B5024802F06CFB3C
:1011400008BD00BFA04D0000D0B108B54268042A18
:1011500005D0D2B1006801F0EBFC002008BD0368A7
:101160000022BFF35B8F53E8001F012903D143E83E
:1011700000200028F7D1BFF35B8F04D11046EDE7C4
:101180006FF4E04070470248E8E70248E6E700BF36
:10119000E98FFFFFEA8FFFFF20B308B54268042AFA
:1011A00002D092B911480FE003680122BFF35B8FB0
:1011B00053E8001F002903D143E800200028F7D19D
:1011C000BFF35B8F0CD1002008BD00684FF0FF32E9
:1011D0004FF0FF3301F022FC0028F5D00448F3E77C
:1011E0000348F1E76FF4E040704700BFEA8FFFFF6C
:1011F000E98FFFFF10B5044688B16368042B0DD05A
:10120000082B0BD053B113F0020F0DD02146094823
:1012100003F089FA002323600023636010BD064BAE
:101220005B6806489847E8E714220021206802F02E
:10123000E4FFF1E78C02002030000020A84D000000
:1012400010B5044678B16368042B0BD0082B09D085
:101250000BB9236863B1206803F0D4FA636843F0E4
:101260000103636010BD0F4B5B680F489847EAE7C6
:101270004FF0FF324FF0FF3321460C4801F0A8FA3F
:1012800008B923681BB9074B5B68094898471422C3
:101290000021206802F0B1FF636843F0020363603D
:1012A000D9E700BF30000020A84D00008C020020CC
:1012B000D04D000008B5402314220449044803F02F
:1012C00024FA0449044802F009FB08BDA8020020E2
:1012D0008C020020104E0000004E00000149102238
:1012E0000A60704710ED00E072B6404080F311884C
:1012F000BFF36F8FBFF34F8F30BF62B6BFF36F8FF7
:10130000704700BF72B6494081F3118820BF80F357
:10131000118862B6704700BF40B2002807DB00F0BA
:101320001F02400901239340014A42F820307047D0
:1013300000E100E04209054B53F8222000F01F00B5
:10134000012303FA00F01040704700BF00E100E005
:10135000013140B2002808DB4901C9B200F1604008
:1013600000F5614080F80013704700F00F0049015C
:10137000C9B2014B1954704714ED00E030BFFFF7BC
:10138000FDBF00BF08B50B4B0B4A22F07F029A60ED
:10139000BFF34F8FBFF36F8FD3F8882022F4700212
:1013A000C3F8882001F0B4F902F042F800F008FA1E
:1013B00001F0BAF900ED00E0000000000A4A93686D
:1013C000C3F8A80009490968C3F8AC1008494B687C
:1013D00043F080534B60002383F31188BFF36F8F7A
:1013E0009368D3F8AC007047300800209C4E000092
:1013F00000ED00E013498A684FF030001044EFF32D
:10140000098C80E8F01F202080F31288BFF36F8FD3
:101410000D4F4FF00066CA698A603E60D2F8A8009E
:101420000023C2F8A83080F3118804B5104600F0FC
:101430006DFABDE8044002F1300090E8F01F8CF333
:10144000098870473008002004ED00E01EF0040F0A
:101450000CBFEFF30880EFF30980816911F8021CDB
:101460000229FFD001B502F0C7FD01BD10B4A2F101
:1014700020040E4942F8081C21F0010142F8081C22
:1014800042F8203C019B42F81C3C029B42F8183C6D
:10149000039B42F8143C4FF0807342F8043C04650F
:1014A0000023C0F8A83010BC704700BF9D3E00006C
:1014B000124B9A6802B310F1160F11D0D2F898307F
:1014C000A3F1200C844505D8834205D98B4205D869
:1014D00000210BE0002109E0002107E0012105E0E7
:1014E000D2F898308B4294BF0021012109B9002025
:1014F0007047D2F8980070470020704730080020ED
:1015000008B50D461446084B986000F0FFF92046D8
:1015100085F30988002163B681F31188BFF36F8FCB
:101520000022002302F0BAFC3008002001B572B698
:101530000B4A906900281EBF0021916103F046F913
:1015400062B6EFF30580A0F110004FEAC000054934
:10155000014409C99847BDE8014003490847000014
:10156000300800206C4B00006D150000044B99689A
:10157000D869884203D003494FF080520A6070470F
:101580003008002004ED00E010B51446124B9A6AB2
:101590009A6A9B6A13F4007F0BD00F4B9A6B9B6A7D
:1015A00013F4004F05D021B10B4A936A23F4004392
:1015B0009362094B9A6A9B6A13F4807F01D1064BB0
:1015C0009B6A054A936A43F47F439362012102F0C8
:1015D00025FD2070002010BD00ED00E0074B9A6A49
:1015E0009A6A9A6A9A6A9A6A9A6A9A6A6FEA024246
:1015F0006FEA12429A620020704700BF00ED00E0DF
:1016000070B505461646204B9A6A9A6A9B6A13F093
:10161000020F0CD01C4B586B9B6A13F0800F25D027
:1016200039B1194A936A23F08003936201E06FF0A5
:101630001500154B9A6A9A6A9B6A13F0100F04D131
:10164000114B9C6A14F0020404D00F4B5C6814F434
:1016500000640ED10C4A936A43F0FF0393620121A8
:10166000284602F0DBFC3070204670BD6FF015009C
:10167000DFE72946FFF71CFF04460028EAD080F385
:1016800009880224E6E700BF00ED00E008B58446C3
:1016900000230B701B4BD86A10F002002ED1DB6ABE
:1016A000002B2CDB174BDB6A13F0804328D0DCF8CF
:1016B000183033F8022C4DF602739A420FD0114BBA
:1016C00093F8283073B90F4B93F8293083B90D4B39
:1016D0005B8D9BB29BB16046FFF780FF0FE0DCF8AB
:1016E00000000CE00A4601216046FFF789FF06E092
:1016F0000A4601216046FFF747FF00E0002008BDD1
:101700001846FCE700ED00E070B58AB00C46224BAD
:101710005968C1F30801002383F31188BFF36F8F69
:1017200002F07F43B3F17F4F15D102F00C03082B79
:1017300014D012F0080F0BD000260DF1270220461E
:1017400002F071FC05469DF8273053B10AB070BD18
:1017500004460126F1E700263446EEE7002634462B
:10176000EBE72022214601A802F018FD4EB1089BAC
:10177000C3F308025AB96FEA53236FEA432308936D
:1017800005E0089B23F4FF7323F00103089301A9EC
:10179000284602F02DFCD9E700ED00E0024A53692B
:1017A00043F010035361704700ED00E0EFF3088051
:1017B000EFF3098101B57246FFF7A6FF01BD00BF37
:1017C000002206E002F00F01094B0B44202119769C
:1017D00001322F2A0ADC53B2002BF3DB03F1604302
:1017E00003F56143202183F80013F1E7704700BF40
:1017F000FCEC00E0002080F31488BFF36F8F03F04F
:101800008BF900200D490860BFF34F8F0C4880F31F
:10181000088800F02DF8202080F3118809484FF443
:101820000261401880F30988EFF314800221084315
:1018300080F31488BFF36F8FFFF7A4FD94ED00E0F1
:10184000600E0020E00F0020084BD3F89000C0F39A
:101850000720002306E0054AC2F898300021C2F8AC
:10186000A01001338342F6DB704700BF00ED00E0BB
:1018700010B572B6002484F31388FFF7E5FF234602
:1018800008E003F120010E4A4FF0FF3042F821003A
:101890000133DBB2072BF4D9002308E003F1600128
:1018A000074A4FF0FF3042F821000133DBB2072B2B
:1018B000F4D962B6BFF34F8FBFF36F8F10BD00BF77
:1018C00000E100E008B5084B9B68834202D001F0BC
:1018D00087FD08BDEFF30583002BF8D0034A53685A
:1018E00043F080535360F2E73008002000ED00E041
:1018F00008B5034B034A0121034802F01AFC08BD56
:101900000000042000000020244E000008B5D0F89C
:101910009830203B0448036020234360034B8360DE
:10192000012102F00AFC08BDA807002000000B15E9
:10193000084AC2F898000B6823F01F03034343F0E2
:101940001003C2F89C308B6843F00103C2F8A0304A
:10195000704700BF00ED00E010B5034C0123227872
:1019600002F0BFFB207010BD8408002008B50023E2
:10197000094A127802F0B5FB10F1160F0AD003469F
:1019800006E0064AC2F898300021C2F8A0100133E0
:10199000072BF6DD08BD00BF8408002000ED00E045
:1019A000044B0522C3F89420BFF34F8FBFF36F8F12
:1019B000704700BF00ED00E0BFF35F8F024B0022D5
:1019C000C3F89420704700BF00ED00E038B50E4B1F
:1019D0001D68082D15D8FFF7EFFF002409E00A4B1A
:1019E000596804EB4402930019442046FFF7A0FF16
:1019F0000134A542F3D8054B1D70FFF7D1FF00203D
:101A000038BD4FF0FF30FBE7404E00008408002057
:101A10004FF02002EFF3118382F31288BFF36F8F30
:101A2000044A0121C2F8401583F31188BFF36F8F78
:101A30000020704700E00140C0B24FF08042C2F881
:101A40001C05BFF34F8F0549CA6802F4E062044BDE
:101A50001343CB60BFF34F8F00BFFDE700ED00E005
:101A60000400FA0530B108B58001034B43F00103CF
:101A7000984708BD704700BF304D000000487047D0
:101A800004080020034BC01A8010034B03FB00F036
:101A9000704700BFC4070020B76DDBB638B50546F8
:101AA0000C46FFF7EFFF01464022034802F056FCC8
:101AB00001462846A04738BD544B000030B583B0DE
:101AC00005460C46FFF7DEFF014640230093234600
:101AD000054A064802F05CFC011E01DB03B030BD84
:101AE0002846A047FAE700BFD9430000544B000046
:101AF00008B510B101280DD008BD0021084802F03A
:101B0000B8FB836813F0070FF6D10021044802F0F8
:101B100013FCF1E70121024802F00EFCECE700BFE4
:101B2000544B000010B54FF02003EFF3118483F302
:101B30001288BFF36F8F134A136843F002031360D8
:101B400013F0010F08D1002384F31188BFF36F8FC6
:101B50009BB902F049FC10BD4FF08043D3F80C2430
:101B6000D3F80C3412F0010F01D10023ECE7FFF79A
:101B700085FF02F0CEFB0123E6E70021024802F0D8
:101B8000DBFBE8E714080020544B000008B50A4BC3
:101B9000BFF35B8F53E8002F22F0020143E80010EF
:101BA0000028F7D1BFF35B8F12F0010F00D008BD02
:101BB00002F024FCFBE700BF1408002000B585B04C
:101BC000CDF800D0CDF804D0002302930123039375
:101BD0006B46074A02F0F8FB002805DB4FF4804211
:101BE0000023684601F00CF805B05DF804FB00BF67
:101BF0001144000070B50646002201211046FFF78F
:101C0000A7FB0020FFF788FB114800F003FC114BF5
:101C1000984219D102F00AFD0024012C12D8214665
:101C2000304602F026FB05462146304602F02CFBEA
:101C3000094902F0BAF8002805DB0123AB601C4417
:101C4000E4B2EAE7002070BD6FF00400FBE700BFDC
:101C5000F11A00000000AD0B904E000070B5054673
:101C6000012807D14FF08043D3F81C3403F003035D
:101C7000012B5AD002F095FD28B92F4B1B78002B71
:101C800043D0002300E001231C46002B3FD04FF03F
:101C90002003EFF3118683F31288BFF36F8F24B90B
:101CA0004FF080430222C3F808234FF08042D2F85D
:101CB000183403F00303D2F8182412F4803F2DD116
:101CC00000221AB1012B2BD0012D29D00CB33046A4
:101CD000FFF718FB4FF08043D3F81835002BE4D101
:101CE0004FF08043D3F80431002BDED04FF0804317
:101CF0000022C3F80421D3F804210122C3F81825D7
:101D00000E49C1F880219A60CFE70123BCE7002685
:101D1000C5E72120002101F031FBDBE70122D0E7FC
:101D200024B186F31188BFF36F8F70BD4FF08043ED
:101D30000222C3F80423F8E78508002000E100E050
:101D400010B50446104B0121BFF35B8F53E8002F01
:101D500043E800100028F9D1BFF35B8F1AB1631E6E
:101D6000012B0DD910BD094802F08EFA0849002355
:101D70004B608B60CB6001238B6002F033F8EEE7A1
:101D80002046FFF76BFFEDE718080020544B0000DA
:101D9000B407002021F07F4100F5A870014B43F803
:101DA000201070470010014000F5A870014B53F857
:101DB00020007047001001404FF480338340024AF6
:101DC000C2F84433704700BF001001404FF4803325
:101DD0008340024AC2F84833704700BF00100140F8
:101DE000014BD3F8040570470010014010B50123E2
:101DF00083406FEA030C104ABFF35B8F52E8001F69
:101E000001EA0C0E42E800E4002CF7D1BFF35B8F2F
:101E10004FF4803202FA00F002F1804202F5805263
:101E2000C2F80803BFF35F8FBFF36F8F0B4214BF7D
:101E30000120002010BD00BF2008002070B504461E
:101E400002F0FFFA05464FF48033A340174AD2F858
:101E50000423134205D10026284602F0FBFA30463F
:101E600070BD0123A340DB43114ABFF35B8F52E8EF
:101E7000001F01EA030042E80006002EF7D1BFF37D
:101E80005B8F59B904F150039B009BB203F180436F
:101E900003F588331B6813B1012300E001231E46BC
:101EA000002BD9D0204602F0BDFAD5E70010014042
:101EB0001C08002001B9704701238340114ABFF379
:101EC0005B8F52E8001F194342E8001CBCF1000F71
:101ED000F7D1BFF35B8F4FF4803383400A4AC2F8D7
:101EE0000433BFF35B8F094B1B68BFF35B8F23FA8F
:101EF00000F010F0010FDED0054B4FF40032C3F8B4
:101F00000021D8E720080020001001401C08002014
:101F100000E100E02DE9F843074614461E4610464E
:101F2000194602F08BFA0546154B1A68A01A1C6078
:101F30005E60A5F50013B3F5400F09D3002401F04E
:101F400067FB3846FFF730FFA8420ED0BDE8F883A4
:101F50000C4B1B681A0A1B0615EB030842F100091B
:101F6000094BC3E900890124E9E71CB13846FFF7B2
:101F700023FFEBE74FF400013846FFF70BFFF5E7CF
:101F80000001002024080020E800002038B50D4B97
:101F90001C68250A2406BFF35F8FFFF721FF034665
:101FA000001945F10001B3F5801F0AD2064BD3E9B1
:101FB0000023904271EB030303D210F1807041F1D2
:101FC000000138BD24080020E8000020F8B50646CE
:101FD00014461D461046194602F030FA0746FFF730
:101FE000D5FFA04271EB05031DD2231A65EB010159
:101FF0001B4A934271F100032FD21A4B03EB0613D5
:10200000D3E90223AB4208BFA2421AD03946304678
:1020100002F025FA394602F001FA001945F10003F1
:1020200004461D460DE00123B3400F4ABFF35B8F0A
:1020300052E8001F194342E800100028F8D1BFF30E
:102040005B8F084B320103EB0616C6E90245069981
:102050009950079B73600020F8BD6FF01500FBE7F7
:1020600001000001F00000201C08002030B583B002
:1020700000231D4AC2F80835002B24DD1A4C022526
:10208000C4F80453194B4FF40032C3F880210022E6
:1020900001211120FFF75CF91120FFF73DF9012321
:1020A000A3602360124A136000240194114B009333
:1020B000114A0023204602F00DFA2846FFF740FEA1
:1020C000204603B030BD0D4A02EB03124FF0FF3043
:1020D0004FF0FF31C2E902014FF480329A400249C9
:1020E000C1F804230133C7E70010014000E100E01C
:1020F00020080020151F0000FFFF7F00F0000020D7
:102100002DE9F04782B00446FFF798FE10B902B0FF
:10211000BDE8F087FFF73AFF82460E4602F091F9DC
:102120000546134B03EB0413D3E90289C24576EB52
:1021300009030BD20026284602F08CF9002EE6D0C7
:10214000009742464B462046B047E0E7084A230145
:1021500002EB0411D6584F680020D0504FF0FF32E8
:102160004FF0FF33C1E902232046FFF72FFEE2E7DD
:10217000F000002010B50E4BD3F8043313F0020F1B
:102180000DD00B4BD3F804314BB1094B0022C3F8EF
:102190000421D3F80431074A136801331360002483
:1021A000002C00DD10BD2046FFF7AAFF0134F7E741
:1021B000001001402408002010B582B0B0F1FF3FAC
:1021C00007D0441E002C07DD114B9C4205DD114C4D
:1021D00003E000F50000F4E70024FFF7D7FE0E4B04
:1021E0001A685B68801AB0F5000F00D3002404441D
:1021F0000134B4F5000F00D3064C002012190190F1
:102200000649009143F1000302F064F902B010BDE9
:10221000FEFF7F00FFFF7F0000010020151F000070
:1022200008B5FFF7B3FE024B1B68C01A08BD00BF1C
:1022300000010020024BD3F80034002BFAD0704785
:1022400000E0014008B5034BC3F80405FFF7F2FFB7
:1022500008BD00BF00E00140014B024A1A60704710
:10226000240000200090D00338B502F05EF940B1A0
:102270004FF080430022C3F80C21C3F81021C3F8AB
:10228000382502F05CF9002846D04FF08052D2F891
:102290000414594BC3F82015D2F80814C3F82415B8
:1022A000D2F80C14C3F82815D2F81014C3F82C1562
:1022B000D2F81414C3F83015D2F81814C3F8341532
:1022C000D2F81C14C3F84015D2F82014C3F84415F2
:1022D000D2F82414C3F84815D2F82814C3F84C15C2
:1022E000D2F82C14C3F85015D2F83014C3F8541592
:1022F000D2F83414C3F86015D2F83814C3F8641552
:10230000D2F83C14C3F86815D2F84014C3F86C1521
:10231000D2F84424C3F8702502F01BF918B1374BEA
:10232000374AC3F88C2602F027F918B1354BFB2247
:10233000C3F8182502F033F970B14FF08041D1F89D
:10234000E43E23F00F034FF08052D2F8582202F0FF
:102350000F021343C1F8E43E02F034F920B12A4BD6
:102360004FF40072C3F8402602F03FF960B14FF01D
:102370008043D3F8003413F0010F05D04FF08043B1
:102380006FF00102C3F8002402F039F938B14FF0C0
:102390001023D3F808224FF08043C3F858254FF09C
:1023A0001023D3F80032002B08DB4FF01023D3F8B2
:1023B0000432002B02DBFFF74FFF38BD0120FFF78F
:1023C00041FF4FF010241225C4F80052FFF732FFEE
:1023D000C4F80452FFF72EFF0020FFF733FFBFF3CE
:1023E0004F8F0A49CA6802F4E062094B1343CB607D
:1023F000BFF34F8F00BFFDE700C00040005000401A
:102400004881030000F000400090024000ED00E031
:102410000400FA05064B1B793BB9054B18600122F5
:102420001A7100225A71034870470348704700BF71
:10243000280800200000AD0B0C00AD0B30B583B0B8
:10244000044618B1012812D003B030BD4FF08043CC
:102450000222C3F808230022C3F80421D3F8042180
:102460000122DA60012C0ED042F2107551E04FF0DB
:1024700080430122C3F808230021C3F80011D3F8D8
:1024800000115A60EEE701238DF8073042F2107513
:1024900018E04FF08042D2F8183403F00303CDF86F
:1024A0000730D2F8183413F4803F20D10023002BDA
:1024B00042D09DF80730012B3ED1012002F0B2F846
:1024C000013D39D0002CE4D0012C01D00023EEE7EF
:1024D0004FF08042D2F80C3403F001038DF807303E
:1024E000D2F80C3413F4803F03D10023DFE701233B
:1024F000DDE70123DBE74FF08043D3F8183413F412
:10250000803F15D10023BBB1012002F08BF8013DC3
:1025100012D0002CEFD0012C01D00023F3E74FF0B4
:102520008043D3F80C3413F4803F03D10023EAE74F
:102530000123E8E70123E6E7012C85D1014B0022C6
:102540005A7181E72808002008B54FF08043D3F87E
:1025500000318BB14FF080430022C3F80021D3F843
:1025600000210122C3F80823154B5B7923B9144BD2
:102570005A711B68002098474FF08043D3F804310C
:102580009BB14FF080430022C3F80421D3F804210B
:10259000D3F81824D3F8183412F0030F06D14FF0F3
:1025A00080430122C3F818259A6008BD4FF080438C
:1025B0000222C3F80823024B1B6801209847F4E766
:1025C00028080020F0B589B00446154DB02303FB60
:1025D0000055144E4FF4B07303FB006606AF03467C
:1025E000114A0821384601F0F6FA04EB44040F487A
:1025F00000EBC4040597012304930F2303930023E6
:102600000293019300940A4B4FF4A072314628467E
:1026100000F040F96B7B23F004036B7309B0F0BD4D
:1026200008010020800E0020A04E0000300800208D
:10263000F129000070B586B000F004FE1B4D1C4B64
:10264000DD611C4B05930123049300240394029441
:1026500001940094184B4FF480621849284600F00A
:1026600019F906466B7B23F004036B73284602F0CE
:1026700002F9002C02DD304606B070BD2046FFF79F
:10268000A1FF0F4AB02303FB042204EB4401084BD3
:1026900003EBC103DA601C7504EB8411094A02EBF9
:1026A000411202F502625A600134E2E7B8010020EB
:1026B00030080020AC4E0000C9260000600A00204F
:1026C00008010020E00F002008B50A4B01221A7013
:1026D000022001F02BF802F01EFA032001F026F888
:1026E00000F03CF9FDF78EFE034A137B23F0010353
:1026F000137308BD85080020B801002008B5014605
:10270000014A0248FEF7FCFEC9260000B80100207D
:1027100008B50348034A121A002101F06EFD08BDF6
:10272000E8000020440A002000B5ADB01C4B83F344
:1027300008881C4C636943F400736361E02384F8E8
:1027400022300025E57725766576A57684F8205039
:10275000636A43F4E023636284F82350FFF71EF8B2
:10276000FEF7BCFD4FF0FF33A362E362FFF72EF9E3
:10277000FFF7BEF801248DF80D408DF80C4026952A
:102780002795094BC3F808D000F0C4FF284600F095
:10279000CDFF204600F0CAFFFFF74CFFFFF7AEFF6A
:1027A0000018002000ED00E03008002010B5064CB5
:1027B000002000E01C34054B9C4204D2204601F06E
:1027C0008DFF0028F6DA10BD940000209400002050
:1027D00030B583B00D464FF02004EFF3118184F340
:1027E0001288BFF36F8F44696CB12C6043691B681A
:1027F0004361836901338361002081F31188BFF352
:102800006F8F03B030BD00F1080C53EA020404D10D
:1028100000232B606FF00B00EFE70092019302465C
:10282000604600F0E3FB0028EBD1024B9B685B693C
:102830002B60E6E7300800204FF02003EFF3118112
:1028400083F31288BFF36F8F0A4B9B6A834204D1D4
:102850001A6F084B9A6207E0134613B11A6F82424F
:10286000FAD10BB1026F1A6781F31188BFF36F8F32
:10287000704700BF3008002008B553EA020102D1BA
:1028800001F095FF08BD0249183000F033FEF9E76A
:10289000AF4800002DE9F04F85B004460F461546BD
:1028A0001E46DDF838A0DDF83C90DDF84080DDF80C
:1028B0004CB000F158038365C365129B0422119943
:1028C00001F079FF2A463946204601F058FF0546B7
:1028D000CDF80880CDF80490CDF800A0334602462C
:1028E00039462046FEF7C2FD002363652666C4F81C
:1028F00064A0C4F86890C4F86C804FF02003EFF334
:10290000118283F31288BFF36F8F134B996A21678B
:102910009C6282F31188BFF36F8FBBF1000F13D05D
:102920001F22594604F1740001F00BFC002384F8C7
:102930009330094B9B685BB1D3F8A430C4F8A43042
:10294000284605B0BDE8F08F002384F87430F0E726
:10295000C4F8A430F4E700BF3008002030B587B0D9
:10296000214C14E0E36A0593236A0493E36903931B
:10297000A36902936369019323690093E368A268E2
:1029800061682068FFF786FF23685C653034174B69
:102990009C42E7D300F0D6F9134C00E03034134BDF
:1029A0009C421CD2606AB0F1FF3FF7D0256820EA54
:1029B000E070C117C90341EA5041C00340F2E73358
:1029C000C0184FF47A724FF0000341F10001FDF797
:1029D00097FB02460B462846FFF74EFFDEE700F066
:1029E000BBFB07B030BD00BF940000209400002066
:1029F00008B54FF02002EFF3118382F31288BFF382
:102A00006F8F02F03CF8044B9861FEF7DBFA002868
:102A1000EFD1FEF769FCECE7300800202DE9F04328
:102A200083B004461D464FF02003EFF3118783F374
:102A30001288BFF36F8FC16899B900294FD13A4B03
:102A40009B6893F90E3023610131E160364B9B683E
:102A5000A36087F31188BFF36F8F002003B0BDE838
:102A6000F08316468268304B9B689A42E5D055EA5F
:102A700006010CBF4FF001084FF0000831D092F969
:102A80000E90494693F90E0001F0A6FE81452FDC19
:102A90004FF000090096019522463946234800F080
:102AA000A5FA0028DAD04FF02003EFF3118583F365
:102AB0001288BFF36F8F23689C421FD0F3B1216946
:102AC00093F90E0001F088FE0146204601F08FFECA
:102AD000B0B9B9F1000F15D04FF0010812E0236929
:102AE000B1E787F31188BFF36F8F6FF00F00B5E781
:102AF0000146204601F07BFE8146CBE72169E4E7F1
:102B00004FF00108B8F1000F06D185F31188BFF32B
:102B10006F8F6FF00A00A1E72946044800F0F6F82D
:102B20006FF00A009AE700BF300800205C08002020
:102B30008268002A35D038B504461D4B9B689A42FE
:102B400032D1DA7B013ADA73C368012B05D9013B34
:102B5000C36000F001FB002038BD4FF02003EFF30D
:102B6000118583F31288BFF36F8F016901F03FFE77
:102B7000204601F020FFA06060B190F90E30236183
:102B80000023C0F8AC3001F076FE2946094800F079
:102B9000BDF8DEE70023E36085F31188BFF36F8F94
:102BA000D7E76FF0150070474FF0FF30D4E700BF54
:102BB000300800205C08002038B504464FF02003A0
:102BC000EFF3118583F31288BFF36F8F01F0F3FEEB
:102BD00048B10022C0F8AC2001F04DFE294607485C
:102BE00000F094F838BDA368E268934203D0012254
:102BF0001344A360F2E70022FAE700BF5C0800205C
:102C000010B582B04FF02004EFF3118184F31288E5
:102C1000BFF36F8F846844B1013C846081F31188F5
:102C2000BFF36F8F002002B010BD53EA020406D03C
:102C3000009201930246054800F0D8F9F3E781F3CA
:102C40001188BFF36F8F6FF00F00ECE75C08002076
:102C5000B3F1FF3F08BFB2F1FF3F00D1704708B5A5
:102C60000249183000F046FC08BD00BFAF48000024
:102C700008B5084B1B6803B908BDFFF7D1FA034636
:102C8000044A10680344044A1361002101F00EFF56
:102C9000F2E700BF640800203008002070B5044649
:102CA0000D4600234FF02002EFF3118682F31288C5
:102CB000BFF36F8F0CE00228B8BF02201860104BE2
:102CC0001D60FFF7D5FF86F31188BFF36F8F0123D7
:102CD000A3B90C4B00221A61610CE30340F2E73008
:102CE00018184FF47A724FF0000341F10001FDF71C
:102CF00007FA054B1860002CDDDCE0E770BD00BF73
:102D000060080020300800206408002008B508464C
:102D100021B9EFF3058313B9012100E0002111F07F
:102D2000010F07D0064BDA699B689A4202D0FEF782
:102D300045FB03E080F31188BFF36F8F08BD00BF30
:102D40003008002000234FF02002EFF3118182F3BE
:102D50001288BFF36F8F09E0064B9A68D37B013B63
:102D6000D37381F31188BFF36F8F0123002BF3D04E
:102D7000704700BF3008002038B504460F4801F006
:102D800073FD054670B184B90D4B9B685A7B12F0F8
:102D90001F0F0AD1AA6942B9DA897F2A05D9084AE0
:102DA000D3610AE0064BDD68EDE7054B9B68AB425B
:102DB00001D0FFF75DFF024BDD6138BD50080020F8
:102DC0003008002038B50546427B90F90D30002BC5
:102DD00028DB6B7B63F07F036B731A4B53F8204F38
:102DE0009C422DD06CB12146284601F016FD0028EA
:102DF00020DC34B1134B5B6A9C4202D02468002C67
:102E0000F0D1104B5A6A03F1200129606A60156005
:102E10005D620C4B9868A84214BF00200120FFF7A8
:102E2000ABFF38BD02F07F0242730146064801F055
:102E300013FDCEE763686B602C601D606560E8E79A
:102E40000024CFE7300800205008002010B54FF0D4
:102E50002003EFF3118483F31288BFF36F8F214BAC
:102E60009B68214A1268934217D01F4A00211160C3
:102E70001E4A126872B3DA897F2A15D85A7B12F07B
:102E80001F0F1BD193F90E10194A1268914217DBDC
:102E9000184A934216D0012207E0FFF7E9FE84F3B7
:102EA0001188BFF36F8F1CE000229AB10D4A12699E
:102EB000824209DD101A0B4B18610EE00022F4E784
:102EC0000022F2E70022F0E71846FFF77BFFFFF74A
:102ED000CFFE02E0034B00221A6184F31188BFF396
:102EE0006F8F10BD300800205C08002064080020AF
:102EF000600800200801002038B5437B90F90D20C0
:102F0000002A2DDB044613F01F0F05D182690AB198
:102F1000002202E0012200E000220AB363F07F03F6
:102F20006373144B53F8205F9D4220D06DB1294646
:102F3000204601F072FC002813DC35B10D4B5B6AB2
:102F40009D4202D02D68002DF0D10A4B5A6A03F140
:102F500020012160626014605C620020FFF70CFFBA
:102F600038BD6B68636025601C606C60F5E7002508
:102F7000DCE700BF3008002010B54FF02003EFF36E
:102F8000118483F31288BFF36F8F437B13F0040F18
:102F900004D184F31188BFF36F8F10BD23F00403B5
:102FA0004373FFF7A9FF21460148FFF7AFFEF4E79F
:102FB0006008002010B50446427B90F90D30002BCC
:102FC00008DB084B9868A04214BF00200120FFF7DF
:102FD000D3FE10BD02F07F0242730146024801F0A9
:102FE0003BFCEEE7300800205008002010B50C46EE
:102FF0001146064B9868064B1860DDE9022301F084
:10300000B8FC2046FEF7DAF910BD00BF30080020FA
:103010005C0800202DE9F84304460E4600234FF0DB
:103020002002EFF3118882F31288BFF36F8F1F46DF
:1030300008E012F0010711D1A67388F31188BFF3DD
:103040006F8F01231A46002B3DD1637B13F01F0FB6
:10305000EFD1A1690029ECD10122EAE703F07F0357
:103060006373DFF868902146484601F0F5FBA673CC
:10307000637B63F07F036373D9F800504D4520D024
:103080006DB12946204601F0C8FB002813DC35B19C
:103090000F4B5B6A9D4202D02D68002DF0D10C4B86
:1030A0005A6A03F120012160626014605C620120B1
:1030B000FFF762FEC1E76B68636025601C606C60AF
:1030C000F5E70025DCE73846BDE8F8835008002026
:1030D0003008002038B50446183001F0B2FC002357
:1030E0004FF02002EFF3118582F31288BFF36F8F48
:1030F00010E0637B43F010036373154B9868A042A4
:1031000014BF00200120FFF737FE85F31188BFF3BD
:103110006F8F012363B9627B94F90D30002BE8DADD
:1031200002F07F02627321460A4801F095FBE0E756
:10313000074B9B68A34200D038BD4FF02003EFF34C
:10314000118083F31288BFF36F8F01F070FBF3E7F8
:10315000300800205008002010B500234FF0200256
:10316000EFF3118482F31288BFF36F8F0CE00D4BE5
:103170009A68D37B0133D3730020FFF7FDFD84F3FE
:103180001188BFF36F8F0123002BF0D04FF0200385
:10319000EFF3118083F31288BFF36F8F01F047FBC9
:1031A00010BD00BF30080020F8B5437B13F0080FB6
:1031B00045D1054643F00803437303F0DF0343732F
:1031C00013F0800F2DD1AB685BB1284601F023FBD3
:1031D000294601F041FB6B7B23F002036B73002354
:1031E000AB6005F1180001F02CFC05F158073C68B4
:1031F000BC421ED0ECB1204601F00DFB214601F08F
:103200002BFB637B23F0020363730026A66004F1AB
:10321000180001F016FCC4F8AC602046FFF76CFE05
:10322000E5E703F07F0343730146054801F014FB13
:10323000C9E70120FFF7A0FD2846FFF7FDFAF8BD1A
:103240005008002008B5044801F0E0FB00210846C2
:10325000FFF724FD08BD00BF4C080020F8B54FF073
:103260002003EFF3118683F31288BFF36F8F1C4C9A
:10327000A1684B7B03F07F034B7304F120073846B2
:1032800001F0EAFAA5686B7B63F07F036B73246A35
:10329000BC4223D06CB12146284601F0BEFA00287A
:1032A00016DC34B10E4B5B6A9C4202D02468002CC1
:1032B000F0D10B4B5A6A03F1200129606A60156056
:1032C0005D620120FFF758FD3046FEF777F8F8BD44
:1032D00063686B602C601D606560F2E70024D9E7CD
:1032E000300800202DE9F04150EA010338D00446AF
:1032F0000E466FF001031B1A4FF0FF3262EB010222
:10330000012B72F100032FDB6FF001052D1A4FF036
:103310002003EFF3118883F31288BFF36F8F144FEC
:10332000B868144B1860FFF745FEB868224633466C
:103330001149183000F0DEF8BA68537B43F01003EF
:1033400053734046FEF73AF801F0DBFB281A63EBB3
:103350000303012873F1000300DA0020BDE8F081C7
:10336000FFF77CFF0020F9E701F0CBFB0519CEE762
:10337000300800205C080020AF48000008B5B1F11B
:10338000FF3F08BFB0F1FF3F1AD0FFF7ABFF844605
:10339000C217510141EAD06143011B1A61EB0201DE
:1033A000880040EA93709B0013EB0C0342EB000093
:1033B000C00040EA5370C3F3103343EA404008BDF5
:1033C000034B9868FFF786FE4FF0FF30F7E700BF2A
:1033D00030080020014B9868704700BF300800207B
:1033E00038B54FF02003EFF3118583F31288BFF354
:1033F0006F8F437B13F0080F04D085F31188BFF360
:103400006F8F38BD0446FFF7CFFE084B9B68A34281
:1034100004D085F31188BFF36F8FF2E7EFF30583D4
:10342000002BF6D12846FDF7C9FFF2E7300800204F
:1034300008B50648064A121A064900F0AFFE064AC9
:103440000649074800F0AAFE08BD00BF00000020A2
:10345000E4000020504F000000000000504F00002A
:1034600000000020034B1868984200D070470020ED
:10347000FCE700BF2800002030B1044A52689042A7
:1034800001D0006870470020704700BF280000206E
:1034900008B5044B1B680BB1002008BDFEF7C0FE49
:1034A000FBE700BF6808002010B5FFF7DBFF04460C
:1034B000FFF7EEFF8CB1236962691B1A62EBE072C1
:1034C000012B72F1000111DB1846B3F1004F72F1CC
:1034D000000304DB6FF0004001E06FF00040044B9C
:1034E0001B6913B1834200DA184610BD0020F6E7CD
:1034F00030080020B3F1FF3F08BFB2F1FF3F7FD09B
:103500002DE9F843044691461D46816000234FF0A3
:103510002002EFF3118782F31288BFF36F8F21E04F
:10352000FFF7B6FF19EB000845EBE07018F1010357
:1035300040F100002361606138E0511A66EB03033B
:10354000016143614368636020601C60446000283F
:1035500040D0FFF787FF844243D087F31188BFF341
:103560006F8F0123002B49D16FF00102B2EB0902EA
:103570004FF0FF3161EB0503002BD1DB214B1A68C3
:103580005B6819EB020243EB05036FF00108B8EB2F
:10359000020861EB030341461A46B8F1010F73F1CB
:1035A000000301DA0121002221616261FFF75AFF65
:1035B0000028CCD00269466921696369914273EBA6
:1035C000060CBADB891A63EB060321616361FFF71E
:1035D00053FFEDE70C4B5A682360626014605C6037
:1035E000B7E7FFF761FF034618B1084A1269824244
:1035F000B3D000211846FEF7DFFDAEE7BDE8F88343
:10360000704700BF6802002028000020300800201A
:1036100070B50446FFF71AFC4FF02003EFF3118555
:1036200083F31288BFF36F8F284B1C6020E028487B
:1036300001684668891846EBE276016046609B1A8D
:10364000224A136000220023C4E90423204601F02B
:10365000E1F985F31188BFF36F8FA368204698477F
:103660004FF02003EFF3118583F31288BFF36F8FC0
:10367000FFF7F8FE044640B102694169134B1B682D
:10368000D817934270EB0101D1DA44B10F4B19689E
:10369000236962695B1A62EBE172236162610C4A21
:1036A0000A4E3068136851681B1841EBE0711360D3
:1036B000516000243460FFF7F7FE2146FEF77CFDE1
:1036C00085F31188BFF36F8F70BD00BF68080020BD
:1036D0006802002010B500234FF02002EFF31184A0
:1036E00082F31288BFF36F8F184619460CE0FEF77D
:1036F00097FD074A13685168C01841F1000184F32F
:103700001188BFF36F8F0123002BF0D010BD00BFD5
:1037100068020020034B00E01833034A9342FBD3B6
:10372000704700BF544B00006C4B000070B506465C
:10373000114B53F8204009E0404217E0EB68187045
:10374000EA68537843F0010353700834731C0A4A43
:1037500052F82330A3420DD965682368284698475C
:10376000002DF2D00028EBD00028E5DBFF28E5DDB6
:10377000FF20E3E770BD00BFB44E000010B50A4C57
:1037800023681BB101232360002010BD00F0D6F890
:103790000028F7D00138062803D8044B53F820003E
:1037A00010BD034810BD00BF6C080020C84E0000CB
:1037B000FE8FFFFFBFF34F8F0549064BCA6802F427
:1037C000E0621343CB60BFF34F8F00BFFDE700BF44
:1037D00000ED00E00400FA05F0B4094F094E0A4C70
:1037E0000A4A0B4D0B494FF0FE333B605268336081
:1037F000236000242B60C1F80045F0BC104700BFD7
:1038000000B4025004B4025008B40250300000204A
:103810000CB4025000A00250D0E90012014BC3E9E1
:10382000001270473000002010B5044630B16368C4
:10383000DB0602D500232360636010BD024B034802
:103840005B689847F3E700BF30000020E44E0000BB
:1038500068B143683BB1DB0607D5BFF35F8F002338
:1038600003601846704703487047034870476FF479
:10387000E0407047EA8FFFFFE98FFFFF10B5044675
:1038800020B1002211232260636010BD0148FFF7C0
:10389000A3FFF6E70C4F0000C0B14368A3B1DB06FD
:1038A00010D50122BFF35B8F50E8003F40E80021B4
:1038B0000029F9D1BFF35B8F012BF3D0BFF35F8FEA
:1038C0000020704703487047034870476FF4E0409A
:1038D000704700BFE98FFFFFEA8FFFFF70B5D0E9A7
:1038E0000023134C134DC4E90023D0E90263C4E95B
:1038F0000263114B086818604868586088689860CF
:10390000D1E90360D5F81411DE601861CB060DD53E
:103910000023C5E94433C5E96D3305F58870904748
:10392000236805F5DA70BDE87040184770BD00BF28
:1039300040000020880800205000002010B500F052
:1039400033F820B1032400F067F8204610BD00F0E2
:1039500035F890B900F0B0F890B90F4B1B681B0E0A
:10396000F02B08D10D4A0E4B12689A420AD0072458
:1039700000F01CF8E7E70624FAE70424204610BD0F
:103980000024F5E7012000F097F804460028F7D15D
:10399000044B1860D9E700BF28B9025024BA02507E
:1039A0000000E0200CBA0250002070470020704751
:1039B000014B1860704700BF04BA025010B511489F
:1039C00000F048F800B110BD0F4800F043F800289F
:1039D000F9D10E4C204600F03DF80028F3D10C4BF5
:1039E0000C481C6000F036F801460028EBD100F0CE
:1039F0002DF8044608B1204610BD00F03FF82046DF
:103A0000FAE700BF880000207C000020840000202E
:103A10008C0000208000002008B5084800F024F841
:103A2000074800F021F8074800F01EF8064800F0AB
:103A30001BF8BDE8084000F00BB800BF880000206C
:103A40007C000020840000208000002000207047BF
:103A5000704700BF08B5034B02681B6810689847A1
:103A6000002008BD4000002008B5034B02685B68D9
:103A700010689847002008BD4000002070B5094C30
:103A8000094D2069AB68984718B1084B08485B6836
:103A90009847084AEB68206900211160BDE8704032
:103AA000184700BF500000204000002030000020D8
:103AB000304F00008008002070B51A4D1A4E0446A1
:103AC000B26828699047F0B95CB1184C2368ABB173
:103AD000012B1AD0013B23602869F3689847002026
:103AE00070BD124C216839B9114B124A0120C3F83C
:103AF00000051368002BFCD101312160F3682869AF
:103B00009847002070BD0C4870BD0A4A1368002B0E
:103B1000FCD1074A6FF07E40C2F80035FFF748FF3E
:103B20002368D7E7500000204000002080080020D4
:103B300000A0025010B90250E98FFFFF7047024603
:103B400058B1436803F00303012B03D0032B07D1C3
:103B5000036843B10020906070476FF01500704714
:103B60006FF0150070476FF015007047034642680C
:103B700002F003028160032A03D1006800225A6028
:103B800070470020FAE70020704710B40C6854B169
:103B90008A684B689A4206DA013B9A4208D0531C65
:103BA0008B60A05402E08B6801338B6010BC7047BF
:103BB000531C8B600023A354F8E70FB400B583B007
:103BC00004A951F8040B0191FCF740FC03B05DF827
:103BD00004EB04B070470CB400B583B004AB53F8E9
:103BE000042B0193FCF742FC03B05DF804EB02B038
:103BF000704701F00703018B21F00701194301838E
:103C000070472DE9F04106460F469046816819B18C
:103C10000C4631B10C6804E00C4602E02346214614
:103C20001C4659B14D6843463A463046A847002CD9
:103C3000F4D02346002CF2D02368F0E7BDE8F081F1
:103C4000038B13F0070303D102680AB10320704706
:103C5000022B03D0012B06D000207047428B002A94
:103C6000F8D10420704703680BB10520704700208D
:103C7000704710B504468C46038B002A07DB03F01F
:103C800007035A1F012A0ED9042B33D010BDD0E9E7
:103C900000018CE8030000232360636001212046BB
:103CA000FFF7A7FFF2E7D0E900018CE8030000224C
:103CB00022606260062B18D1DCF800303BB1628BC9
:103CC00001326283002BF9D01B68002BF6D1022150
:103CD0002046FFF78EFF2046FFF7B2FF0028D5D021
:103CE000238B43F020032383D0E700212046FFF7F6
:103CF00080FFF0E70021FFF77CFF2046FFF7A0FFE1
:103D00000028C3D0238B43F020032383BEE758B1A0
:103D100010B50C4659B1081DFFF711FF18B9A3687B
:103D200033F0030306D110BD6FF0150070476FF03C
:103D30001500F8E76FF01500F5E72DE9F0410746AB
:103D40000C4616461D461946201DFFF70FFF28B1E9
:103D500080462B46324621463846C047BDE8F081B2
:103D60002DE9F04180460C4617461E4604E03346D6
:103D70003A464046FFF7E1FF216831B10D68256002
:103D800063688B42F3D16560F1E7BDE8F08108B567
:103D90004FF0200CEFF311828CF31288BFF36F8F7A
:103DA00041610121FCF778FB08BD034670B181B188
:103DB0000A688AB14A6892B1002018605860986019
:103DC000D860186158619861196170476FF01500EB
:103DD00070476FF0150070476FF0150070476FF077
:103DE00015007047F8B504460F46FFF790FF061E12
:103DF00037DB4FF02003EFF3118283F31288BFF318
:103E00006F8F258B05F00705638B4FF6FF718B4293
:103E10002FD02E46022D0CD08DB1042D0FD0062DA3
:103E20000DD0052D1FD06FF0040600210B4608466B
:103E30000AE00133638301210023184604E0B5FA48
:103E400085F35B090021012028B1002038606068FB
:103E5000A8B107606760ABB982F31188BFF36F8FB9
:103E6000A9B93046F8BD6FF0850600210B4608461B
:103E7000EAE76FF00A0600210B460846E4E76760B0
:103E80002760E8E702212046FCF706FBE9E700236C
:103E90002A4639462046FFF750FFE2E708B50446B8
:103EA000084611461A46A047FFF794FAFDF70AFDA7
:103EB00084460268002005E000EB8000013203EB3D
:103EC000400030381378A3F130010929F4D9CCF837
:103ED000002070472DE9F04F83B004460D46019253
:103EE0009A460C9ED378A3F1410B6F2B0FD006D9C5
:103EF000702B0FD0782B10D14FF0100926E0582BE3
:103F000002D04FF00A0921E04FF010091EE04FF0F7
:103F100008091BE04FF0100918E04FF00A0915E0FE
:103F2000BBF1190F21D8D2B23732D2B206F8012D27
:103F30003A46434620462946FCF7E2F8BC4275F172
:103F4000000316D3564514D904460D464FF0000819
:103F50004F464A46434620462946FCF7D1F8092AEF
:103F6000DED8D2B23032D2B2E0E7D2B25732D2B2D9
:103F7000DCE7019B1B7813F0200F05D0B9F1080F87
:103F800006D0B9F1100F09D0304603B0BDE8F08F6C
:103F9000019A937843F008039370F5E7019A9378B8
:103FA00043F010039370EFE72DE9F04107460E460A
:103FB00014469846002506E0314614F8010BB84730
:103FC000002809DB01354445F6D3B8F1000F02D1D2
:103FD0002378002BF0D12846BDE8F08170470022FD
:103FE000026042608260704708B50020FCF772FFF3
:103FF00008B500F059FB08BD08B501460068FFF799
:10400000F7FF08BD08B500210120FFF7F1FF08BD4B
:1040100008B5FDF7B3F9FDF7A9FA08BD0020704710
:1040200000230B70704708B500231370CB1E092BBB
:104030001AD8DFE803F005090D1119191919191417
:104040001146FDF723FB10E00021FDF7D9FA0CE043
:104050000021FDF799FA08E0FDF7C0FA05E01146E6
:10406000FFF7DEFF002000E0002008BD43685A1E75
:10407000134206D11F2B06D903681A4205D000202F
:1040800070470020704700207047012070470728C4
:1040900005D810B50446FDF74BFC204610BD6FF067
:1040A0001500704700B585B00B6801934B688A68AE
:1040B000202B12D9B3F1004F11D8013BB3FA83F38F
:1040C000C3F11F035B0003F03E031343039301A9F5
:1040D000FFF7DDFF05B05DF804FB0823F5E73E239D
:1040E000F3E72DE9F84380460F469946164600252A
:1040F00009E02146F0B2FFF7D5FF064610F1160F92
:1041000014D001360135BD4210DA05EB450408EB49
:1041100084046268002AF5D0B9F1000FE9D0204686
:10412000FFF7A4FF0028E4D16FF015063046BDE884
:10413000F88308B5FDF710FC08BD08B5FDF716FCBF
:1041400008BD0346A2B110B40C782CB103F8014BA2
:104150000131013A002AF7D122B1002103F8011BF5
:10416000013AF9E710BC7047002103F8011B013A3E
:10417000002AF9D170470346002001E001330130E5
:104180001A78002AFAD170470346002001E0013373
:1041900001301A780AB18842F9D3704780EA0103E6
:1041A00013F0030F01D0034623E0034613F0030F7F
:1041B0000FD00AB311F801CB03F801CB013AF5E7B0
:1041C00011F801CB03F801CB013A002AF8D110BC59
:1041D0007047032A0DD910B451F8044B43F8044B2F
:1041E000043A032AF8D8F0E711F801CB03F801CB21
:1041F000013A002AF8D1704770475FFA81FC034604
:1042000002E003F801CB013A13F0030F02D0002AB9
:10421000F7D10FE0C9B241EA012141EA0141032A85
:1042200006D943F8041B043AF9E703F801CB013A35
:10423000002AFAD1704784B004AB03E907009DF867
:104240000430062B01D004B070474FF080430122A8
:10425000C3F80025BFF34F8F20BFFDE784B004AB48
:1042600003E90700002383F31188BFF36F8F04B0C5
:104270007047006901EB41018900383108447047FB
:10428000406800EBC10070470069C1EBC10100EB61
:104290008100704708B5C9B2FFF7EBFF806800F0F6
:1042A000070008BD4FF02003EFF3118283F312885B
:1042B000BFF36F8F036813F0C00301D08B4207D1A7
:1042C00001230360002082F31188BFF36F8F7047D2
:1042D0004FF0FF30F7E74FF02003EFF3118283F345
:1042E0001288BFF36F8F036803F0C00C03F007035D
:1042F000012B08D08C4509D04FF0FF3082F3118894
:10430000BFF36F8F704701600020F7E76FF0770011
:10431000F4E74FF02003EFF3118283F31288BFF329
:104320006F8F036803F0C00343F00203036082F35E
:104330001188BFF36F8F7047F8B506460C46FFF73C
:1043400098FF05684768002340F8083BFFF7E1FF46
:104350001DB13A4621463046A847F8BD70B506461D
:104360001546CCB22146FFF784FF29460830FFF7F7
:1043700099FF002806DB21463046FFF781FF43689E
:104380009847002070BD08B58022FFF7E7FF08BD01
:104390002DE9F041064690461F46CDB22946FFF76B
:1043A00068FF044606990830FFF795FF002809DBEF
:1043B000C4F80080676029463046FFF761FF036854
:1043C00098470020BDE8F08110B582B080240094A9
:1043D000FFF7DEFF02B010BD10B51446C9B2FFF7FB
:1043E00053FF0021A04710BD08B5012000F027F9B8
:1043F00008BD08B5002000F022F908BD08B501206D
:10440000FEF71CF808BD08B50020FEF717F808BD38
:1044100008B51046FEF7D0FB08BD7047401A20F0E3
:104420007F40704700F150039B009BB203F1804333
:1044300003F5883300221A601B68704720F07F4024
:1044400070474FF02003EFF3118083F31288BFF31E
:104450006F8F704780F31188BFF36F8F7047F8B587
:10446000064621F07F45FDF79FFC074619E0132023
:1044700000F04BFB22E03046FFF7D4FF3046FDF75B
:104480009BFC29463046FDF785FCFDF7A9FC8442DC
:104490001ED0811C2846FFF7C1FFB0F5000F17D9C9
:1044A0002F46FDF79DFC044601463046FDF772FCA1
:1044B00021463846FFF7B2FF0128D8D0A71C39465D
:1044C0002846FFF7ABFFB0F5000FD4D93D46D2E741
:1044D0002846F8BDF0B583B0044617461D46FDF7E3
:1044E00085FC0646099B0193089B00933A462B46A0
:1044F0002046FDF76BFD054631462046FDF7DAFC08
:10450000284603B0F0BD08B50020FDF795FA08B5C0
:10451000FFF734F908BD10B50446FCF70DFEFCF7B3
:10452000C9FE2046FFF7F3FF10BD4FF08053D3F8CC
:104530003031082B01D000207047012070474FF028
:104540008053D3F83031082B01D000207047012070
:1045500070474FF08053D3F83021D3F83431082A14
:1045600001D000207047002B04D8DFE803F00100E1
:1045700001207047002070474FF08053D3F830215E
:10458000D3F83431082A01D000207047002B04D81A
:10459000DFE803F0010001207047002070474FF072
:1045A0008053D3F83021D3F83431082A01D00020C9
:1045B0007047002B04D8DFE803F0010001207047AA
:1045C000002070474FF08053D3F83021D3F83431B6
:1045D000082A01D000207047002B04D8DFE803F040
:1045E000010001207047002070474FF08053D3F83E
:1045F0003031082B01D000207047012070474FF068
:104600008053D3F83021D3F83431082A01D0002068
:104610007047042B01D8002070470120704708B56F
:10462000804708BD08B500F070FA08BD08B5002045
:10463000FCF780FE00B108BDFCF76EFEFBE710B191
:10464000012825D070474FF08042D2F8183403F08B
:104650000303D2F8182412F4803F11D14FF08043A5
:104660000022C3F818254FF080430022C3F804212C
:10467000D3F804210222C3F8042301229A60704770
:10468000012BEBD14FF080430122C3F81825EAE754
:104690004FF080430022C3F80021D3F8002101220B
:1046A000C3F804231A607047F8B505460E464FF06C
:1046B0002003EFF3118783F31288BFF36F8FFEF7A8
:1046C00089FE044631462846FFF71DFF87F311880F
:1046D000BFF36F8F2046FDF7F5F8F8BDC268036998
:1046E0001A4312F003020DD10021416105E0416936
:1046F00019604361C1680B44013281689142F6D868
:10470000002070476FF01500704710B504468360B5
:10471000C260016100238361FFF7E0FF002801DB35
:104720002460646010BDF8B504460D464FF02003C8
:10473000EFF3118683F31288BFF36F8F436963B180
:104740002B6862691A602B686361A369013BA361EE
:1047500086F31188BFF36F8FF8BD00F1080700F0F2
:104760002AF90028ECD02A680021C0F8AC10426178
:1047700000F081F831463846FEF7C8FAECE710B48D
:10478000073222F0070202F1200301F12004C0F8F1
:104790009840C0F89C200022C0F8A020C81810BC87
:1047A0007047EFF30580003818BF0120704708B547
:1047B000FEF7E2FB08BD10B400248460037342736B
:1047C0008173C4738461C46110BC704708B5FCF781
:1047D00095FBFFF722FE08BD884200DA014611F181
:1047E0007F0F01DB084670476FF07E00704708B509
:1047F000806890F90E308B4201D1002008BDFEF791
:1048000009FCFBE7034600209860D8601B605B60F2
:104810007047002070478068704790F90E3091F91A
:104820000E00834201D0C01A70470020704708B5BF
:10483000034620B9EFF3058242B9012200E00022CD
:1048400032B983F31188BFF36F8F08BD0022F7E7F9
:104850001846FCF7B3FDF8E74A680B6813605A6026
:1048600000230B604B60704703460068834200D012
:1048700070470020FCE738B5044600234FF02002C3
:10488000EFF3118582F31288BFF36F8F04E085F395
:104890001188BFF36F8F012343B92046FFF7B9FF9B
:1048A0000028F4D12046FEF727FBF0E738BD70B5AD
:1048B0000446A0F1180500234FF02002EFF3118603
:1048C00082F31288BFF36F8F11E014F80B3C03F0F2
:1048D000FB0304F80B3C23F0100304F80B3C2846C0
:1048E000FEF70AFB86F31188BFF36F8F0123ABB984
:1048F00014F80B3C13F0280FF4D154F8103C002BA3
:10490000E3D02846FFF787FF2946FFF7A5FF6B7B1B
:1049100023F002036B730023AB60D6E770BD70B564
:1049200005460E46FEF746FB6B7B43F002036B73B6
:10493000B6B1AE603468A64219D064B121462846AB
:10494000FFF76BFF00280CDC2CB173689C4202D08F
:104950002468002CF1D173682E606B601D60756057
:1049600070BD63686B602C601D606560F8E70024B3
:10497000E3E72DE9F84305460E46914698460024A4
:104980004FF02003EFF3118783F31288BFF36F8F8B
:1049900008E031462846FFF7C2FF87F31188BFF3CE
:1049A0006F8F0124002CF4D04A4643462846FEF778
:1049B0004FF9BDE8F88370B5054600234FF020029B
:1049C000EFF3118682F31288BFF36F8F1C4604E069
:1049D00086F31188BFF36F8F0123ABB92846FFF729
:1049E00043FF04460028F3D0FFF715FF2146FFF7E9
:1049F00033FF637B23F0020363730023A36004F19E
:104A0000180000F01EF8E3E7204670BD031D436068
:104A10008360704710B50446FEF72EFD48B102468C
:104A20002069616913691B18506941EB000113612A
:104A300051616268236813605A60002323606360D9
:104A400010BD70B5044600234FF02002EFF311862D
:104A500082F31288BFF36F8F6FF0150004E086F3C6
:104A60001188BFF36F8F01231D463BB92368002BCC
:104A7000F5D02046FFF7CEFF2846F0E770BD10B511
:104A800000234FF02002EFF3118482F31288BFF36A
:104A90006F8F4FF0FF3006E0FEF706FD84F31188BC
:104AA000BFF36F8F0123002BF6D010BDF8B505467C
:104AB0000F4600234FF02002EFF3118682F3128895
:104AC000BFF36F8F0AE0012404F00104012800DD28
:104AD0007CB986F31188BFF36F8F01231C467BB925
:104AE000FEF7E2FCB0F1FF3FEDD0A842ECDB012481
:104AF000EAE73946A842A8BF2846FDF75DFBE8E78C
:104B0000F8BD08B5FEF7E6FD08BD00B9704708B569
:0C4B1000FCF7A8FF08BD7047FDF7A6BB2E
:084B1C0014B6FF7F0100000048
:104B2400111A000000000000F51B0000544B0000A7
:104B3400AD270000000000000F4500000000000049
:104B44006D20000000000000174500000000000078
:104B5400604E0000804E0000684E0000900000206F
:084B6400C4070020284D0000E9
:104B6C00492500001F460000000000000540000021
:104B7C00000000000540000000000000054000009F
:104B8C00000000000540000000000000054000008F
:104B9C00000000000540000000000000054000007F
:104BAC00000000000540000000000000054000006F
:104BBC00000000000540000000000000054000005F
:104BCC00000000000540000000000000054000004F
:104BDC00000000000540000000000000054000003F
:104BEC0000000000054000000000000075210000DE
:104BFC00000000000540000000000000054000001F
:104C0C00000000000540000000000000054000000E
:104C1C0000000000054000000000000005400000FE
:104C2C0000000000054000000000000005400000EE
:104C3C0000000000054000000000000005400000DE
:104C4C0000000000054000000000000005400000CE
:104C5C0000000000054000000000000005400000BE
:104C6C0000000000054000000000000005400000AE
:104C7C00000000000540000000000000054000009E
:104C8C00000000000540000000000000054000008E
:104C9C00000000000540000000000000054000007E
:104CAC00000000000540000000000000054000006E
:104CBC00000000000540000000000000054000005E
:104CCC00000000000540000000000000054000004E
:104CDC00000000000540000000000000054000003E
:104CEC00040000000D00000001000000080000009E
:104CFC002800000060000000700000000D000000A3
:104D0C000C0000000E0000005000000074000000B9
:0C4D1C00A8000000FFFFFFFFFFFFFFFFEB
:064D280000800080FF7F07
:024D2E00FFFF85
:104D30000338FDD8704700006D795F626F6172645F
:104D40005F31000048656C6C6F20576F726C642196
:104D50002025730A00000000456E74657220746897
:104D6000652042697374210A00000000286E696C96
:104D7000290000004661696C656420746F207265CB
:104D8000626F6F743A207370696E6E696E6720652A
:104D90006E646C6573736C792E2E2E0A0000000011
:104DA00000000000E93F00006D757465785F696E72
:104DB00069742063616C6C65642077697468204E47
:104DC000554C4C20706172616D6574657200000015
:104DD000436F756C64206E6F7420616C6C6F6361DF
:104DE0007465206D75746578206265666F726520E4
:104DF000696E697469616C697A696E6700000000A8
:104E000041120000F5110000991100004911000045
:104E10001C000020040000201400002000000000FE
:104E20000C000020000000200000000000000B0625
:104E3000464C4153485F30005352414D5F300000B3
:104E400002000000484E000000000000304E00004C
:104E50002600020700000020384E000022000B113F
:104E6000434C4F434B000000BD1B00008743000034
:104E7000C94300000000000095420000000000004F
:104E8000251B00008D1B0000F343000007440000B9
:104E9000BD1A00009D1A000000000000F5FFFFFF92
:104EA00069646C6520253032640000006D61696EB4
:104EB00000000000244B0000444B00004C4B00005D
:104EC000544B0000544B0000FF8FFFFFFF8FFFFF8C
:104ED000FE8FFFFFFE8FFFFFFD8FFFFFFC8FFFFFA9
:104EE000FC8FFFFF6D757465785F66726565206382
:104EF000616C6C65642077697468204E554C4C2059
:104F0000706172616D6574657200000043616E27A7
:104F10007420696E697469616C697A65206D757455
:104F200065782C20776173204E554C4C0D0A00009B
:104F3000436F756C64206E6F74206C6F636B2070B0
:104F40006F7765722073617665206D757465780082
:104F5000873B00009400002001000000A800002012
:104F600001000000BC00002001000000D000002073
:104F7000010000000090D00328000020280000203D
:104F800000000000B537000070080020110000008C
:104F90007D380000293800009938000051380000A1
:104FA00074000020380000206C0000200000000089
:104FB0006400002074080020110000007808002020
:104FC000110000007C0800201100000054000020A7
:104FD00060000020580000205000002084000020C5
:044FE00000000000CD
:104FE4009400002094000020000000000000000055
:104FF4000E000000A8000020A8000020000000000F
:10500400000000000E000000BC000020BC000020D6
:1050140000000000000000000E000000D00000208E
:10502400D000002000000000000000000E0000007E
:04000003000017F5ED
:00000001FF
