:1000000080260020652E00008D680000392E00003B
:10001000392E0000392E0000392E000000000000AB
:100020000000000000000000000000006D2700003C
:10003000392E00000000000019270000392E0000B2
:100040001D2800001D2800001D2800001D2800009C
:100050001D2800001D2800001D2800001D2800008C
:100060001D2800001D2800001D2800001D2800007C
:100070001D2800001D2800001D2800001D2800006C
:100080001D2800001D2800001D2800001D2800005C
:100090001D2800001D2800001D2800001D2800004C
:1000A0001D2800001D2800001D2800001D2800003C
:1000B0001D2800001D2800001D2800001D2800002C
:1000C0001D2800001D2800001D2800001D2800001C
:1000D0001D2800001D2800001D2800001D2800000C
:1000E0001D2800001D2800001D2800001D280000FC
:1000F0001D2800001D2800001D2800001D280000EC
:1001000053B94AB9002908BF00281CBF4FF0FF317E
:100110004FF0FF3000F00CB8ADF1080C6DE904CEE3
:1001200000F008F8DDF804E0DDE9022304B07047D0
:10013000704700BF2DE9F04786468C460846089E6A
:10014000154674461946002B40F0C2808542B2FA2B
:1001500082F245D94AB1C2F1200300FA02FC2EFA1C
:1001600003F3954043EA0C0C94404FEA154EA8B2B5
:10017000BCFBFEF8230C0EFB18CC08FB00F943EA8D
:100180000C43994528D9EB1808F1FF3704D299455B
:1001900002D9A8F102072B44A3EB0903A4B2B3FBD5
:1001A000FEFC0EFB1C330CFB00F044EA0344A042AF
:1001B00014D92C190CF1FF3304D2A04202D9ACF1AE
:1001C00002032C44241A43EA07401EB1D440002302
:1001D00034607360BDE8F0874746DDE76346F1E7CA
:1001E00092BB431B01214FEA154EAFB2B3FBFEFC9D
:1001F000200C0EFB1C330CFB07F840EA0343984528
:1002000062D9EB180CF1FF3004D2984502D9ACF159
:1002100002002B44A3EB0803A4B2B3FBFEFC0EFBCD
:100220001C330CFB07F744EA0344A7424ED92C19B0
:100230000CF1FF3304D2A74202D9ACF102032C44E3
:10024000E41B43EA0040C0E7C2F1200320FA03F1B7
:10025000954090402EFA03F303434FEA154EAFB298
:10026000B1FBFEFC0EFB1C10190C0CFB07F841EA5D
:100270000041884504FA02F422D969180CF1FF30D4
:1002800004D2884502D9ACF102002944A1EB08014F
:100290009BB2B1FBFEFC0EFB1C110CFB07F743EA03
:1002A00001439F420ED9EB180CF1FF3104D29F425B
:1002B00002D9ACF102012B44DB1B41EA004192E779
:1002C0006046E3E76146F7E76046A3E76346B7E7C2
:1002D000834206D916B9002108467BE7C6E900E04B
:1002E000F9E7B3FA83F78FB9834201D3724508D88F
:1002F000BEEB020460EB030301209C461EB9002103
:1003000068E73846FAE7C6E9004CF8E7C7F1200C81
:10031000BB4022FA0CF41C432EFA0CF120FA0CF329
:10032000B84001434FEA14490EFA07F5B3FBF9F858
:100330001FFA84FE09FB18300B0C08FB0EFA43EA87
:1003400000439A4502FA07F240D9E31808F1FF305A
:1003500004D29A4502D9A8F102002344A3EB0A0370
:1003600089B2B3FBF9F809FB183308FB0EFE41EA2A
:1003700003418E452CD9611808F1FF3304D28E4514
:1003800002D9A8F10203214443EA0040A0FB0298ED
:10039000A1EB0E014145CE46434602D306D14D4561
:1003A00004D2B9EB020E68EB04030138002EA6D08C
:1003B000B5EB0E0261EB030101FA0CFC22FA07F324
:1003C0004CEA0303F940C6E9003198E74046C5E727
:1003D0004346D9E708B50849084805F022FE00F071
:1003E00011F84FF42030002105F02EF9BDE8084047
:1003F000034805F016BE00BF3C76000047760000BB
:100400005876000010B50A4C0A4805F00AFE20682C
:1004100083685B690BB100219847606883685B69FA
:100420000BB100219847BDE81040034805F0F9BD25
:100430000000002063760000747600002DE9F04F84
:1004400091B08407009302F004030293C2F3C20345
:1004500003F10103DDF86880039205460E4605931B
:1004600040F0BE81041D30B1072909D86FF01B0090
:1004700011B0BDE8F08F01F00706341DC6F1080683
:10048000009B4FF00009591E4FF0040A4FF0FF3354
:100490000193CDF810904F46CB4653460DB1009ACC
:1004A00022600598002800F3EB809A48009A824267
:1004B00003D399488242C0F0E380039AA4EB050E6F
:1004C00092074FEA9E0000F106810F2F00F2B480E0
:1004D000002D00F0088107F140020DEB020C019A9B
:1004E0000CF8200C0CF8102C049801300490EAE071
:1004F0007A2860D84B280ED847285CD829282FD8CE
:10050000252855D057D820287DD02338D0F1000B8E
:100510004BEB000B77E0A0F14C0CBCF12E0F4AD84E
:10052000DFE80CF071494949494949494949494974
:100530004C49494949494949495A494C4C5A5A5ADE
:10054000714C6E497149184C18494983804C49498E
:100550004C49800000204FF0000B4FF0040A39E0B6
:10056000A0F12A0C5FFA8CFC012202FA0CFC1CEAB6
:100570000E0F48D11CF062502ED11CEA020B42D063
:10058000013C5444CAF1000C04EA0C04002D61D073
:10059000A3EB050CA444B4453FF668AF002868D12E
:1005A000042B47D158F8043B2360043404232AE089
:1005B000019A013A01924FF0000B24E011F8010C6E
:1005C0006C2834D111F8023C00206C2B8346C4D136
:1005D0004FF0080A5346D3E708F1070828F0070848
:1005E0000734F8E802AB24F0070435B1069820443C
:1005F000B0423FF63BAFC4E900AB08344FF0000B0C
:100600004FF0080A534611F8010F002878D0BBF1CB
:10061000000F7FF46DAF2528F5D1019B01330193C5
:100620004FF0010B4FF0040AECE7584693E7002027
:100630008346A5E7082B02D06FF0150018E708F1F4
:10064000070828F00708F8E80223C4E90023083463
:100650000823D8E768B9042B02D108F10408A4E7FD
:10066000082BE9D108F1070828F0070808F1080865
:10067000EDE7059A013A059258F8042B00920DE730
:10068000039A900720D5A4EB050E4FEA9E004FF089
:10069000010CBEF5007FCFD20F2FCDD8F5B107F1F9
:1006A00040020DEB020EC0B2019A0EF8200C0EF8BB
:1006B000102CBCF1000F3FF417AF60F07F000EF874
:1006C000200C09F101090137C5F108020434069232
:1006D0004FF6DA7E97E74FF0000CDAE7BCF1000F37
:1006E00001D00136EFE7029802360028EBD10098DE
:1006F000CDE9063106F0DEF8DDE906310644E2E731
:10070000631BB3F5806F97D245B9A6F10804E018D2
:10071000AEE600BF9070000074800000029A28606E
:100720009B082B709DF81030C2B1EB7085F80290D9
:10073000B9F1000F05D008A80022C5F1010C9742BD
:100740000ED1C5F101030DF120084FF0000A01930D
:100750000DF1300B574512D1601B89E66B70E5E750
:1007600010F8013B190608D504EB0C0EB64503F052
:100770007F033FF67BAE04F8013B0132DFE7B9F1BE
:10078000000F03D098F90020002A17DB029BD3B199
:100790001AF80B2004F8012B0022019B9818204422
:1007A000B0423FF663AE98F8000004F8010B0099E0
:1007B0000392204606F08EF8039A14440AF1010AC7
:1007C00008F10108C6E798F8002055F82230009398
:1007D000029B45F82230009806F06CF8421CDCE7DA
:1007E0006FF00D0044E600BF2DE9F04F95B000AF6B
:1007F0000446D7F878B0BB61CBF3C0037A623B61A3
:10080000396251B903784678807800EB8300204440
:100810000D46AE421AD8031B3B6294F80290E3786F
:100820007B614E46B9F1000F02D01BF0010F16D1CB
:100830007B6953BB7B6A1BB1BA69396A204698470A
:100840003D6A28465437BD46BDE8F08F00F10108E7
:10085000404606F02FF8013040440135D9E794F8BE
:1008600000A06368FB617B6A4FEA8A02FA6004EBCE
:100870008A0A002B40F001813D6AD04609EB0A0349
:10088000002643454ED1CA4413E01BF0020FD1D0DD
:1008900094F800A04FEA8A03FB606368FB617B6AFF
:1008A00004EB8A0A002B78D13D6AB9F1000F4ED1D2
:1008B0004E461BF0050F0CBF022301237B627B69B0
:1008C0000AEB43090BF002033B62CA45B9D01AF8A0
:1008D000021B1AF8013C54F82380AD4B984502D313
:1008E000AC4B984539D33B69002B43D0F86905F0F0
:1008F0005EFB00283ED0E8468AB06A46A64B5361AC
:10090000FB69C2E906314FF400731384A34B42F82C
:10091000103FA34800234FF4125101F0C7F8023DE5
:10092000C546D2E718F8012B7B6254F8220005F087
:10093000C1FFFA6F7B6A01303AB1D7F88020964246
:100940003EBFFA6F22F816000136054499E71BF006
:1009500004061CBF7E6ACA44ABE73B6923B1F86951
:1009600005F025FB0028C6D11BF0010F05D17B6ADD
:10097000ED1AAAE73B6A002BA7D0404605F09AFF84
:10098000FB6F43B1D7F880309E423FBFFA6F431CE4
:1009900022F816300136054497E7B9F1000F71D0FF
:1009A0001BF0040671D0C846002607F140004A46F5
:1009B000514605F08FFF7B695B00BB607B69CA44D1
:1009C0000AEB43037B610BF002037B607B699A4572
:1009D0005DD12378FB6163781BF0020F06EB030205
:1009E0000CBF4FEA580100211BF0010FD2B240F0BA
:1009F0009D801BF0040F14BF4046002094F802B005
:100A000094F803A03B616270A070E170BA69F96864
:100A10007B6A20469847051EFFF613AFFB692370DB
:100A20003B6963704146BA697B6A84F802B084F816
:100A300003A007F140009847B0F10008C0F2A3807E
:100A40003B6ABA697869A3EB0901FB68C91ABB68FC
:100A5000C91A7B6A98470028C0F29780A84408EB1F
:100A600000054FF0000B07F1300AB34560DB0021B1
:100A7000BA697B6A08469847E3E64FF0000807F139
:100A8000300094E74E46C84695E7B04693E71AF81B
:100A9000021B3F4A1AF8015C54F82530934202D3F6
:100AA0003C4A93421CD33B6923B1F86905F07FFAB5
:100AB00000288BD17B68F3B908F1280207F12800E0
:100AC000024408F1010302F8101C07F1500252FA27
:100AD00083F308F102085FFA88F803F8105C75E701
:100AE0003B692BB1F86905F062FA00287FF46EAF1C
:100AF0001BF0010F09D006F1280207F12801731C31
:100B0000561806F8205CDEB260E71BF0040F3FF4D5
:100B10005DAF08F1280207F1280108F1010302EB9B
:100B2000010808F8105C5FFA83F84FE7002065E7DA
:100B30001BF80A3087F82F3054F82390FB6FFBB175
:100B400033F81B80BA697B6A012107F12F009847AF
:100B500000281ADB0544B8F1000F06D1484605F01D
:100B6000A9FE00F101081FFA88F8BA697B6A4146BC
:100B700048469847002808DB05440BF1010B74E751
:100B8000D7F87C80DEE745465BE6054659E600BFC0
:100B90009070000074800000847600000400000162
:100BA0004C730000014B1860704700BF0800002024
:100BB00030B587B00025CDE903010446009503A9AF
:100BC0000548059500F018F9DDE904309842B8BFF2
:100BD000255407B030BD00BFFD5F00002DE9F04790
:100BE000058B04462807904611D4022905F0070515
:100BF00040F0CD80204605F038FA78B10138218BDD
:100C0000042811D8DFE800F0C3106D859500012994
:100C10000CBF45F0100545F02005258388F31188A9
:100C2000BFF36F8FBDE8F08701F0070AAA4500F017
:100C3000A6800027B9463E46A368002B00F0BD8081
:100C400041F00801218388F31188BFF36F8FA168F9
:100C5000002900F0BB800D68002900F0B780D1F8B2
:100C60000480334652462046C047002D76D02B687C
:100C700029461D46F0E701F007035A1F012A1BD839
:100C8000002221F00701062B276889B2C4E900225F
:100C900009D13B4603E0628B013262831B68002B63
:100CA000F9D141F002012183204605F0DEF9002848
:100CB0007BD041F0200177E0042B0AD121F007011D
:100CC00089B22183204605F0D0F910B141F020010E
:100CD0002183218B01F0070AAA4550D00027B9468D
:100CE000AAE7236921F0070141F00601062DD3F898
:100CF000009021832DD1B9F1000F40D041F00801BF
:100D0000218388F31188BFF36F8F3A492046C84783
:100D100029E021F00701236941F0040189B2042D83
:100D2000D3F804902183E6D000273E464FF0040A12
:100D300082E721F00701236941F0050189B2052D01
:100D4000D3F808902183D6D000273E464FF0050AFD
:100D500072E700273E464FF0060A6DE72B4687E70D
:100D6000B9F1000FD1D14FF02003EFF3118883F3D5
:100D70001288BFF36F8F238B23F008032383258B07
:100D8000EA062ED525F01003238305F007056669D2
:100D9000218B002EBFF66FAF00232768C4E9003314
:100DA00021F0070141F001012183218B01F0070AA5
:100DB000AA454FF000097FF43FAF002F9BD041F0D0
:100DC0000801218388F31188BFF36F8F002FC7D0EC
:100DD0003D68394633465246204605F072F92F46A3
:100DE000F4E7AB067FF51AAF25F02003238305F067
:100DF0000705FFE6EF6000002DE9F04F814695B052
:100E00008B4617461C460025387808B9284658E313
:100E10007B1C2528039306D05946C8470028C0F2FA
:100E200050830135FBE1182200210EA805F05DFD7D
:100E30007B78252B7DD00023781C98469E469C46C7
:100E40001E46014610F8012B2B2A00F0A18000F26B
:100E50009880202A00F09F80232A00F09F802BB1E9
:100E60009DF8403043F040038DF84030B8F1000F5A
:100E700005D09DF8403043F020038DF84030BEF19E
:100E8000000F05D09DF8403043F010038DF840303E
:100E9000BCF1000F05D09DF8403043F008038DF8F9
:100EA00040302EB19DF8403043F004038DF84030BF
:100EB0009DF8403003F04400442803D16FF38613BB
:100EC0008DF840309DF840302A2A43F080038DF899
:100ED00040307FD19DF8412042F001024B1C8DF83B
:100EE00041201A782E2A9DF841200CBF01210021B3
:100EF00061F341028DF8412078D15A782A2A6ED0C8
:100F0000013300224FF00A0C194611F8010BA0F131
:100F10003006092E40F295809DF840101292C1F3E0
:100F2000400040EAD2700A4660F341028DF840204A
:100F30005CE0BA1C03928DF843309DF84130DA072B
:100F400040F12E8154F8048BB8F1000F07DA9DF8B8
:100F5000402042F004028DF84020C8F100085E07EE
:100F600040F1278154F804ABBAF1000F80F22681DA
:100F70009DF841306FF341038DF841304FF0FF3A57
:100F80001CE12D2A0DD0302A7FF469AF012358E7E8
:100F90004FF0010C55E74FF0010E52E74FF00108FA
:100FA0004FE701264DE70EFB0262303A0346184632
:100FB00010F8016BA6F1300CBCF1090FF3D999427E
:100FC0008FD09DF840101192D20F62F341018DF83D
:100FD000401086E70B4600224FF00A0EE7E79DF827
:100FE000412042F004028DF8412002331A786C2A25
:100FF00047D02BD8682A31D06A2A4BD04C2A51D0FE
:101000001A4612F8013B0392782B9DF841208DF887
:10101000433000F2BE806D2B51D8692B00F2B980AD
:10102000572B67D8412B03D0453B022B00F2B180F0
:101030009DF84230042262F302038DF8423001230E
:1010400073E00CFB0202303A0B465DE7742A25D0B0
:101050007A2AD5D19DF8412006210CE05A78682AD9
:101060009DF8412006D1012161F3C6028DF841208F
:101070000233C5E7022161F3C6028DF84120013336
:10108000BEE75A786C2A9DF8412001D10421EBE794
:101090000321F0E79DF841200521ECE79DF8412070
:1010A0000721E8E7BDF8402022F4F04222F00202D6
:1010B00042F4804242F00202ADF84020DFE76E3B8E
:1010C000D9B201238B4040F282410B4237D113F059
:1010D000240F51D1D8075CD59DF84230032161F32C
:1010E00002038DF8423002F07803A3F140014B4235
:1010F0004B411AE0A3F15801C9B2012000FA01F1F5
:1011000011F4624F94D140F6010631421DD111F421
:10111000043F3ED09DF8423060F3020302F07802B3
:10112000402A8DF8423034D000239DF84020C2F38D
:1011300040010B4363F341028DF84020FDE69DF82A
:101140004230022161F30203E8E79DF842100220D9
:1011500002F0780260F30201402A8DF8421002BFCB
:101160009DF8401041F001018DF84010632BDBD158
:10117000131E18BF0123D8E79DF84230032161F305
:10118000020312F0780F8DF8423014BF01230023C0
:10119000CBE79DF8403043F001038DF84030C3E7C2
:1011A0009DF94020002AB4BFDDF844804FF0FF389D
:1011B000D5E698077FF5E2AEDDF848A09DF841102E
:1011C0000023CDE911339DF8423003F00703012BD2
:1011D000C1F3C30133D1CB1E042B04D8DFE803F0E5
:1011E000214646212100236801294FEAE372CDE917
:1011F0000E321CD19DF93830DA17CDE90E320434A5
:101200009DF8403013F0030650D0039B3A465946F0
:10121000484605F06EF80028C0F253810544039F4C
:10122000F2E554F8043BDA17CDE90E32E8E702297B
:10123000E5D11AB243F3C033CDE90E23DFE7022B29
:1012400024D1CB1E042B04D8DFE803F018101018AB
:101250001800012954F8043B4FF0000214D0022971
:10126000CDE90E32CCD19BB20E93C9E7073424F0FE
:101270000704F4E80223CDE90E23C1E754F8043B48
:101280000E9300230F93BBE7DBB2CDE7042B08D10D
:10129000073424F00704D4E900230834CDE90E23F1
:1012A000AEE7032BACD154F8043BDDE79DF84300D7
:1012B0007828B4D862281CD825283FF4ADAD58282A
:1012C000ADD10DF136030093DDE90E0108AB10AA94
:1012D00004F0C9FFBAF1000F074680F29A80002F90
:1012E0009DD00DF13603D81B002E00F0C1800130D7
:1012F000BEE06338152892D801A252F820F000BF52
:10130000D5130000E71300001F1200001F12000099
:101310001F1200001F120000E71300001F12000040
:101320001F1200001F1200001F12000075140000A1
:101330000D140000331400001F1200001F120000E3
:10134000591300001F1200000D1400001F120000AE
:101350001F1200000D140000BAF1000F0E9F35DBC4
:101360005146384605F0ADFA07EB000A002F3FF46E
:1013700056AF00269DF8423013F01002059200F09F
:10138000938002305B06119A48BF129B049210446E
:1013900048BFC018B8F1000F40F3A0809DF840206E
:1013A000A8EB0008C2F380035007069300F1968073
:1013B000510640F189803EB159463046C847002861
:1013C0007FDB069B01351E4630227EE0384605F065
:1013D00071FAC9E70E9B8DF82030002608AF0DF199
:1013E000210A0120C6E719075CBFC3F300135E01A1
:1013F000DDE90E2348BF2B26002BBFF662AF524219
:1014000063EB4303CDE90E232D265AE7002658E768
:1014100000269DF840200DF13603DB1B6FF386128A
:101420009A458DF840207FF65AAFAAEB030311933B
:1014300055E70E9890B30DF13603009310AA08AB50
:10144000002104F010FFBDF8423003F0EF0343F435
:10145000F04343F01003BAF1000F0746ADF84230F5
:10146000D6DA00283FF4DBAE0DF13603181A002659
:101470009A467FE70E9B07293FF6D1AEDFE801F0E1
:101480000C04060C08080C0C1D70C8E61D80C6E68E
:10149000EA17C3E90052C2E61D60C0E62E4F0646B9
:1014A00007F1050A052065E71A0748BF013069E71B
:1014B0000793104606925946C8470028DDE90623DF
:1014C00004DA15B0BDE8F08F202243461946002902
:1014D00003F1FF33ECDC45446D1A98462EB15946B2
:1014E0003046C8470028ECDB01359DF84230DA066B
:1014F00001D41B0705D559463020C8470028E0DB3A
:101500000135059B33B19DF843005946C847002873
:10151000D7DB0135049E2E4405E059463020C847EC
:101520000028CEDB0135731B002BF6DC53463A4610
:101530005946484604F0DDFE0028C2DB0544A844B5
:10154000A8EB0503002B7FF76AAE59462020C84759
:101550000028B6DB0135F3E73877000008B54FF017
:101560002002EFF3118382F31288BFF36F8F01F033
:1015700001FE034804F055FD00F0CEFFFCE700BF7C
:101580003E77000002F064BD2DE9F047DFF8588097
:10159000044607464FF0010914B93846BDE8F08704
:1015A00094FAA4F5B5FA85F509FA05F32E0108EBCE
:1015B00005156FEA030A24EA03042B7B002BEBD00A
:1015C00058F806301B694BB9464404227368284614
:1015D000196807EA0A0700F055FADDE72846984738
:1015E0000028D9D1F0E700BFA473000030B510493E
:1015F000104889B0002205F01DFD0F4D0F49002253
:101600000023CDE9062300240E23CDE90334CDE9E0
:1016100001440B4B00944FF44072284603F0AAFBA0
:101620000849284605F0CEFB204609B030BD00BF72
:1016300049160000B0060020280200208015002076
:101640003119000067770000014803F0EDBC00BFCE
:10165000180200202DE9F04780461F480F4605F08C
:101660006FF80646002830D000252846BDE8F087F0
:10167000237B73B12368DB680BB12046984723684E
:101680001B69D3B9636804221968204600F0FAF98F
:10169000013610344C45EBD3B8F1000FE5D0002DE6
:1016A000E2D02846FFF770FF0546002FF7D0002153
:1016B0004FF4A47003F0C8FFF1E7204698470028D4
:1016C000E0D00AFA06F31D43E2E7044CDFF810907D
:1016D00005464FF0010ADDE720080020A473000052
:1016E000B4730000014B53F820007047DC73000016
:1016F00008B5034608462BB1044A136000F048FCC5
:10170000002008BD6FF01500FBE700BF0C000020B3
:1017100010B5044C237813B9034803F085FC01236A
:10172000237010BD401100201802002010B504469F
:10173000084805F005F85CB1BFF35B8F064B53E832
:10174000001F013943E80012002AF8D1BFF35B8F74
:1017500010BD00BF180800201C0800200020064B08
:10176000BFF35B8F014653E8000F43E80012002AE5
:10177000F9D1BFF35B8F70471808002070B5FFF7F1
:10178000EDFF084C084E0546B44200D370BD6368B7
:101790005B792BB123685B6813B1294620469847D3
:1017A0001034F1E7A4730000B473000010B5044CCA
:1017B0000449204604F061FE034B1C6010BD00BFCD
:1017C00078010020C87300001008002008B5074AFF
:1017D000074800231370074A4FF400411360FFF7D6
:1017E00087FFBDE80840FFF7E1BF00BF41110020BF
:1017F0003D67000018080020014600220148002330
:1018000004F05CBE78010020014804F0F5BE00BF82
:1018100078010020024B0146186804F03DBF00BF6C
:1018200010080020014804F06BBF00BF78010020C1
:1018300070B5284B187800284BD0FFF7E5FF054618
:1018400090B1BFF35B8F244B53E8001F013943E88D
:101850000012002AF8D1BFF35B8F204C204EB44217
:101860002DD32846FFF7D6FF1E4B1F4C1B68002BBD
:1018700019DD05F0D9FB4FF47A72A0FB020302FBDD
:101880000131C30BD4E9002043EA41439B1A4FEADC
:10189000D13140F2E93261EB0001934271F1000174
:1018A00001D3FFF76BFFD4E9003213F57A7342F1ED
:1018B0000002C4E90032BDE87040FFF7B3BF6368BF
:1018C0005B7923B1236829461B682046984710346A
:1018D000C5E770BD401100201C080020A473000063
:1018E000B473000018080020A806002070B50D4D44
:1018F000297861B90120FFF7ADFE0B4C0B4EB442C5
:1019000006D3FFF795FF0028FBD101232B7070BD94
:1019100063685B791BB1236820469B689847103445
:10192000EDE700BF41110020A4730000B473000074
:1019300000212DE9F0470846FFF78CFE044648B326
:1019400040F267684FF0000903F098FE1A4B1860E8
:1019500030B11A4B1B68092B02DD194803F064FBF8
:10196000184FDFF85CA0002544B12046FFF70CFEBD
:10197000044618B94FF0FF384FF0FF39FFF758FF12
:10198000064628B9B5B942464B46504603F06CFBB3
:101990003546E9E74FF0FF384FF0FF39D4E72B68C1
:1019A0009B691BB100221146284698471035BD425D
:1019B000F5D3E8E7044DFAE7140800201C080020DE
:1019C00018020020B4730000A473000013B5184877
:1019D00004F0B6FE174B1B787BB14FF02003EFF3FA
:1019E000118483F31288BFF36F8FFFF721FF84F315
:1019F0001188BFF36F8F02B010BD0F4B1B68002B17
:101A0000F9D050B900220023CDE900230B484FF450
:101A10000042002304F05CF8EDE70A28EBD1074808
:101A200005F014FB064802B0BDE8104003F0FCBA14
:101A30001C0800204111002014080020B0060020DE
:101A40001802002010B5064B1B6804469847214633
:101A5000A060044804F0B0FDBDE81040FFF7B6BF39
:101A60000C00002078010020044A054B9B1AB1EBC2
:101A7000D30F34BF52F83100002070473C73000090
:101A8000A4730000084BC31A10B41B11446801333F
:101A9000237143689A7143681960436801225A713F
:101AA00010BCFFF735BE00BFA47300002DE9F04F56
:101AB0008FB0C1F3CB44C1F3492605900D46904643
:101AC00099461734002E3CD04FF0040B09AF4FF06D
:101AD0000A0A002231460BABCDF808B00197CDF8C9
:101AE00000A04046CDE90B220D920796FEF77CFE42
:101AF000C0F30903181920F0070080081E4663F39D
:101B000052250693FFF778FE044678B1069B0C93A6
:101B1000103000220B900D92CDE9017B0C4A079901
:101B2000CDF800A00BAB4046FEF75EFE66F35225F3
:101B300005994B462A4620460FB0BDE8F04F04F009
:101B400035BE24F007008008FFF756FE0446EDE797
:101B5000816700002DE9F04F87B0DDE91269DDE90A
:101B6000105A04460F4693469846B6B31021CDF856
:101B70000090334652460020CDF81490FEF75EFCEC
:101B80000146174B039104F007040BF0070BE40028
:101B900003EA412305F1170044EA8B141C4308446F
:101BA000104B20F0070003EAC54380081C43FFF7F1
:101BB00023FE054640B13EB10399CDF8009033466F
:101BC00052461030FEF73AFC434622463946284634
:101BD00007B0BDE8F04F04F0E9BD3146D1E700BFE2
:101BE00000FE07000000F87F0EB403B503AB01460A
:101BF00053F8042B0448019304F0FFFD02B05DF894
:101C000004EB03B0704700BF23680000CA0605D488
:101C10008B064CBF02490349FFF7E6BF704700BF80
:101C20007D7700007C7700002DE9F04F89B09B465E
:101C30009DF848300493DDE913930593049B0692C5
:101C4000DDE9157604460D46002B00F0878006F08E
:101C50000803079304F092FD06F0020A02460028EA
:101C60004BD086492046FFF7BFFF8046BAF1000FF0
:101C700008D016F0440F42D181492A462046FFF78A
:101C8000B3FF804406F001035BB17E4B049A7E49AA
:101C900053F822207D4B2046002A08BF1A46FFF742
:101CA000A3FF06F00803002B55D0794B049A79491D
:101CB00053F822202046FFF797FF0546069B2BB1DD
:101CC00075491A462046FFF78FFF0544BBF1000F08
:101CD00005D072495A462046FFF786FF0544454421
:101CE000B9F1000F49D1002F4FD1F30700F1C080A7
:101CF00031462046FFF78AFFB4E08046B6E7684BDE
:101D000018680028BDD0674B4FF47A7E1B68B5FB7E
:101D1000F3F54FF46162B5FBF0F300FB1355B3FB31
:101D2000F2FA0EFB05F502FB1A323C21B5FBF0FC82
:101D3000B2FBF1F300FB1C5501FB13220EFB05F572
:101D40000092B5FBF0F55849CDE901C55246204651
:101D5000FFF74AFF95E706F00805AFE7BBF1010F73
:101D600006D1B9F1000F64D1002F7BD000250CE023
:101D7000B9F1000FF8D04D485CE04D484D494B4655
:101D8000224604F0E3F8002F68D0DFF82C91DFF84A
:101D90002CA1102F31462046B84628BF4FF010081E
:101DA000FFF734FF4FF0000B5D4545DC059B5146C6
:101DB0001A782046FFF718FF4FF0010B1BF0070FB2
:101DC00003D149462046FFF70FFFD8453BD9059B75
:101DD000514613F80B202046FFF706FF0BF1010BCD
:101DE000BBF1100FEAD1364920464FF0000BFFF748
:101DF000FBFE5A46059B9A5CA2F120015F2928BF91
:101E00002E2230492046FFF7EFFE0BF1010BBBF10C
:101E1000100F1DD01BF0070F03D149462046FFF7D6
:101E2000E3FED8455A46E5D849462046FFF7DCFE92
:101E3000EBE71F48049DA1E749462046FFF7D4FE83
:101E40000BF1010BB0E720492046FFF7CDFEC5E7B7
:101E5000059BB7EB0807434405939AD1049B002BDD
:101E60007FF443AF204609B0BDE8F04F04F0CCBC8E
:101E7000064A05492046FFF7B7FE39E78477000098
:101E800088770000EC7300006E7D00007F77000013
:101E900000740000AD770000B3770000B777000052
:101EA00028080020240800209177000059680000CD
:101EB00023680000FB670000C4770000BC770000C7
:101EC000C6770000C8770000C27700002DE9F04116
:101ED0000F884B688E6886B005460C469046C7F35F
:101EE00082175BB1134A9B1A43F3CF0100291FDB12
:101EF0002078C0F3C200FFF7B7FD03462146608893
:101F000051F8102B0097C2F34922002A01EB02047A
:101F1000C0F3CB0008BF0021CDE90308CDE90114CF
:101F2000002231462846FFF77FFE06B0BDE8F0816B
:101F30000023E3E73C73000073B542F20F738B425A
:101F400028BF0B4605680F4A04460521684604F081
:101F500075F863680C495B6806460B22284604F056
:101F60003FFC63683246694628465B6804F038FCEB
:101F7000636806495B681B22284604F031FC02B006
:101F800070BD00BFB57F0000E7770000CB77000091
:101F9000074A00210123904206D8064A01B90123CD
:101FA0001360054B1860704740085B000121F2E7A1
:101FB00040420F002408002028080020014B012285
:101FC0001A70704742110020014B002019607047C1
:101FD00040080020024B034801221A7004F014BC90
:101FE00043110020307400000148FFF7A5BF00BF77
:101FF0003074000010B5064B18680C46FFF772FBF2
:1020000021460346BDE8104002480F22184700BF92
:10201000400800203074000010B9074B187070475A
:10202000064B1B781BB141F2883004F0FFBFA4209F
:10203000002103F009BB00BF421100204311002022
:102040002DE9F843DFF874901D4F80460E460424B6
:1020500099F8005095B902F0FDFB284632464146FA
:1020600002F07AFB054602F0FFFBE5B101233B706D
:1020700099F8003073B93046BDE8F88332464146DE
:10208000002002F069FB0546EFE72046FFF7C4FF9A
:10209000651E2C46002002F0D3FB0028EBD03B78D5
:1020A000002BF2D1E7E73B78002BE4D0013C20463F
:1020B000FFF7B2FF3B78002BCAD1DCE743110020C9
:1020C000421100202DE9F84305464FF02003EFF3BD
:1020D000118683F31288BFF36F8F0E4B0E4F1C686F
:1020E000DFF838804FF00C092CB986F31188BFF364
:1020F0006F8FBDE8F883D4E90123002D18BF134684
:102100002BB198F8142009FB02F2B85C98472468B8
:10211000EAE700BF5C08002050080020300F0020D4
:1021200070B5194B1C7DBFF35B8F04F01F030122B8
:102130009A40164B610903EB8103D04353E8001F1B
:1021400001EA000543E80056002EF7D1BFF35B8F8C
:102150000A4213D00E4B0F4D8BB10C236343EA1888
:10216000E85C517804F0D9FB0020FFF7ABFF0C23AB
:102170005C432A1900232B51C2E9013370BD83F35C
:102180001188BFF36F8FEFE7300F00206408002045
:102190001B690000500800202DE9F041354B07462F
:1021A0001D7D4FF02003EFF3118883F31288BFF3F6
:1021B0006F8F0C24304B314E6C431A19195D002976
:1021C0004CD007CA06EB040C8CE8070000221A5515
:1021D00088F31188BFF36F8F0C236B43F218F05C08
:1021E000002839D07B1C10D0D2F808C0244C254AD6
:1021F0004FF400400021ECFB004100232046FDF796
:102200007FFF0121381A04F0EFFE03F05FF901208F
:10221000FFF758FFBFF35B8F1B4B6A0903EB820389
:1022200005F01F0101228A4053E8000F104343E8E4
:1022300000010029F8D1BFF35B8F144B3BB10C2395
:1022400003FB05F03318305C597804F05AFBFFF7B4
:1022500067FF03F04FF90120BDE8F08101462846F1
:1022600000F016F80028B3D007C8344484E807000B
:10227000AEE700BF300F00204408002050080020C7
:102280003F420F0040420F00640800200369000035
:102290002DE9F04F85B00E4603A900F043F81E4B20
:1022A000039DD3F800A0DFF87480431E1BB203EB3C
:1022B0004303044605EB83054FF400474FF0000B42
:1022C00024B9A146484605B0BDE8F08F6868144AB5
:1022D000C4465946E0FB07C100236046FDF710FFE6
:1022E0000190A8680E4AC4465946E0FB07C1002386
:1022F0006046FDF705FFBAF1FF3FA94601D08245D0
:1023000005D9731CDED0019B1844B042DAD9013CD8
:10231000A4B20C3DD4E700BF100000203F420F00E4
:1023200040420F0008B9024B0B600020704700BF0D
:1023300040740000014803F065BC00BF4074000019
:1023400038B5044618B90F4B0F485B689847616869
:10235000B1F5683F0FD0B1F5680F0CD00B4DA94215
:1023600009D011F4686107D00948214604F0FBFC4C
:1023700000232360656038BD2068142204F0B5FA9C
:10238000F8E700BF0C010020267800002C5F5CA954
:10239000680D002008B520B34368B3F5683F10D13D
:1023A00001220368BFF35B8F53E8001F002903D1AC
:1023B00043E800200028F7D1BFF35B8F0DD1002048
:1023C00008BD094A93420AD000684FF0FF324FF02F
:1023D000FF3302F073FD0028F1D00448F0E7044811
:1023E000EEE76FF4E040EBE72C5F5CA9E98FFFFFBD
:1023F000EA8FFFFF08B5D8B14368B3F5683F10D145
:1024000000220368BFF35B8F53E8001F012903D14B
:1024100043E800200028F7D1BFF35B8F0BD10020E9
:1024200008BD074A934208D0006802F0C1FDF6E7F4
:102430006FF4E040F4E70348F2E70348F0E700BF39
:102440002C5F5CA9E98FFFFFEA8FFFFF10B5044600
:1024500018B91D4B1D485B6898476368B3F5683F22
:102460002FD0B3F5680F2CD0194A934219D12368A5
:1024700003BB18484FF0FF324FF0FF33214602F004
:1024800019FC08B923681BB90F4B13485B689847C0
:1024900020681422002104F028FA4FF46863636076
:1024A00008E0B3F5683F0DD83A2B03D040F6BA6286
:1024B0009342DED1206804F099FC636843F03A034C
:1024C000636010BD054AF3E70C0100202678000088
:1024D0002C5F5CA9680D00204C7800003A00003A9F
:1024E00008B5064906484023142204F02EFCBDE836
:1024F00008400449044803F0F7BB00BF6808002007
:10250000680D0020487400005C740000014910222E
:102510000A60704710ED00E072B6404080F3118809
:10252000BFF36F8FBFF34F8F30BF62B6BFF36F8FB4
:10253000704700BF72B6494081F3118820BF80F315
:10254000118862B6704700BF2DE9F047814600AFA1
:102550000C4600294CD06E468AB0D1E90012A3681F
:102560006D462748A8464FF0050AC5E90501C5E9AB
:10257000072348F810AF2348424600234FF4215167
:10258000FFF794FAB546D4E903126369AD461E48D5
:10259000C5F810A0C5E90501C5E9072319480023BE
:1025A00042464FF42151FFF781FAB54688B0E369FE
:1025B0006D46164AA8464FF0030AC5E9052348F8B8
:1025C00010AF1048002342464FF4C251FFF76EFA95
:1025D000B546A369AD460E4AC5F810A0C5E9052366
:1025E0000848002342464FF4C251FFF75FFAB54650
:1025F0002146484602F0DEF9BD46BDE8F08700BF3F
:10260000797800007C730000A8780000D77800007B
:10261000E678000040B2002807DB044A41090123A4
:1026200000F01F00834042F82130704700E100E0D5
:1026300040B200280CDB4309064900F01F0020339C
:102640000122824041F82320BFF34F8FBFF36F8FE9
:10265000704700BF00E100E0054B420900F01F0099
:1026600053F82220012303FA00F01040704700BF06
:1026700000E100E040B20028A8BF00F1604001F195
:102680000101B8BF064B4FEA4111ACBF00F56140F4
:1026900000F00F00C9B2B4BF195480F8001370479E
:1026A00014ED00E030BFFFF7FDBF00BF0B4A08B5D7
:1026B0000B4B22F07F029A60BFF34F8FBFF36F8FF7
:1026C000D3F8882022F47002C3F8882002F02CFA94
:1026D00003F03AF800F0BAFB02F06AFA00000000DA
:1026E00000ED00E0094A0A499368096899670949B9
:1026F00058674B6843F080534B60002383F3118885
:10270000BFF36F8F9368986F704700BF300F002042
:102710008475000000ED00E012498A684FF0300037
:102720001044EFF3098C80E8F01F202080F312881A
:10273000BFF36F8F0C4F4FF00066CA698A603E602E
:10274000506F0023536780F3118804B5104600F0E2
:1027500019FCBDE8044002F1300090E8F01F8CF352
:1027600009887047300F002004ED00E01EF0040FD0
:102770000CBFEFF30880EFF30980816911F8021CA8
:102780000229FFD001B504F079F801BD42F8203CE0
:10279000009B42F81C3C0A49019B42F8183C029BF2
:1027A00042F8143C21F001014FF0807342F8043CE0
:1027B00042F8081C0023203A02654367704700BFB7
:1027C00057600000094A0346906870B113F1160F74
:1027D000406E05D0A0F140029A4205D8834203D250
:1027E000814228BF0020704700207047300F002032
:1027F00008B5094B98600D46144600F0C3FB20460F
:1028000085F30988002163B681F31188BFF36F8FC8
:102810000022002303F01FFC300F002001B572B628
:102820000B4A906900281EBF0021916104F0CFFA85
:1028300062B6EFF30580A0F110004FEAC000054931
:10284000014409C99847BDE8014003490847000011
:10285000300F0020907100005D280000044B996843
:10286000D869884203D003494FF080520A6070470C
:10287000300F002004ED00E02DE9F04186B006465F
:1028800000AF0D463E4B7B6102244FF482513D4820
:102890003C6107F1100204F000F83B4B9B6AD9043D
:1028A00009D53A4B3748C7E9044307F110024FF402
:1028B000825103F0F2FF344B9B6A1A050AD5344B60
:1028C0007B6102232F483B6107F110024FF48251D4
:1028D00003F0E3FF2C4CA36A9B0522D5E8462D4B61
:1028E0007B61022327483B6107F110024FF48251BC
:1028F00003F0D3FFA36BA26A100412D588B06A4616
:1029000025492048C2E90513032342F8103F4FF43C
:10291000C25103F0C2FFC5461EB1A36A23F40043AF
:10292000A362194B9B6A59050AD51C4B7B61022394
:1029300014483B6107F110024FF4825103F0ADFFE0
:10294000114B9A6AD20515D5154B7B6102230D48B0
:102950003B6107F110024FF4825103F09EFF0A4AD7
:10296000936A002043F47F43183793622870BD4672
:10297000BDE8F0819B6A9B04F1D50A4BE5E700BFF7
:10298000147900007C73000000ED00E02A7900005B
:102990003B7900004E790000677900007C790000E7
:1029A00097790000AF79000010B586B0334B3448FA
:1029B0000593022404AA4FF48251049403F06DFF9E
:1029C000304B9B6A9B0108D52F4B2D4804AA4FF42E
:1029D0008251CDE9044303F060FF2A4B9B6ADC017E
:1029E00009D52A4B05932648022304AA4FF48251A5
:1029F000049303F052FF234B9B6A180309D5244B21
:102A000005931F48022304AA4FF48251049303F054
:102A100044FF1C4B9B6A590309D51E4B059318486C
:102A2000022304AA4FF48251049303F036FF154B9E
:102A30009B6A9A0309D5184B05931148022304AAEF
:102A40004FF48251049303F028FF0E4B9B6ADB0383
:102A500009D5124B05930A48022304AA4FF4825168
:102A6000049303F01AFF074A936A6FEA03436FEA7D
:102A700013430020936206B010BD00BFDE79000052
:102A80007C73000000ED00E0F6790000097A000098
:102A9000237A0000417A0000667A0000807A000004
:102AA0002DE9F04786B0804600AF0C4615464F4BE7
:102AB0007B6102264E483E6107F110024FF48251BD
:102AC00003F0EBFE4B4B9B6ADB0609D54A4B4848AB
:102AD000C7E9046307F110024FF4825103F0DDFEF1
:102AE000444B9B6A18070AD5444B7B61022340483C
:102AF0003B6107F110024FF4825103F0CEFEDFF884
:102B0000F4A0DAF82830990739D46FF01506394B5C
:102B10009B6ADB070AD53A4B7B61022334483B6151
:102B200007F110024FF4825103F0B7FE314B9B6A5C
:102B30009C060AD5334B7B6102232D483B6107F18C
:102B400010024FF4825103F0A8FE2A4CA36AD80663
:102B50003ED4A36A99073BD40020A36A254A9B066A
:102B600042BF636A23F400536362936A43F0FF0336
:102B70009362183700232B70BD46BDE8F087E94605
:102B8000214B7B6102233B6107F1100218484FF48F
:102B9000825103F082FEDAF83460DAF828301A063F
:102BA000B3D588B06A46194B1148C2E905360323EC
:102BB00042F8103F4FF4C25103F06FFECD46002C97
:102BC000A5D0DAF8283023F08003CAF828309EE731
:102BD00063681A05C0D541463046FFF7F3FD00286B
:102BE000BAD080F309880220B7E700BFAB7A0000B3
:102BF0007C73000000ED00E0C17A00003B7900002A
:102C0000227B0000AF790000F47A00000C7B00000A
:102C10002DE9F043774B8BB0D3F8048000AF054625
:102C2000C8F30804002686F31188BFF36F8F02F003
:102C30007F43B3F17F4F0ED102F00C03082B19D163
:102C40006D4BFB6102236D48BB6107F118024FF425
:102C5000825103F022FE002635460023FB71E31E5D
:102C6000092B00F2A680DFE803F00A999C95A4A442
:102C7000A4A4A49F10074CBF0D460126EDE7E9462A
:102C80005F4BFB614FF0020807F118025B48C7F881
:102C900018804FF4825103F000FE0023554CFB7165
:102CA000E36A9A070BD5574BC7E90683534807F1E8
:102CB00018024FF4825103F0F0FD002441E0E36A72
:102CC000002B01DA504BEFE7E36A5B00F5D54F4B81
:102CD0004A48C7E9068307F118024FF4825103F00E
:102CE000DCFD6369AA6943F480736361BFF34F8FAE
:102CF000BFF36F8F636932F8022C23F48073636132
:102D0000BFF34F8FBFF36F8F4DF602739A4208D017
:102D1000A36ADBB28BB3FA1D01212846FFF7C0FE80
:102D20003AE088B02B686A4639493448C2E905134D
:102D3000032342F8103F4FF4C25103F0AEFD2C685C
:102D4000CD46FB79ABB92022294607F1080003F0F4
:102D5000C1FD7B6A002E47D0C3F3080222B96FEA97
:102D600053236FEA43237B6207F108012046FFF7F4
:102D7000EBFB2C37BD46BDE8F083A36A13F47F4F0D
:102D800004D0F91D0120FFF777FD05E0A36AB3F534
:102D9000803F92D3FFF708FE0446D2E7FA1D0021D8
:102DA000BBE7F91D0020EEE71A4BFB610223BB6174
:102DB0007CE7194A194B18F4F87FE8468AB018BF27
:102DC00013466A4616490D48C2E905134FF40073CD
:102DD0001384103C134BD4614FF4115142F8103F4F
:102DE00003F05BFDC54668E723F4FF7323F001039E
:102DF000B9E700BF00ED00E06F7B00007C730000CE
:102E00009A7B0000B17B0000D27B0000E07B0000D9
:102E1000FF7B00001B7C0000567B0000417B000014
:102E20003F7C000004000001024A536943F0100394
:102E30005361704700ED00E0EFF30880EFF3098184
:102E400001B57246FFF7E4FE01BD00BF0448002350
:102E50002021C2180133302B82F80013F9D17047BA
:102E600000E100E0002080F31488BFF36F8FFEF7CD
:102E700089FB00200D490860BFF34F8F0C4880F399
:102E8000088800F02BF8202080F3118809484FF4BF
:102E90000461401880F30988EFF31480022108438D
:102EA00080F31488BFF36F8FFFF700FC94ED00E010
:102EB00080260020C01800200749D1F89020002368
:102EC000C2F307221846934200DB7047C1F89830DE
:102ED000C1F8A0000133F6E700ED00E008B572B6D6
:102EE000002383F31388FFF7E7FF144B4FF0FF3203
:102EF000C3F88020C3F88420C3F88820C3F88C204E
:102F0000C3F89020C3F89420C3F89820C3F89C20FD
:102F1000C3F88021C3F88421C3F88821C3F88C2129
:102F2000C3F89021C3F89421C3F89821C3F89C21D9
:102F300062B6BFF34F8FBFF36F8F08BD00E100E0B3
:102F4000084B9B6883420BD1EFF3058343B1064BDB
:102F50005A6842F080525A605A6A22F400425A6219
:102F600002F092BB300F002000ED00E0024B034A5C
:102F70000348012100F092B8000004200000002066
:102F80006C740000426E054B403A1A60044A4021BE
:102F9000C3E901121846012100F08AB8840D00200F
:102FA00000000B152DE9F041DFF8B4E09C4600AFBE
:102FB000154600238B421ADA4468002C4DD0BCF130
:102FC000000F1DD0661E344215D06C4688B06A468C
:102FD0002449C2E90513032342F8103F2248002385
:102FE0004FF4C251FEF762FD6FF01505A546284665
:102FF000BD46BDE8F0811F2CE7D902681642E4D136
:10300000202C026886685FFA85F814D9B4F1004F65
:1030100013D8013CB4FA84F4C4F11F046400B8F17D
:10302000070F46EA04060AD96C4688B06A460F4B79
:10303000C2E90535CFE70824F1E73E24EFE722F0A7
:103040001F022A4342F0100246F00106CEF89850C3
:10305000CEF89C200135CEF8A06001330C30A9E7F2
:1030600000ED00E0567C000074730000797C0000E5
:10307000044B0522C3F89420BFF34F8FBFF36F8F2B
:10308000704700BF00ED00E0BFF35F8F024B0022EE
:10309000C3F89420704700BF00ED00E010B5034C6A
:1030A00001232278FFF77EFF207010BD541100200D
:1030B00008B5094A00231278FFF774FF10F1160FC4
:1030C00003D0064B0022072800DD08BDC3F8980096
:1030D000C3F8A0200130F6E75411002000ED00E015
:1030E00014490868082810B521D8FFF7CDFF124C05
:1030F00049680022904201F10C0105D10F4B187074
:10310000FFF7B6FF002010BDC4F8982051F80C3C22
:1031100023F01F03134343F01003C4F89C3051F80D
:10312000043C43F00103C4F8A0300132E2E74FF061
:10313000FF30E8E77874000000ED00E05411002053
:10314000014B1860704700BF340000204FF0200290
:10315000EFF3118382F31288BFF36F8F044A0121CA
:10316000C2F8401583F31188BFF36F8F00207047BA
:1031700000E001404FF08043C0B2C3F81C05BFF32C
:103180004F8F0549054BCA6802F4E0621343CB60D8
:10319000BFF34F8F00BFFDE700ED00E00400FA052C
:1031A00020B1034B800143F001031847704700BF73
:1031B000C0730000084B70B5C31A0D4607499B1039
:1031C000044659430648402203F0C9FB2B460146FA
:1031D0002046BDE870401847A40D0020B76DDBB64F
:1031E0000071000073B50C4C0C4A4023041B009383
:1031F0000D460B460A49A41061430646094803F0F0
:10320000DAFB011E05DA30462B4602B0BDE87040FD
:10321000184702B070BD00BFA40D0020216A000055
:10322000B76DDBB600710000002270B501210446C5
:103230001046FFF71FFA0F4800F0EEFF0E4B9842C2
:1032400015D103F08AFC26690C49304602F05DFF77
:1032500000280BDB012535642469084904F11C00B2
:1032600002F053FF002801DBE564002070BD6FF021
:103270000400FBE7B53200000000AD0B98740000BD
:1032800070B501460C2309484B43C418D4E90E56C7
:1032900000224033A263184403F04EFB2DB13246A6
:1032A0002B460348BDE87040184770BDA40D0020B0
:1032B0000071000010B1012804D07047034B1B6C53
:1032C0005B0701D1FFF7DCBF704700BFA40D0020F2
:1032D00008B54FF02003EFF3118183F31288BFF399
:1032E0006F8F124A136843F002001060DA0708D4A7
:1032F00081F31188BFF36F8F0120BDE8084003F010
:1033000036BC4FF08043D3F80C24D3F80C34D307E9
:10331000EED5074803F010FB81F31188BFF36F8FE0
:103320000020BDE80840FFF7ABBF00BFF40D002050
:10333000E40D00201FB500220123CDE90223094A34
:10334000CDF800D06B46CDF804D003F062FB002826
:1033500005DB4FF480420023684601F085FE05B08E
:103360005DF804FB3F6A0000094BBFF35B8F53E835
:10337000002F22F0020143E800100028F7D1BFF32C
:103380005B8FD30702D4012000F056BF704700BF07
:10339000F40D0020024AC3B21C2003FB002070473A
:1033A000A40D00202DE9F0413849BFF35B8F07469B
:1033B000012251E8003F41E800200028F9D1BFF385
:1033C0005B8F33B9324933484B60CB608A6002F07F
:1033D000AFFE7B1E012B2BD8012F07D14FF080436E
:1033E000D3F81C3403F00303012B21D003F0E4FCD9
:1033F0000546F8B9284B1B78E3B14FF08043022211
:10340000C3F808230646DFF894804FF08044D4F8D0
:103410001834D4F81824D20316D503F00303012B73
:1034200001D0012F10D15DB386F31188BFF36F8FE8
:10343000BDE8F0814FF02003EFF3118683F312888B
:10344000BFF36F8F0125DEE7ADB13046FFF772F8AD
:10345000D4F81835002BDAD1D4F80421002AD6D0BC
:10346000C4F80431D4F804310123C4F81835C8F87D
:103470008031A360CBE70021212002F0E5F8E7E7E7
:103480004FF080430222C3F80423D1E7A00D0020AF
:10349000900D0020C00D00207615002000E100E016
:1034A00010B5044C2046FDF77DFB2046FFF748FE93
:1034B000002010BDB9340000F7B5134E8DF8070099
:1034C0000446032501F0C6F901220DF10701002091
:1034D00001F08AF9074601F0C7F927B101233370DB
:1034E000204603B0F0BD3378002BF9D0013D08D061
:1034F00003F062FC0028E5D10021422002F0A4F88C
:10350000E0E73570ECE700BF55110020014B0122C8
:103510001A60704700C000400C2903690BD15B6A38
:10352000064907484B4393FBF0F100FB1133116050
:103530005360002070476FF08500704790D0030003
:1035400040420F00044B00690022C3F80021D3F869
:10355000003101F069BD00BF00C000407FB50569C2
:10356000AB6A63B3392901D00C292BD105F11006C0
:103570004FF0FF324FF0FF33304601F09FFC134B0A
:103580000193A86A0323002469460394029302F07E
:10359000CFFD4FF0FF324FF0FF33284601F064FDBE
:1035A000A86A02F01DFE0A4BD3F808256A620122C0
:1035B0005A60304601F0FCFC204604B070BD6FF04C
:1035C0000A00FAE76FF08500F7E700BF0D3500004D
:1035D00000C0004010B504690020FFF7DBFEA062C8
:1035E0004FF0FF320021204603F007FC04F11000E9
:1035F00003F0FCFB002201210C20FFF73BF80C201C
:10360000FFF708F8024B0122C3F80423002010BD85
:1036100000C000402DE9F843436806695B6A00AFCB
:103620009847B4680125D6E9023203EBC2039C42F5
:1036300004D3304603F05CFA00201BE0206803F05E
:103640005FFBD0B92368196823796C468AB06A4653
:103650001B48D3614FF4007313841A4BC2E9050170
:10366000194842F8103F4FF4115103F008FA6FF077
:103670001200A546BD46BDE8F88320682179E3889D
:10368000D0F810E0D0F80890DEF800C0DA0754BF98
:1036900043F4B01383F4D01323F4801205FA01F835
:1036A000DB074CBF48EA0C032CEA0803CEF80030D5
:1036B000D9F8003098470028DCDB0834B3E700BFB6
:1036C000F37C000004000001947300007FB50469DE
:1036D0004668A56C236D8DB9002B37D11D4600229D
:1036E0001146204603F0E2F9256304F1200001F0C1
:1036F0009BFC002384F85C3004B070BD616C0BBB94
:1037000039BB4FF6FF72AA42636C009128BF2A466C
:10371000A2651BB1A36C002B18BF13460193E36C89
:1037200002931BB1236D002B18BF1346002269467C
:103730003046039300F042FF0D4B9842DCD06FF00F
:103740000405CCE79D4228BF1D46D9E7616C1D46A4
:10375000D7E701F06043B3F1005FD2D0082D28BF56
:103760000825206E2A4603F0B5F8216EC9E700BF90
:103770000000AD0B10B5037886B00C46002B54D179
:103780008B6C8A6D5BB19A421ED9294B05932948EF
:10379000022304AA4FF48251049303F070F9236DBD
:1037A000A26D5BB19A4227D9214B05932148022390
:1037B00004AA4FF48251049303F061F9606D06B0DE
:1037C000BDE81040FFF782BF9B1A8B6473B94B6B47
:1037D00008334B638B6B013B8B6301F1480204F1AF
:1037E0003400383103F038F96064D8E74B6C002BB3
:1037F000D5D013444B64D2E79B1A23657BB9E36BA6
:103800000833E363236C013B236404F1500204F1A9
:10381000400104F13C0003F01FF9E064CEE7E36CE3
:10382000002BCBD01344E364C8E706B010BD00BF43
:10383000177D0000947300002DE9F04F8BB09A467D
:103840008B88046900AF9B0480460E46BA6039D469
:103850004FF0FF324FF0FF3304F1100001F004FC91
:103860006660D8F80430D8F81090FB609B683B6025
:1038700099F85D307B6023B1D9F800309E4200F0AA
:10388000DC80B6F804C01CF4006F22D0A14B7B6230
:103890000223A1483B6207F120024FF482516FF0EE
:1038A000850503F0ECF823689B8813F4005304D1DA
:1038B000636004F1100001F0B7FB28462C37BD46C9
:1038C000BDE8F08FA369002BC2D163689942BFD1D4
:1038D000C7E71CF0010F16D06D4688B0D8F800304D
:1038E0006A468E498C48C2E905134FF400739383EE
:1038F0008B4B42F8103F4FF4E25103F0C0F8AD4655
:103900006FF01505CFE71CF0080F0BD0854B7B62DD
:10391000022381483B6207F120024FF4825103F0F9
:10392000AEF8EDE7CCF34513082B01D07E4BEEE764
:1039300035687E4B9D4201D87D4BE8E7FB6803F17B
:103940000C0BBBE80F0007F1100EAEE80F003B6850
:10395000AB4228BF2B461D469BE80300754B9D429A
:103960008EE803004BD9744B9D424BD9734B9D425B
:103970004BD9734B9D424BD9724B9D424BD9724BE5
:103980009D424BD3714B9D424BD3714B9D422CBFFB
:103990004FF0A0554FF020651CF0020FBD610CF0F8
:1039A000040341D0002B14BF032302233B777B6821
:1039B000CCF3001C87F81DC02BB1F86800F0B6FDF1
:1039C000002389F85D304B46624AF86807F1100120
:1039D00000F0B0FC604B98422AD06D4688B06A4631
:1039E0005E4BC2E90530032342F8103F4A484FF4CA
:1039F000C25103F044F8AD466FF0040553E74FF0B1
:103A00000075C9E74FF08065C6E74FF00065C3E772
:103A10004FF08055C0E74FF00055BDE74FF08045AF
:103A2000BAE74FF00045B7E7003B18BF0123BDE7F9
:103A3000012389F85D30C9F80060012384F85C3007
:103A4000BB68002B54D163630023A36304F14802D5
:103A500004F1380104F1340002F0FEFF6064BAF1B1
:103A6000000F4DD1C4F83CA00023236404F15002A0
:103A700004F1400104F13C0002F0EEFF0026324662
:103A8000E06401212046266303F010F84046FFF76A
:103A90001DFE256DA36CA0469D4238BF1D464FF408
:103AA000FA535D4358F8203B4FF4004C1B68B5FBBC
:103AB000F3F53146C83540F2E7304FF47A7200230F
:103AC000E5FB0C01FCF71CFB02460B46404601F0EF
:103AD000CBFAE8B1224B7B6202230F483B6207F12D
:103AE00020024FF4825102F0CAFF6FF07305DAE64C
:103AF000BB681B686363002BA6D0BB685B68A4E748
:103B0000DAF80030E363002BAED0DAF80430ACE72B
:103B1000256BC8E6357D0000947300004F7D0000E2
:103B200003000001717D0000907D000047E8010066
:103B3000BF7D00008FD003001FA107003F420F0090
:103B40007F841E00FF083D0000127A000024F4006C
:103B50000048E801753700000000AD0BF07D000063
:103B6000177E000070B5012383400E4ABFF35B8FC0
:103B7000DC4352E8001F01EA040542E80056002E2B
:103B8000F7D1BFF35B8F4FF4803282400648C0F814
:103B90000823BFF35F8FBFF36F8F0B4214BF012069
:103BA000002070BD280E002000100140F8B51B4910
:103BB000044622F07F450868C1E90023A5F50013FB
:103BC000101AB3F5400F0FD301F0A4FEA30003F1C8
:103BD000804303F58833D3F8402595421DD14FF437
:103BE0000002C3F8402512E00D4B1B681A0A1B06A1
:103BF0005E190C4B42F10007C3E9006701F08AFE31
:103C0000094A04F5A87352F823309D4205D1064AAB
:103C10004FF48033A340C2F84433F8BDF8060020C7
:103C20002C0E0020000700200010014011B3BFF34C
:103C30005B8F0123104A834052E800CF4CEA030C0B
:103C400042E800C10029F7D1BFF35B8F0B4A4FF464
:103C500080338340C2F80433094BBFF35B8F1B688A
:103C6000BFF35B8FC340DB0742BF064B4FF400320C
:103C7000C3F80021704700BF280E0020001001404B
:103C8000240E002000E100E00D4B1868010A000638
:103C9000BFF35F8F0B4BD3F80435181841F10001C7
:103CA000B3F5801F0AD2084BD3E90023904271EB91
:103CB000030303D210F1807041F10001704700BF8F
:103CC0002C0E002000100140000700202DE9F74FC6
:103CD00014461D460746FFF745FF0090FFF7D4FF47
:103CE000A04271EB05037AD2464B201A65EB010125
:103CF000984271F1000180F08180434B03EB071380
:103D0000D3E902239D4208BF944253D04FEA870A69
:103D10000AF1804A07F150090AF5883A4FEA890901
:103D20001FFA89F924F07F4809F180494FF4803364
:103D3000DAF84005354A09F58839BB404646D2F8DD
:103D400004B5A0EB0B0020F07F402BF07F41012851
:103D5000CAF8401505D10193132003F067F92B4AE7
:103D6000019B0BF1020CA6EB0C0020F07F40B0F59C
:103D7000000F88BF66460020C9F80000D9F800008F
:103D8000C2F8443326F07F40CAF84005D2F8040553
:103D9000834506D0301A023820F07F40B0F5000F7E
:103DA0001BD8A6EB080626F07F46361945F100031E
:103DB00034461D4614490C983B0101EB0712C850CC
:103DC0000D9B5360C2E90245002438460099FFF775
:103DD0002DFF204603B0BDE8F08F3046AFE701234A
:103DE0000B4ABFF35B8FBB4052E8000F184342E819
:103DF00000010029F8D1BFF35B8FDBE76FF01504FA
:103E0000E3E700BF01000001E806002000100140C8
:103E1000240E002073B5194B194D00244FF0FF30CC
:103E20004FF0FF31C5F80845C3E902014FF4803374
:103E3000C5F80433134B02264FF400320121C5F8B4
:103E400004631120C3F880212246FEF713FC1120E1
:103E5000FEF7E0FB0C4A0123AB602B6013600B4BB9
:103E60000B4A0093019400232046FFF72FFF3046B2
:103E7000FFF798FA204602B070BD00BFE8060020A8
:103E80000010014000E100E0280E0020AD3B0000E2
:103E9000FFFF7F002DE9F743334CD4F804339A0732
:103EA0000BD5D4F8043143B1304A0023C4F80431AF
:103EB000D4F804311368013313604FF02003EFF39B
:103EC000118283F31288BFF36F8FD4F80433DB03BE
:103ED00029D5BFF35B8F264B53E8001F21F001006B
:103EE00043E80005002DF7D1BFF35B8F11B9D4F87B
:103EF0004031C3B10025C4F84051D4F8403182F3B9
:103F00001188BFF36F8FFFF7BFFE4FF02003EFF371
:103F1000118283F31288BFF36F8F164BD3E90267C8
:103F2000B042B94106D282F31188BFF36F8F03B05C
:103F3000BDE8F0834FF0FF384FF0FF39D3E90010B0
:103F4000C3E902891D604FF48033C4F8483382F31B
:103F50001188BFF36F8F0029E9D0009032463B46AD
:103F600028468847E3E700BF001001402C0E0020E0
:103F7000240E0020E8060020431C13B521D00128A0
:103F800021DDB0F5000F20DA441EFFF77DFE104B57
:103F9000D3E90013421AB2F5000F0E4828BF0024DF
:103FA00001322244824228BF024652184FF00000DC
:103FB00009490190009143F10003FFF787FE02B029
:103FC00010BD0448E0E70024DFE7024CDDE700BF56
:103FD000F8060020FFFF7F00AD3B000008B5FFF7AB
:103FE00053FE024B1B68C01A08BD00BFF806002034
:103FF0007FB5FDF77BFC074B05930223049306482E
:10400000002304AA4FF48251FDF750FD0020FFF772
:10401000B1F800BF657E00005C7300004FF0805374
:10402000D3F83021082A06D1D3F83431052B02D831
:10403000024AD05C70470020704700BF887E0000B5
:10404000024AD2F80034002BFBD0704700E0014058
:1040500010B54FF08053D3F83021082A4ED14FF0DD
:1040600080420021C2F80C11C2F81011C2F83815B4
:1040700002F54042D3F80414C2F82015D3F808140E
:10408000C2F82415D3F80C14C2F82815D3F810146C
:10409000C2F82C15D3F81414C2F83015D3F818143C
:1040A000C2F83415D3F81C14C2F84015D3F8201404
:1040B000C2F84415D3F82414C2F84815D3F82814CC
:1040C000C2F84C15D3F82C14C2F85015D3F830149C
:1040D000C2F85415D3F83414C2F86015D3F8381464
:1040E000C2F86415D3F83C14C2F86815D3F840142C
:1040F000C2F86C15D3F84434C2F87035FFF78EFF60
:1041000018B13B4B3B4AC3F88C26FFF787FF18B129
:10411000394BFB22C3F81825FFF780FF70B14FF031
:1041200080414FF08053D1F8E42ED3F8583222F07A
:104130000F0203F00F031343C1F8E43EFFF76EFFD5
:1041400020B12E4B4FF40072C3F840264FF080533D
:10415000D3F83031082B1AD14FF08043D3F8002424
:10416000D20744BF6FF00102C3F800244FF0805320
:10417000D3F83431052B02D8214AD35C3BB14FF040
:104180001023D3F808224FF08043C3F858254FF08E
:104190001023D3F80022002A03DBD3F80432002BCB
:1041A00022DA184901234FF01020C1F804351224F7
:1041B000FFF746FFC0F80042FFF742FFC0F8044295
:1041C000FFF73EFF0023C1F80435FFF739FFBFF3C7
:1041D0004F8F0D490D4BCA6802F4E0621343CB6068
:1041E000BFF34F8F00BFFDE7094B0A4A1A6010BDAD
:1041F000005000404881030000F000400090024061
:10420000827E000000E0014000ED00E00400FA05BD
:10421000000100200090D003044B1A7922B901223A
:1042200018609A800248704702487047300E00209C
:104230000000AD0B0C00AD0B38B510B1012817D044
:1042400038BD4FF080440223C4F80833C4F8040199
:10425000D4F804310123E36042F21075D4F8183425
:10426000DB03EDD5012002F076FC013DF6D1E7E756
:104270004FF080440023C4F80803C4F80031D4F898
:104280000031606042F21075D4F80C34D4F80C247C
:10429000D20303F0010305D523B1012002F05BFC3A
:1042A000013DF1D1014B00225A71C9E7300E0020C7
:1042B00010B54FF08043D3F800216AB10022C3F853
:1042C0000021D3F800210122C3F80823114B5879AB
:1042D00010B95A711B6898474FF08043D3F80421F6
:1042E00072B10022C3F80421D3F80421D3F81824B2
:1042F000D3F81814920704D10122C3F818259A6044
:1043000010BD0222C3F80823024BBDE810401B6811
:1043100001201847300E0020036803F01F025B09DC
:10432000012B0260024818BF4FF0A040704700BF49
:10433000000300502DE9F347784D90F804C006467D
:1043400005EB4C104FEA4C17047F002C40F0E28044
:10435000BCF1010F00F2E080D1F808C0BCF1206F81
:1043600000F0DA80BCF1A05F00F0D68091F811C0B7
:10437000BCF1000F40F0D08091F80FC0BCF1FF0FEE
:1043800040F0CA80D6F80080EA51436091F813C02B
:10439000827F6CF30002827791F804C0D2B26CF392
:1043A0004102827791F811C0D2B26CF38202827717
:1043B000CB78C377CB7CD6F80090002B5ED18B688E
:1043C0000878B3F1A05F0B7B08BF0324012B00F238
:1043D000958002F013FC0B78019301A8FFF79CFF76
:1043E000019B240203F5E07344F0010240F823200E
:1043F0004878FF280DD002F001FC4B78019301A80A
:10440000FFF78AFF019B03F5E07344F0030240F8D5
:1044100023208B78FF2B0CD001A891F80EA00193DC
:10442000FFF77AFF019B03F5E07344EA8A0240F844
:104430002320C878FF2810D00B79002B61D002F020
:10444000DDFBCB78019301A8FFF766FF019B03F525
:10445000E07344F0030240F82320C87BFF280DD00E
:1044600002F0BFFBCB7B019301A8FFF755FF019B37
:1044700003F5E07344F0030440F823400B7D93B947
:104480004B780878FF2B18BF1A468B78C9F80805B7
:1044900008BF4FF0FF32FF2B08BF4FF0FF33C9F8C2
:1044A0000C25C9F810350B7CC8F860358B68C8F846
:1044B00024354B7B0A7B003B18BF0123022A23D003
:1044C000032A24D0012A01D143F00203C8F854354D
:1044D0008B79C8F8C0350723C8F80035EB5923B1EC
:1044E000306840F30730FEF795F8EB1900225A7751
:1044F0000B4801221A7702B0BDE8F08702F071FB89
:1045000069E702F06EFB9CE743F00403DEE743F04B
:104510000603DBE70348EEE70348ECE7380E00202C
:104520000000AD0B0500AD0B0300AD0BF8B5037932
:10453000204C05685E0104EB4317A359B3B145F362
:104540000730FEF775F81C4BC5F808337B7F6BB15D
:1045500001236B616427D5F8043123B9012002F0EF
:10456000FAFA013FF7D1A31900225A770023C5F8C0
:104570000035A3199B7FD80717D4D5F80805411C2F
:1045800001D002F020FBD5F81005421C01D002F04A
:104590001AFBD5F80C05431C01D002F014FBA3193B
:1045A000D87FFF2801D002F00EFB3444002323778C
:1045B000F8BD00BF380E0020520108002DE9F84375
:1045C000384F037907EB4318154698F81D208146AC
:1045D0000C465E01002A63D1BA592AB115F0140FB6
:1045E00004BF012288F81D2094E80F0007EB060C99
:1045F0000CF10C0C8CE80F000121404602F00BFB83
:104600002168D9F8003021B101F06042B2F1005FB9
:1046100006D1A26852B102F06042B2F1005F05D04B
:104620003E44002320487377BDE8F8836268C3F8EE
:104630004415C3F84825D4E90212C3F83415C3F869
:1046400038250022C3F81821D3F8182115F00102EB
:1046500018BF0122C3F8502515F0020218BF01222D
:10466000C3F840252A0707D5BA5972B90021404638
:1046700002F0D1FA0D48D7E701221A61BA5922B9DE
:10468000D3F81821002AFBD0F0E715F0040F4FF003
:10469000400202D0C3F80823ECE7C3F80423E9E79B
:1046A0000348C1E7380E00200A00AD0B0000AD0B37
:1046B0000B00AD0B064BD3F818213AB10022C3F81A
:1046C0001821D3F81831034802F0B5BA704700BF7B
:1046D00000300040380E00204FF04023D3F818215E
:1046E0003AB10022C3F81821D3F81831014802F07A
:1046F000A2BA7047580E002010B5114C114A124949
:10470000032323616361114BA261E3614FF4806372
:1047100023620023A3626362E36222660C4A62663C
:104720001022A266E01D2367E366636702F0B8F813
:104730000849204602F0B4F82023A37110BD00BF41
:10474000780E00208E7E0000977E000076110020FB
:10475000661100209B7E00002DE9F84F214F4FF09D
:10476000180B14460BFB00720646936A556AAB425F
:10477000884631D8D2F820A0AAEB050909F1FF320A
:10478000944211D8182306FB03333B442246586851
:104790004146284402F09EF82C44182303FB06737C
:1047A00001205C62BDE8F88F13449C4218D800FBDE
:1047B0000BBBBB444A46DBF804002C44284402F0FF
:1047C00089F8B4EB0A04E8D0DBF80400224608EBD1
:1047D000090102F07FF8E0E7013B5B1BA342D1D265
:1047E0000020DFE7780E0020F8B5144B182700FBF7
:1047F00007751D4407FB00330E46DB6A012B144688
:104800000AD0022B14D023B9284602F023FA84429E
:1048100008D900242046F8BD284602F01BFA84423D
:1048200028BF044622463146284602F01CFAF1E72A
:104830002846BDE8F84002F031BA00BF780E0020EB
:10484000034B182202FB00339A6A586A801A704799
:10485000780E002003484FF0FF324FF0FF3300F096
:104860002DBB00BFF0010020014800F0A1BB00BF3C
:10487000F00100207FB5074B0593022304930648FF
:10488000002304AA4FF48651FDF710F9002007B069
:104890005DF804FBA27E00003C7300007FB5074B6F
:1048A0000593022304930648002304AA4FF486517B
:1048B000FDF7FCF8002007B05DF804FBB27E0000B5
:1048C0003C7300007FB5074B059302230493064811
:1048D000002304AA4FF48651FDF7E8F8002007B042
:1048E0005DF804FBCD7E00003C7300007FB5074BF4
:1048F0000593022304930648002304AA4FF486512B
:10490000FDF7D4F8002007B05DF804FBFB7E000043
:104910003C7300007FB5074B0593022304930648C0
:10492000002304AA4FF48651FDF7C0F8002007B019
:104930005DF804FB387F0000447300007FB5074B2F
:104940000593022304930648002304AA4FF48651DA
:10495000FDF7ACF8002007B05DF804FBB27E000064
:10496000447300007FB5074B059302230493064868
:10497000002304AA4FF48651FDF798F8002007B0F1
:104980005DF804FB487F0000447300007FB5074BCF
:104990000593022304930648002304AA4FF486518A
:1049A000FDF784F8002007B05DF804FBFB7E0000F3
:1049B000447300002DE9F04786B0054600AF0E466F
:1049C0004FF02003EFF3118883F31288BFF36F8F4A
:1049D00000F054FE042D96BF2C4B2D4B53F8253080
:1049E000E9468AB004466A462A49D36140F2013357
:1049F00093844FF0000A284BC2F820A0C2E90515A5
:104A000042F8103F254853464FF43151FDF74EF818
:104A1000CD467EB1F369C3F308035BB1204B7B61E4
:104A200002233B611D48534607F110024FF48251A7
:104A3000FDF73CF82CB1204602F0C7F908B1037825
:104A400003B91848E9468AB06A46174BD061C2E9F3
:104A5000053440F201331384144B42F8103F002315
:104A60000E484FF41151FDF721F83146CD46284646
:104A7000FFF7BEFA88F31188BFF36F8F2046FEF769
:104A80005FFA1837BD46BDE8F08700BF88750000A3
:104A90007A7F0000907F0000050000017C73000019
:104AA000B87F0000887F0000D97F0000040000016B
:104AB0000F4B70B553F82040013053F82060A642E8
:104AC00000D870BDD4E90035284698476DB138B19B
:104AD0000028B8BF4042EB68FF28A8BFFF2018702D
:104AE000EA68537843F0010353700834E7E700BFE6
:104AF0009C75000008B50A4B012203201A70FFF7CD
:104B0000D7FF01F031F80420FFF7D2FF00F05EF983
:104B1000FBF760FC034A137B23F00103137308BD0A
:104B2000761500208807002008B50348034A0021B5
:104B3000121A02F0F0F808BD2802002078150020B3
:104B400070B5002386B00122CDE90423134E144D25
:104B500001930F22CDE902321249182303FB0055BD
:104B600006EBC01604464FF4C07000FB04110E4B58
:104B700000954FF4A072304600F0CAF8737B0B4AE0
:104B8000EE6023F0040373734FF4046304FB0333F8
:104B900013442C756B6006B070BD00BF0807002081
:104BA000300F002000210020854E0000C01800209A
:104BB00080B50020A6B0FFF77BFF2E4B83F308885B
:104BC0002D4D2E4E6B692E4F43F400736B61002404
:104BD000E02385F82230EC772C766C76AC7685F87D
:104BE00020406B6A43F4E0236B6285F82340FEF7B4
:104BF0001BF9FDF78BFC4FF0FF33AB62EB62FEF766
:104C00006FFAFEF7B3F9FCF7E1FD40F20113ADF8DE
:104C1000243006ABB360CDE91F44229402F06FF854
:104C20000120FFF745FF0220164DFFF741FF00F07E
:104C30007DFC154BF5610593012314490094CDE9E2
:104C400003434FF480623B46CDE90144284600F01F
:104C50005FF86A7B064622F0040228466A7302F077
:104C600034F92046FFF76CFF3A4631462846FDF7F7
:104C7000BFFD00BF0021002000ED00E0300F00204C
:104C8000F54A0000880700203B80000080220020B9
:104C900038B5064C064D0020AC4200D338BD204646
:104CA00002F03DF80028F9DB1C34F5E7B4010020E0
:104CB000B401002073B50C464FF02005EFF31181CD
:104CC00085F31288BFF36F8F45695DB125602B684E
:104CD0004361836901338361002081F31188BFF34D
:104CE0006F8F11E052EA030603D125606FF00B00CD
:104CF000F3E7CDE900230246083000F021FB18B9A4
:104D0000024B9B685B69236002B070BD300F0020CE
:104D10002DE9FF410E9E0673042646730D9E867391
:104D200000F158050F46D61DC0E916550C9A00250E
:104D300026F007064037C0E90655C0E919768560B8
:104D4000C573C56606F1400802920B9A0192884429
:104D50000A9A009242460446FDF718FD044B656529
:104D60009B6803B11B6F2367404604B0BDE8F08128
:104D7000300F0020F0B587B000250595109D0495F3
:104D80000F9D03950E9D0295DDE912760D9D01950F
:104D90000C9D00950446FFF7BBFFB6F1FF3F08BF2F
:104DA000B7F1FF3F05D056EA070305D1204600F0D2
:104DB0003DFB204607B0F0BD03493A46334604F1B7
:104DC000180000F029FDF4E7376E00002DE9F043EC
:104DD000294C2A4D87B02646AE4204F130040FD349
:104DE00000F074FB244CDFF898904FF4004640F23A
:104DF000E737AC4220D307B0BDE8F04300F07ABB00
:104E000054F8043C059354F8103C049354F8143CB3
:104E1000039354F8183C029354F81C3C019354F843
:104E2000203C009354E90A2354E90C01FFF770FF7A
:104E300054F8303C5E65CEE7636A5A1C0DD023EA15
:104E4000E37300213846C3FB060151EAC333D4F8AB
:104E5000008004D1404600F0E9FA3034C9E74FF44D
:104E60007A720023FBF74CF902460B4608F1180052
:104E7000494600F0D1FCF0E7107300001073000009
:104E8000376E000008B50B4C0B4D4FF02002EFF3CE
:104E9000118382F31288BFF36F8F02F095F82B789D
:104EA000A06113B9FDF738FBEFE7FDF775F90028AE
:104EB000EBD1F7E7300F0020761500202DE9F34104
:104EC000044617461E464FF02003EFF3118883F384
:104ED0001288BFF36F8FC368334A7BB180689168D3
:104EE000884219D057EA060318D188F31188BFF316
:104EF0006F8F6FF00F0002B0BDE8F081916891F9FB
:104F00000E1021610133E3609368A36088F3118878
:104F1000BFF36F8F0020EEE72169F2E791F90E10E1
:104F200090F90E309942A8BF19466FF07E02914267
:104F3000B8BF11468B422EDD01F050FF0546CDE98A
:104F400000761A482246414600F0FAF90028E1D0DE
:104F50004FF02003EFF3118683F31288BFF36F8FB6
:104F6000A068D0B1236821699C420AD04BB193F963
:104F70000E309942A8BF19466FF07E039942B8BF20
:104F8000194601F02BFF40B10848314600F03CFAC9
:104F90006FF00A00AFE70025D1E7002DF4D186F3CA
:104FA0001188BFF36F8FF3E7300F002077150020D3
:104FB00038B5836804466BB3194A926893422CD182
:104FC000C368012B03D9013BC360002038BD4FF0FB
:104FD0002003EFF3118583F31288BFF36F8F01690C
:104FE000806801F0FBFE204601F0A6FFA06058B1EA
:104FF00090F90E2022610022826701F066FF0948C5
:10500000294600F001FAE0E7E06085F31188BFF37C
:105010006F8FDAE76FF01500D8E74FF0FF30D5E774
:10502000300F00207715002038B504464FF02003DC
:10503000EFF3118583F31288BFF36F8F01F07CFFCC
:1050400048B10022826701F040FF29460548BDE8CB
:10505000384000F0D9B9D4E902329A4218BF01337E
:10506000A360F2E77715002013B54FF02004EFF3AB
:10507000118184F31288BFF36F8F846844B1013CBF
:10508000846081F31188BFF36F8F002002B010BDE0
:1050900052EA030406D181F31188BFF36F8F6FF0DA
:1050A0000F00F3E7CDE900230246024800F048F97B
:1050B000ECE700BF7715002038B5074D2C6854B1D8
:1050C000FEF78CFF054B04441C6128680021BDE8F5
:1050D000384001F089BF38BD600F0020300F00203C
:1050E00038B50D4D2B4653F8204F9C4200D004B9E3
:1050F000EC68AB6838B95A7BD20604D1A26912B900
:10510000DA897F2A05D89C4202D02046FFF7D4FFD7
:105110002346EB6138BD00BF300F002070B590F919
:105120000D20437B002A014604DA03F07F0343731A
:1051300001F06FFE4B7B154A63F07F0310464B7303
:1051400050F8203F546A834208BF002323B9C1E9C5
:105150000004216051620CE091F90E5093F90E6049
:10516000B5420ED0AE420CDD5868C1E90030016096
:1051700059609068431A5842BDE870405841FFF7A3
:10518000AFBF9C42E3D01B68E0E700BF300F0020B8
:1051900070B490F90D30427B002B29DBD30627D168
:1051A00083692BBB134962F07F0242730A4652F8AF
:1051B000204F944218BF23464C6A23B9C0E900240B
:1051C000206048620CE090F90E5093F90E60B542F1
:1051D0000AD0AE4208DD5A68C0E90032106058605B
:1051E00070BC0020FFF77CBFA342E7D01B68E4E758
:1051F00070BC7047300F002008B590F90D20437B3C
:10520000002A014604DA03F07F03437301F001FE34
:10521000044B9868431A58425841BDE80840FFF7CC
:105220005FBF00BF300F002070B515461C46064614
:1052300001F023FEB4F1FF3F08BFB5F1FF3F08D0F6
:105240002A46234606F118000249BDE8704000F0E6
:10525000E3BA70BD376E0000F8B504460D464FF056
:105260002003EFF3118783F31288BFF36F8F0026BB
:105270004FF4004C40F2E73031464FF47A7200238D
:10528000E4FB0C01FAF73CFFB44202DD0228B8BF90
:105290000220074A074B1060074A98681E61156094
:1052A000FFF70AFF87F31188BFF36F8FF8BD00BFC8
:1052B000600F0020300F00205C0F002038B54FF049
:1052C0002003EFF3118583F31288BFF36F8F174B21
:1052D000174A9C6811688C4207D12046FFF7ECFE04
:1052E00085F31188BFF36F8F38BD00211160114A1B
:1052F0001268C2B1E2897F2A15D8627BD20612D128
:105300000D4A94F90E10126891420CDB0B4A94423C
:1053100009D01A69824203DC2046FFF7FFFEDCE772
:10532000121A1A61DCE70022FBE700BF300F0020F1
:10533000580F0020600F00205C0F0020080700209D
:1053400070B50C480C4D86682E600C461146DDE9A0
:1053500004234FF02006EFF3118586F31288BFF384
:105360006F8F8068FFF760FF2046BDE87040FDF753
:10537000B9B900BF300F0020580F0020F8B504461F
:105380004FF02003EFF3118683F31288BFF36F8F82
:10539000437BDA0649B219D18569BDB903F07F03B1
:1053A000437301F036FD437B164A817363F07F033C
:1053B0004373134653F8200F984218BF0546506AAE
:1053C0005DB9C4E900300460546211E0A1730020AB
:1053D00086F31188BFF36F8FF8BD95F90E70B9424F
:1053E0000BD08F4209DD6B68C4E900531C606C6010
:1053F0000120FFF775FE0120EAE7A842E1D02D6801
:10540000DEE700BF300F002049B9EFF3058030B967
:10541000054BDA699B689A4201D0FDF763B981F3C5
:105420001188BFF36F8F7047300F002010B54FF019
:105430002002EFF3118482F31288BFF36F8F427B57
:10544000510704D484F31188BFF36F8F10BD22F08D
:1054500004024273FFF79CFE21460248BDE810405B
:10546000FFF7D2BF7715002070B50446183001F061
:1054700095FD4FF02003EFF3118683F31288BFF3FD
:105480006F8F94F90D20637B002A05DA03F07F0308
:105490006373204601F0BDFC0B4D637BA86843F0AD
:1054A00010036373031B58425841FFF719FE86F33C
:1054B0001188BFF36F8FAB68A34203D1BDE8704082
:1054C00001F062BD70BD00BF300F00204FF020031F
:1054D000EFF3118183F31288BFF36F8F044B9A6847
:1054E000D37B013BD37381F31188BFF36F8F704778
:1054F000300F002010B54FF02003EFF3118483F339
:105500001288BFF36F8F084B9A68D37B0133D37334
:105510000020FFF7E5FD84F31188BFF36F8FBDE82E
:10552000104001F031BD00BF300F0020044B0021BE
:1055300003F12002C3E908220846FFF78DBE00BF31
:10554000300F0020F8B54FF02003EFF3118583F3FF
:105550001288BFF36F8F19498868437B03F07F037C
:10556000437301F056FC8B685A7B084662F07F0259
:105570005A7350F8202F4C6A824208BF002222B989
:10558000C3E9000423604B620CE093F90E6092F9CA
:105590000E70BE420ED0B7420CDD5168C3E9002147
:1055A0000B6053600120FFF79BFD2846BDE8F840E3
:1055B000FDF798B8A242E3D01268E0E7300F002070
:1055C00050EA01032DE9F04105460E4603D1FFF7ED
:1055D000B9FF00202CE0831C71F1FF332ADB01F0BE
:1055E0001FFD44194FF02003EFF3118883F3128855
:1055F000BFF36F8F114F124BB8681860FFF7FCFDB7
:10560000B86810492A463346183000F005F9BA68E0
:10561000537B43F0100353734046FDF763F801F0EA
:10562000FFFC201A63EB0303012873F10003D0DBB6
:10563000BDE8F0816FF00104241AD3E7300F002099
:10564000580F0020376E0000B1F1FF3F08BFB0F1E6
:10565000FF3F08B506D1084B9868FFF705FF4FF0EC
:10566000FF3008BDFFF7ACFF4FF47A7380FB0303F4
:10567000C00B40EA4340F4E7300F0020014B98682C
:10568000704700BF300F00202DE9F04104464FF075
:105690002003EFF3118683F31288BFF36F8F037B30
:1056A000D9070BD586F31188BFF36F8F404080F385
:1056B00011884FF0040002DFBDE8F081437B1A0738
:1056C00004D586F31188BFF36F8FF5E723F020022E
:1056D00042F00801D20920D14173A36813B12046DA
:1056E00001F09FFB04F1180001F058FC04F1580789
:1056F0004FF00008A56DBD4200D0B5B90120FFF7FD
:10570000EFFC104B9B68A342DBD1EFF30583002B2A
:10571000D7D13046FCF7E6FFD3E703F05F0343F051
:105720000803437301F075FBD7E7284601F079FBC6
:1057300005F1180001F032FCC5F878802846FFF723
:1057400027FDD7E7300F002008B50648064A07496D
:10575000121A01F0E2FABDE80840054A0549064878
:1057600001F0DBBA00000020280200207480000055
:10577000000000007480000000000020034B1B6844
:105780000BB9FEF72BBC0020704700BF640F002050
:1057900010B5114B1C689C420AD1FFF7EFFF6FF068
:1057A00000400E4B1B6913B19842A8BF184610BDAC
:1057B000FFF7E4FF002CF2D0D4E904321B1A62EBAD
:1057C000E072B3F1004F72F10001E8DA002AACBFD9
:1057D00018460020E5E700BF04010020300F00203C
:1057E00030B570B10B4B5B6898420AD0036843B187
:1057F000D3E90421D0E90445121941EB0501C3E9BD
:105800000421D0E9003213605A600023C0E900335C
:1058100030BD00BF04010020B3F1FF3F08BFB2F16B
:10582000FF3FF8B504461D46164661D081604FF033
:105830002003EFF3118783F31288BFF36F8F0132D8
:1058400075F1FF3324DA3049D1E900206FF001030C
:105850009B1A4FF0FF3262EB00009E1B60EB0500CD
:10586000012E70F1000301DA01260020C4E9046072
:10587000264ED6F800C07568B44508BF4FF0000C3E
:10588000BCF1000F0DD1C4E900652C6074601CE010
:10589000FFF774FF013645F10005361845EBE0705F
:1058A000E4E7DCE90420D4E90431934271EB000E13
:1058B0001FDAD21ADCF8043060EB0100CCE90420D6
:1058C000C4E900C31C60CCF804403368B3420BD079
:1058D0009C4209D1FFF75CFF18B10D4B1B69834255
:1058E00002D00021FEF748FB87F31188BFF36F8FCA
:1058F000F8BD9B1A61EB0001AC45C4E90431C2D08C
:10590000DCF800C0BCE700BF08080020040100204C
:10591000300F00202DE9F8430446FFF7CFFC4FF08D
:105920002003EFF3118683F31288BFF36F8F234FA9
:10593000DFF88C80D8F80000224A3C604045D2E96C
:10594000003E4FEAE4710BD050B1D0E9045CAC42A8
:1059500071EB0C0916DA2D1B6CEB010CC0E9045C31
:10596000E3184EEB01010024C2E900313C60FFF76F
:105970000FFF2146FEF700FB86F31188BFF36F8F00
:10598000BDE8F883EB184EEBE571C2E90031002267
:105990000023C0E90423FFF723FF86F31188BFF338
:1059A0006F8F836898474FF02003EFF3118683F3DE
:1059B0001288BFF36F8F3C68641BBBE7640F002045
:1059C000040100200808002010B54FF02003EFF379
:1059D000118483F31288BFF36F8FFFF7CFFE064A5F
:1059E0000346D2E90001181841EBE37184F31188F2
:1059F000BFF36F8F10BD00BF0808002070B50446CC
:105A00004FF02003EFF3118583F31288BFF36F8FFC
:105A1000D0E90A32013342F10002022B72F1000296
:105A200022D301F001FBD4E90A32013041F1000137
:105A3000C01841EB0201012871F1000132DB01F0D5
:105A4000F3FA013041F10003D4E90A2180186FF024
:105A5000010243EB0103121A4FF0FF3161EB030324
:105A60001A492046FFF7D8FE236B01332363236ACC
:105A700073B185F31188BFF36F8F236A204698476F
:105A80004FF02003EFF3118583F31288BFF36F8F7C
:105A900054F8186FA64200D04EB985F31188BFF3B1
:105AA0006F8F70BD6FF001024FF0FF33D8E73046C3
:105AB00001F01BFA0023B36785F31188BFF36F8FE2
:105AC0003046BDE8704001F000BA00BFFD5900004B
:105AD0002DE9F047B3F1FF3F08BFB2F1FF3F0546A4
